{
	"contracts/FIW.sol": {
		"ERC20": {
			"abi": [
				{
					"inputs": [
						{
							"internalType": "string",
							"name": "name_",
							"type": "string"
						},
						{
							"internalType": "string",
							"name": "symbol_",
							"type": "string"
						}
					],
					"stateMutability": "nonpayable",
					"type": "constructor"
				},
				{
					"anonymous": false,
					"inputs": [
						{
							"indexed": true,
							"internalType": "address",
							"name": "owner",
							"type": "address"
						},
						{
							"indexed": true,
							"internalType": "address",
							"name": "spender",
							"type": "address"
						},
						{
							"indexed": false,
							"internalType": "uint256",
							"name": "value",
							"type": "uint256"
						}
					],
					"name": "Approval",
					"type": "event"
				},
				{
					"anonymous": false,
					"inputs": [
						{
							"indexed": true,
							"internalType": "address",
							"name": "previousOwner",
							"type": "address"
						},
						{
							"indexed": true,
							"internalType": "address",
							"name": "newOwner",
							"type": "address"
						}
					],
					"name": "OwnershipTransferred",
					"type": "event"
				},
				{
					"anonymous": false,
					"inputs": [
						{
							"indexed": true,
							"internalType": "address",
							"name": "from",
							"type": "address"
						},
						{
							"indexed": true,
							"internalType": "address",
							"name": "to",
							"type": "address"
						},
						{
							"indexed": false,
							"internalType": "uint256",
							"name": "value",
							"type": "uint256"
						}
					],
					"name": "Transfer",
					"type": "event"
				},
				{
					"inputs": [
						{
							"internalType": "address",
							"name": "owner",
							"type": "address"
						},
						{
							"internalType": "address",
							"name": "spender",
							"type": "address"
						}
					],
					"name": "allowance",
					"outputs": [
						{
							"internalType": "uint256",
							"name": "",
							"type": "uint256"
						}
					],
					"stateMutability": "view",
					"type": "function"
				},
				{
					"inputs": [
						{
							"internalType": "address",
							"name": "spender",
							"type": "address"
						},
						{
							"internalType": "uint256",
							"name": "amount",
							"type": "uint256"
						}
					],
					"name": "approve",
					"outputs": [
						{
							"internalType": "bool",
							"name": "",
							"type": "bool"
						}
					],
					"stateMutability": "nonpayable",
					"type": "function"
				},
				{
					"inputs": [
						{
							"internalType": "address",
							"name": "account",
							"type": "address"
						}
					],
					"name": "balanceOf",
					"outputs": [
						{
							"internalType": "uint256",
							"name": "",
							"type": "uint256"
						}
					],
					"stateMutability": "view",
					"type": "function"
				},
				{
					"inputs": [],
					"name": "decimals",
					"outputs": [
						{
							"internalType": "uint8",
							"name": "",
							"type": "uint8"
						}
					],
					"stateMutability": "view",
					"type": "function"
				},
				{
					"inputs": [
						{
							"internalType": "address",
							"name": "spender",
							"type": "address"
						},
						{
							"internalType": "uint256",
							"name": "addedValue",
							"type": "uint256"
						}
					],
					"name": "increaseAllowance",
					"outputs": [
						{
							"internalType": "bool",
							"name": "",
							"type": "bool"
						}
					],
					"stateMutability": "nonpayable",
					"type": "function"
				},
				{
					"inputs": [],
					"name": "name",
					"outputs": [
						{
							"internalType": "string",
							"name": "",
							"type": "string"
						}
					],
					"stateMutability": "view",
					"type": "function"
				},
				{
					"inputs": [],
					"name": "owner",
					"outputs": [
						{
							"internalType": "address",
							"name": "",
							"type": "address"
						}
					],
					"stateMutability": "view",
					"type": "function"
				},
				{
					"inputs": [],
					"name": "removeOwner",
					"outputs": [],
					"stateMutability": "nonpayable",
					"type": "function"
				},
				{
					"inputs": [],
					"name": "symbol",
					"outputs": [
						{
							"internalType": "string",
							"name": "",
							"type": "string"
						}
					],
					"stateMutability": "view",
					"type": "function"
				},
				{
					"inputs": [],
					"name": "totalSupply",
					"outputs": [
						{
							"internalType": "uint256",
							"name": "",
							"type": "uint256"
						}
					],
					"stateMutability": "view",
					"type": "function"
				},
				{
					"inputs": [
						{
							"internalType": "address",
							"name": "recipient",
							"type": "address"
						},
						{
							"internalType": "uint256",
							"name": "amount",
							"type": "uint256"
						}
					],
					"name": "transfer",
					"outputs": [
						{
							"internalType": "bool",
							"name": "",
							"type": "bool"
						}
					],
					"stateMutability": "nonpayable",
					"type": "function"
				},
				{
					"inputs": [
						{
							"internalType": "address",
							"name": "sender",
							"type": "address"
						},
						{
							"internalType": "address",
							"name": "recipient",
							"type": "address"
						},
						{
							"internalType": "uint256",
							"name": "amount",
							"type": "uint256"
						}
					],
					"name": "transferFrom",
					"outputs": [
						{
							"internalType": "bool",
							"name": "",
							"type": "bool"
						}
					],
					"stateMutability": "nonpayable",
					"type": "function"
				},
				{
					"inputs": [
						{
							"internalType": "address",
							"name": "newOwner",
							"type": "address"
						}
					],
					"name": "transferOwnership",
					"outputs": [],
					"stateMutability": "nonpayable",
					"type": "function"
				}
			],
			"devdoc": {
				"kind": "dev",
				"methods": {
					"allowance(address,address)": {
						"details": "See {IERC20-allowance}."
					},
					"approve(address,uint256)": {
						"details": "See {IERC20-approve}. Requirements: - `spender` cannot be the zero address."
					},
					"name()": {
						"details": "Returns the name of the token."
					},
					"symbol()": {
						"details": "Returns the symbol of the token, usually a shorter version of the name."
					}
				},
				"version": 1
			},
			"evm": {
				"assembly": "    /* \"contracts/FIW.sol\":1888:7747  contract ERC20 is Context, IERC20, IERC20Metadata {... */\n  mstore(0x40, 0x80)\n    /* \"contracts/FIW.sol\":2299:2509  constructor(string memory name_, string memory symbol_) {... */\n  callvalue\n  dup1\n  iszero\n  tag_1\n  jumpi\n  0x00\n  dup1\n  revert\ntag_1:\n  pop\n  mload(0x40)\n  sub(codesize, bytecodeSize)\n  dup1\n  bytecodeSize\n  dup4\n  codecopy\n  dup2\n  dup2\n  add\n  0x40\n  mstore\n  dup2\n  add\n  swap1\n  tag_2\n  swap2\n  swap1\n  tag_3\n  jump\t// in\ntag_2:\n    /* \"contracts/FIW.sol\":2374:2379  name_ */\n  dup2\n    /* \"contracts/FIW.sol\":2366:2371  _name */\n  0x03\n    /* \"contracts/FIW.sol\":2366:2379  _name = name_ */\n  swap1\n  dup2\n  tag_6\n  swap2\n  swap1\n  tag_7\n  jump\t// in\ntag_6:\n  pop\n    /* \"contracts/FIW.sol\":2400:2407  symbol_ */\n  dup1\n    /* \"contracts/FIW.sol\":2390:2397  _symbol */\n  0x04\n    /* \"contracts/FIW.sol\":2390:2407  _symbol = symbol_ */\n  swap1\n  dup2\n  tag_8\n  swap2\n  swap1\n  tag_7\n  jump\t// in\ntag_8:\n  pop\n    /* \"contracts/FIW.sol\":2427:2439  _msgSender() */\n  tag_9\n    /* \"contracts/FIW.sol\":2427:2437  _msgSender */\n  shl(0x20, tag_10)\n    /* \"contracts/FIW.sol\":2427:2439  _msgSender() */\n  0x20\n  shr\n  jump\t// in\ntag_9:\n    /* \"contracts/FIW.sol\":2418:2424  _owner */\n  0x05\n  0x00\n    /* \"contracts/FIW.sol\":2418:2439  _owner = _msgSender() */\n  0x0100\n  exp\n  dup2\n  sload\n  dup2\n  0xffffffffffffffffffffffffffffffffffffffff\n  mul\n  not\n  and\n  swap1\n  dup4\n  0xffffffffffffffffffffffffffffffffffffffff\n  and\n  mul\n  or\n  swap1\n  sstore\n  pop\n    /* \"contracts/FIW.sol\":2488:2500  _msgSender() */\n  tag_11\n    /* \"contracts/FIW.sol\":2488:2498  _msgSender */\n  shl(0x20, tag_10)\n    /* \"contracts/FIW.sol\":2488:2500  _msgSender() */\n  0x20\n  shr\n  jump\t// in\ntag_11:\n    /* \"contracts/FIW.sol\":2455:2501  OwnershipTransferred(address(0), _msgSender()) */\n  0xffffffffffffffffffffffffffffffffffffffff\n  and\n    /* \"contracts/FIW.sol\":2484:2485  0 */\n  0x00\n    /* \"contracts/FIW.sol\":2455:2501  OwnershipTransferred(address(0), _msgSender()) */\n  0xffffffffffffffffffffffffffffffffffffffff\n  and\n  0x8be0079c531659141344cd1fd0a4f28419497f9722a3daafe3b4186f6b6457e0\n  mload(0x40)\n  mload(0x40)\n  dup1\n  swap2\n  sub\n  swap1\n  log3\n    /* \"contracts/FIW.sol\":2299:2509  constructor(string memory name_, string memory symbol_) {... */\n  pop\n  pop\n    /* \"contracts/FIW.sol\":1888:7747  contract ERC20 is Context, IERC20, IERC20Metadata {... */\n  jump(tag_12)\n    /* \"contracts/FIW.sol\":102:200  function _msgSender() internal view virtual returns (address) {... */\ntag_10:\n    /* \"contracts/FIW.sol\":155:162  address */\n  0x00\n    /* \"contracts/FIW.sol\":182:192  msg.sender */\n  caller\n    /* \"contracts/FIW.sol\":175:192  return msg.sender */\n  swap1\n  pop\n    /* \"contracts/FIW.sol\":102:200  function _msgSender() internal view virtual returns (address) {... */\n  swap1\n  jump\t// out\n    /* \"#utility.yul\":7:82   */\ntag_14:\n    /* \"#utility.yul\":40:46   */\n  0x00\n    /* \"#utility.yul\":73:75   */\n  0x40\n    /* \"#utility.yul\":67:76   */\n  mload\n    /* \"#utility.yul\":57:76   */\n  swap1\n  pop\n    /* \"#utility.yul\":7:82   */\n  swap1\n  jump\t// out\n    /* \"#utility.yul\":88:205   */\ntag_15:\n    /* \"#utility.yul\":197:198   */\n  0x00\n    /* \"#utility.yul\":194:195   */\n  dup1\n    /* \"#utility.yul\":187:199   */\n  revert\n    /* \"#utility.yul\":211:328   */\ntag_16:\n    /* \"#utility.yul\":320:321   */\n  0x00\n    /* \"#utility.yul\":317:318   */\n  dup1\n    /* \"#utility.yul\":310:322   */\n  revert\n    /* \"#utility.yul\":334:451   */\ntag_17:\n    /* \"#utility.yul\":443:444   */\n  0x00\n    /* \"#utility.yul\":440:441   */\n  dup1\n    /* \"#utility.yul\":433:445   */\n  revert\n    /* \"#utility.yul\":457:574   */\ntag_18:\n    /* \"#utility.yul\":566:567   */\n  0x00\n    /* \"#utility.yul\":563:564   */\n  dup1\n    /* \"#utility.yul\":556:568   */\n  revert\n    /* \"#utility.yul\":580:682   */\ntag_19:\n    /* \"#utility.yul\":621:627   */\n  0x00\n    /* \"#utility.yul\":672:674   */\n  0x1f\n    /* \"#utility.yul\":668:675   */\n  not\n    /* \"#utility.yul\":663:665   */\n  0x1f\n    /* \"#utility.yul\":656:661   */\n  dup4\n    /* \"#utility.yul\":652:666   */\n  add\n    /* \"#utility.yul\":648:676   */\n  and\n    /* \"#utility.yul\":638:676   */\n  swap1\n  pop\n    /* \"#utility.yul\":580:682   */\n  swap2\n  swap1\n  pop\n  jump\t// out\n    /* \"#utility.yul\":688:868   */\ntag_20:\n    /* \"#utility.yul\":736:813   */\n  0x4e487b7100000000000000000000000000000000000000000000000000000000\n    /* \"#utility.yul\":733:734   */\n  0x00\n    /* \"#utility.yul\":726:814   */\n  mstore\n    /* \"#utility.yul\":833:837   */\n  0x41\n    /* \"#utility.yul\":830:831   */\n  0x04\n    /* \"#utility.yul\":823:838   */\n  mstore\n    /* \"#utility.yul\":857:861   */\n  0x24\n    /* \"#utility.yul\":854:855   */\n  0x00\n    /* \"#utility.yul\":847:862   */\n  revert\n    /* \"#utility.yul\":874:1155   */\ntag_21:\n    /* \"#utility.yul\":957:984   */\n  tag_55\n    /* \"#utility.yul\":979:983   */\n  dup3\n    /* \"#utility.yul\":957:984   */\n  tag_19\n  jump\t// in\ntag_55:\n    /* \"#utility.yul\":949:955   */\n  dup2\n    /* \"#utility.yul\":945:985   */\n  add\n    /* \"#utility.yul\":1087:1093   */\n  dup2\n    /* \"#utility.yul\":1075:1085   */\n  dup2\n    /* \"#utility.yul\":1072:1094   */\n  lt\n    /* \"#utility.yul\":1051:1069   */\n  0xffffffffffffffff\n    /* \"#utility.yul\":1039:1049   */\n  dup3\n    /* \"#utility.yul\":1036:1070   */\n  gt\n    /* \"#utility.yul\":1033:1095   */\n  or\n    /* \"#utility.yul\":1030:1118   */\n  iszero\n  tag_56\n  jumpi\n    /* \"#utility.yul\":1098:1116   */\n  tag_57\n  tag_20\n  jump\t// in\ntag_57:\n    /* \"#utility.yul\":1030:1118   */\ntag_56:\n    /* \"#utility.yul\":1138:1148   */\n  dup1\n    /* \"#utility.yul\":1134:1136   */\n  0x40\n    /* \"#utility.yul\":1127:1149   */\n  mstore\n    /* \"#utility.yul\":917:1155   */\n  pop\n    /* \"#utility.yul\":874:1155   */\n  pop\n  pop\n  jump\t// out\n    /* \"#utility.yul\":1161:1290   */\ntag_22:\n    /* \"#utility.yul\":1195:1201   */\n  0x00\n    /* \"#utility.yul\":1222:1242   */\n  tag_59\n  tag_14\n  jump\t// in\ntag_59:\n    /* \"#utility.yul\":1212:1242   */\n  swap1\n  pop\n    /* \"#utility.yul\":1251:1284   */\n  tag_60\n    /* \"#utility.yul\":1279:1283   */\n  dup3\n    /* \"#utility.yul\":1271:1277   */\n  dup3\n    /* \"#utility.yul\":1251:1284   */\n  tag_21\n  jump\t// in\ntag_60:\n    /* \"#utility.yul\":1161:1290   */\n  swap2\n  swap1\n  pop\n  jump\t// out\n    /* \"#utility.yul\":1296:1604   */\ntag_23:\n    /* \"#utility.yul\":1358:1362   */\n  0x00\n    /* \"#utility.yul\":1448:1466   */\n  0xffffffffffffffff\n    /* \"#utility.yul\":1440:1446   */\n  dup3\n    /* \"#utility.yul\":1437:1467   */\n  gt\n    /* \"#utility.yul\":1434:1490   */\n  iszero\n  tag_62\n  jumpi\n    /* \"#utility.yul\":1470:1488   */\n  tag_63\n  tag_20\n  jump\t// in\ntag_63:\n    /* \"#utility.yul\":1434:1490   */\ntag_62:\n    /* \"#utility.yul\":1508:1537   */\n  tag_64\n    /* \"#utility.yul\":1530:1536   */\n  dup3\n    /* \"#utility.yul\":1508:1537   */\n  tag_19\n  jump\t// in\ntag_64:\n    /* \"#utility.yul\":1500:1537   */\n  swap1\n  pop\n    /* \"#utility.yul\":1592:1596   */\n  0x20\n    /* \"#utility.yul\":1586:1590   */\n  dup2\n    /* \"#utility.yul\":1582:1597   */\n  add\n    /* \"#utility.yul\":1574:1597   */\n  swap1\n  pop\n    /* \"#utility.yul\":1296:1604   */\n  swap2\n  swap1\n  pop\n  jump\t// out\n    /* \"#utility.yul\":1610:1917   */\ntag_24:\n    /* \"#utility.yul\":1678:1679   */\n  0x00\n    /* \"#utility.yul\":1688:1801   */\ntag_66:\n    /* \"#utility.yul\":1702:1708   */\n  dup4\n    /* \"#utility.yul\":1699:1700   */\n  dup2\n    /* \"#utility.yul\":1696:1709   */\n  lt\n    /* \"#utility.yul\":1688:1801   */\n  iszero\n  tag_68\n  jumpi\n    /* \"#utility.yul\":1787:1788   */\n  dup1\n    /* \"#utility.yul\":1782:1785   */\n  dup3\n    /* \"#utility.yul\":1778:1789   */\n  add\n    /* \"#utility.yul\":1772:1790   */\n  mload\n    /* \"#utility.yul\":1768:1769   */\n  dup2\n    /* \"#utility.yul\":1763:1766   */\n  dup5\n    /* \"#utility.yul\":1759:1770   */\n  add\n    /* \"#utility.yul\":1752:1791   */\n  mstore\n    /* \"#utility.yul\":1724:1726   */\n  0x20\n    /* \"#utility.yul\":1721:1722   */\n  dup2\n    /* \"#utility.yul\":1717:1727   */\n  add\n    /* \"#utility.yul\":1712:1727   */\n  swap1\n  pop\n    /* \"#utility.yul\":1688:1801   */\n  jump(tag_66)\ntag_68:\n    /* \"#utility.yul\":1819:1825   */\n  dup4\n    /* \"#utility.yul\":1816:1817   */\n  dup2\n    /* \"#utility.yul\":1813:1826   */\n  gt\n    /* \"#utility.yul\":1810:1911   */\n  iszero\n  tag_69\n  jumpi\n    /* \"#utility.yul\":1899:1900   */\n  0x00\n    /* \"#utility.yul\":1890:1896   */\n  dup5\n    /* \"#utility.yul\":1885:1888   */\n  dup5\n    /* \"#utility.yul\":1881:1897   */\n  add\n    /* \"#utility.yul\":1874:1901   */\n  mstore\n    /* \"#utility.yul\":1810:1911   */\ntag_69:\n    /* \"#utility.yul\":1659:1917   */\n  pop\n    /* \"#utility.yul\":1610:1917   */\n  pop\n  pop\n  pop\n  jump\t// out\n    /* \"#utility.yul\":1923:2344   */\ntag_25:\n    /* \"#utility.yul\":2012:2017   */\n  0x00\n    /* \"#utility.yul\":2037:2103   */\n  tag_71\n    /* \"#utility.yul\":2053:2102   */\n  tag_72\n    /* \"#utility.yul\":2095:2101   */\n  dup5\n    /* \"#utility.yul\":2053:2102   */\n  tag_23\n  jump\t// in\ntag_72:\n    /* \"#utility.yul\":2037:2103   */\n  tag_22\n  jump\t// in\ntag_71:\n    /* \"#utility.yul\":2028:2103   */\n  swap1\n  pop\n    /* \"#utility.yul\":2126:2132   */\n  dup3\n    /* \"#utility.yul\":2119:2124   */\n  dup2\n    /* \"#utility.yul\":2112:2133   */\n  mstore\n    /* \"#utility.yul\":2164:2168   */\n  0x20\n    /* \"#utility.yul\":2157:2162   */\n  dup2\n    /* \"#utility.yul\":2153:2169   */\n  add\n    /* \"#utility.yul\":2202:2205   */\n  dup5\n    /* \"#utility.yul\":2193:2199   */\n  dup5\n    /* \"#utility.yul\":2188:2191   */\n  dup5\n    /* \"#utility.yul\":2184:2200   */\n  add\n    /* \"#utility.yul\":2181:2206   */\n  gt\n    /* \"#utility.yul\":2178:2290   */\n  iszero\n  tag_73\n  jumpi\n    /* \"#utility.yul\":2209:2288   */\n  tag_74\n  tag_18\n  jump\t// in\ntag_74:\n    /* \"#utility.yul\":2178:2290   */\ntag_73:\n    /* \"#utility.yul\":2299:2338   */\n  tag_75\n    /* \"#utility.yul\":2331:2337   */\n  dup5\n    /* \"#utility.yul\":2326:2329   */\n  dup3\n    /* \"#utility.yul\":2321:2324   */\n  dup6\n    /* \"#utility.yul\":2299:2338   */\n  tag_24\n  jump\t// in\ntag_75:\n    /* \"#utility.yul\":2018:2344   */\n  pop\n    /* \"#utility.yul\":1923:2344   */\n  swap4\n  swap3\n  pop\n  pop\n  pop\n  jump\t// out\n    /* \"#utility.yul\":2364:2719   */\ntag_26:\n    /* \"#utility.yul\":2431:2436   */\n  0x00\n    /* \"#utility.yul\":2480:2483   */\n  dup3\n    /* \"#utility.yul\":2473:2477   */\n  0x1f\n    /* \"#utility.yul\":2465:2471   */\n  dup4\n    /* \"#utility.yul\":2461:2478   */\n  add\n    /* \"#utility.yul\":2457:2484   */\n  slt\n    /* \"#utility.yul\":2447:2569   */\n  tag_77\n  jumpi\n    /* \"#utility.yul\":2488:2567   */\n  tag_78\n  tag_17\n  jump\t// in\ntag_78:\n    /* \"#utility.yul\":2447:2569   */\ntag_77:\n    /* \"#utility.yul\":2598:2604   */\n  dup2\n    /* \"#utility.yul\":2592:2605   */\n  mload\n    /* \"#utility.yul\":2623:2713   */\n  tag_79\n    /* \"#utility.yul\":2709:2712   */\n  dup5\n    /* \"#utility.yul\":2701:2707   */\n  dup3\n    /* \"#utility.yul\":2694:2698   */\n  0x20\n    /* \"#utility.yul\":2686:2692   */\n  dup7\n    /* \"#utility.yul\":2682:2699   */\n  add\n    /* \"#utility.yul\":2623:2713   */\n  tag_25\n  jump\t// in\ntag_79:\n    /* \"#utility.yul\":2614:2713   */\n  swap2\n  pop\n    /* \"#utility.yul\":2437:2719   */\n  pop\n    /* \"#utility.yul\":2364:2719   */\n  swap3\n  swap2\n  pop\n  pop\n  jump\t// out\n    /* \"#utility.yul\":2725:3578   */\ntag_3:\n    /* \"#utility.yul\":2824:2830   */\n  0x00\n    /* \"#utility.yul\":2832:2838   */\n  dup1\n    /* \"#utility.yul\":2881:2883   */\n  0x40\n    /* \"#utility.yul\":2869:2878   */\n  dup4\n    /* \"#utility.yul\":2860:2867   */\n  dup6\n    /* \"#utility.yul\":2856:2879   */\n  sub\n    /* \"#utility.yul\":2852:2884   */\n  slt\n    /* \"#utility.yul\":2849:2968   */\n  iszero\n  tag_81\n  jumpi\n    /* \"#utility.yul\":2887:2966   */\n  tag_82\n  tag_15\n  jump\t// in\ntag_82:\n    /* \"#utility.yul\":2849:2968   */\ntag_81:\n    /* \"#utility.yul\":3028:3029   */\n  0x00\n    /* \"#utility.yul\":3017:3026   */\n  dup4\n    /* \"#utility.yul\":3013:3030   */\n  add\n    /* \"#utility.yul\":3007:3031   */\n  mload\n    /* \"#utility.yul\":3058:3076   */\n  0xffffffffffffffff\n    /* \"#utility.yul\":3050:3056   */\n  dup2\n    /* \"#utility.yul\":3047:3077   */\n  gt\n    /* \"#utility.yul\":3044:3161   */\n  iszero\n  tag_83\n  jumpi\n    /* \"#utility.yul\":3080:3159   */\n  tag_84\n  tag_16\n  jump\t// in\ntag_84:\n    /* \"#utility.yul\":3044:3161   */\ntag_83:\n    /* \"#utility.yul\":3185:3259   */\n  tag_85\n    /* \"#utility.yul\":3251:3258   */\n  dup6\n    /* \"#utility.yul\":3242:3248   */\n  dup3\n    /* \"#utility.yul\":3231:3240   */\n  dup7\n    /* \"#utility.yul\":3227:3249   */\n  add\n    /* \"#utility.yul\":3185:3259   */\n  tag_26\n  jump\t// in\ntag_85:\n    /* \"#utility.yul\":3175:3259   */\n  swap3\n  pop\n    /* \"#utility.yul\":2978:3269   */\n  pop\n    /* \"#utility.yul\":3329:3331   */\n  0x20\n    /* \"#utility.yul\":3318:3327   */\n  dup4\n    /* \"#utility.yul\":3314:3332   */\n  add\n    /* \"#utility.yul\":3308:3333   */\n  mload\n    /* \"#utility.yul\":3360:3378   */\n  0xffffffffffffffff\n    /* \"#utility.yul\":3352:3358   */\n  dup2\n    /* \"#utility.yul\":3349:3379   */\n  gt\n    /* \"#utility.yul\":3346:3463   */\n  iszero\n  tag_86\n  jumpi\n    /* \"#utility.yul\":3382:3461   */\n  tag_87\n  tag_16\n  jump\t// in\ntag_87:\n    /* \"#utility.yul\":3346:3463   */\ntag_86:\n    /* \"#utility.yul\":3487:3561   */\n  tag_88\n    /* \"#utility.yul\":3553:3560   */\n  dup6\n    /* \"#utility.yul\":3544:3550   */\n  dup3\n    /* \"#utility.yul\":3533:3542   */\n  dup7\n    /* \"#utility.yul\":3529:3551   */\n  add\n    /* \"#utility.yul\":3487:3561   */\n  tag_26\n  jump\t// in\ntag_88:\n    /* \"#utility.yul\":3477:3561   */\n  swap2\n  pop\n    /* \"#utility.yul\":3279:3571   */\n  pop\n    /* \"#utility.yul\":2725:3578   */\n  swap3\n  pop\n  swap3\n  swap1\n  pop\n  jump\t// out\n    /* \"#utility.yul\":3584:3683   */\ntag_27:\n    /* \"#utility.yul\":3636:3642   */\n  0x00\n    /* \"#utility.yul\":3670:3675   */\n  dup2\n    /* \"#utility.yul\":3664:3676   */\n  mload\n    /* \"#utility.yul\":3654:3676   */\n  swap1\n  pop\n    /* \"#utility.yul\":3584:3683   */\n  swap2\n  swap1\n  pop\n  jump\t// out\n    /* \"#utility.yul\":3689:3869   */\ntag_28:\n    /* \"#utility.yul\":3737:3814   */\n  0x4e487b7100000000000000000000000000000000000000000000000000000000\n    /* \"#utility.yul\":3734:3735   */\n  0x00\n    /* \"#utility.yul\":3727:3815   */\n  mstore\n    /* \"#utility.yul\":3834:3838   */\n  0x22\n    /* \"#utility.yul\":3831:3832   */\n  0x04\n    /* \"#utility.yul\":3824:3839   */\n  mstore\n    /* \"#utility.yul\":3858:3862   */\n  0x24\n    /* \"#utility.yul\":3855:3856   */\n  0x00\n    /* \"#utility.yul\":3848:3863   */\n  revert\n    /* \"#utility.yul\":3875:4195   */\ntag_29:\n    /* \"#utility.yul\":3919:3925   */\n  0x00\n    /* \"#utility.yul\":3956:3957   */\n  0x02\n    /* \"#utility.yul\":3950:3954   */\n  dup3\n    /* \"#utility.yul\":3946:3958   */\n  div\n    /* \"#utility.yul\":3936:3958   */\n  swap1\n  pop\n    /* \"#utility.yul\":4003:4004   */\n  0x01\n    /* \"#utility.yul\":3997:4001   */\n  dup3\n    /* \"#utility.yul\":3993:4005   */\n  and\n    /* \"#utility.yul\":4024:4042   */\n  dup1\n    /* \"#utility.yul\":4014:4095   */\n  tag_92\n  jumpi\n    /* \"#utility.yul\":4080:4084   */\n  0x7f\n    /* \"#utility.yul\":4072:4078   */\n  dup3\n    /* \"#utility.yul\":4068:4085   */\n  and\n    /* \"#utility.yul\":4058:4085   */\n  swap2\n  pop\n    /* \"#utility.yul\":4014:4095   */\ntag_92:\n    /* \"#utility.yul\":4142:4144   */\n  0x20\n    /* \"#utility.yul\":4134:4140   */\n  dup3\n    /* \"#utility.yul\":4131:4145   */\n  lt\n    /* \"#utility.yul\":4111:4129   */\n  dup2\n    /* \"#utility.yul\":4108:4146   */\n  sub\n    /* \"#utility.yul\":4105:4189   */\n  tag_93\n  jumpi\n    /* \"#utility.yul\":4161:4179   */\n  tag_94\n  tag_28\n  jump\t// in\ntag_94:\n    /* \"#utility.yul\":4105:4189   */\ntag_93:\n    /* \"#utility.yul\":3926:4195   */\n  pop\n    /* \"#utility.yul\":3875:4195   */\n  swap2\n  swap1\n  pop\n  jump\t// out\n    /* \"#utility.yul\":4201:4342   */\ntag_30:\n    /* \"#utility.yul\":4250:4254   */\n  0x00\n    /* \"#utility.yul\":4273:4276   */\n  dup2\n    /* \"#utility.yul\":4265:4276   */\n  swap1\n  pop\n    /* \"#utility.yul\":4296:4299   */\n  dup2\n    /* \"#utility.yul\":4293:4294   */\n  0x00\n    /* \"#utility.yul\":4286:4300   */\n  mstore\n    /* \"#utility.yul\":4330:4334   */\n  0x20\n    /* \"#utility.yul\":4327:4328   */\n  0x00\n    /* \"#utility.yul\":4317:4335   */\n  keccak256\n    /* \"#utility.yul\":4309:4335   */\n  swap1\n  pop\n    /* \"#utility.yul\":4201:4342   */\n  swap2\n  swap1\n  pop\n  jump\t// out\n    /* \"#utility.yul\":4348:4441   */\ntag_31:\n    /* \"#utility.yul\":4385:4391   */\n  0x00\n    /* \"#utility.yul\":4432:4434   */\n  0x20\n    /* \"#utility.yul\":4427:4429   */\n  0x1f\n    /* \"#utility.yul\":4420:4425   */\n  dup4\n    /* \"#utility.yul\":4416:4430   */\n  add\n    /* \"#utility.yul\":4412:4435   */\n  div\n    /* \"#utility.yul\":4402:4435   */\n  swap1\n  pop\n    /* \"#utility.yul\":4348:4441   */\n  swap2\n  swap1\n  pop\n  jump\t// out\n    /* \"#utility.yul\":4447:4554   */\ntag_32:\n    /* \"#utility.yul\":4491:4499   */\n  0x00\n    /* \"#utility.yul\":4541:4546   */\n  dup3\n    /* \"#utility.yul\":4535:4539   */\n  dup3\n    /* \"#utility.yul\":4531:4547   */\n  shl\n    /* \"#utility.yul\":4510:4547   */\n  swap1\n  pop\n    /* \"#utility.yul\":4447:4554   */\n  swap3\n  swap2\n  pop\n  pop\n  jump\t// out\n    /* \"#utility.yul\":4560:4953   */\ntag_33:\n    /* \"#utility.yul\":4629:4635   */\n  0x00\n    /* \"#utility.yul\":4679:4680   */\n  0x08\n    /* \"#utility.yul\":4667:4677   */\n  dup4\n    /* \"#utility.yul\":4663:4681   */\n  mul\n    /* \"#utility.yul\":4702:4799   */\n  tag_99\n    /* \"#utility.yul\":4732:4798   */\n  0xffffffffffffffffffffffffffffffffffffffffffffffffffffffffffffffff\n    /* \"#utility.yul\":4721:4730   */\n  dup3\n    /* \"#utility.yul\":4702:4799   */\n  tag_32\n  jump\t// in\ntag_99:\n    /* \"#utility.yul\":4820:4859   */\n  tag_100\n    /* \"#utility.yul\":4850:4858   */\n  dup7\n    /* \"#utility.yul\":4839:4848   */\n  dup4\n    /* \"#utility.yul\":4820:4859   */\n  tag_32\n  jump\t// in\ntag_100:\n    /* \"#utility.yul\":4808:4859   */\n  swap6\n  pop\n    /* \"#utility.yul\":4892:4896   */\n  dup1\n    /* \"#utility.yul\":4888:4897   */\n  not\n    /* \"#utility.yul\":4881:4886   */\n  dup5\n    /* \"#utility.yul\":4877:4898   */\n  and\n    /* \"#utility.yul\":4868:4898   */\n  swap4\n  pop\n    /* \"#utility.yul\":4941:4945   */\n  dup1\n    /* \"#utility.yul\":4931:4939   */\n  dup7\n    /* \"#utility.yul\":4927:4946   */\n  and\n    /* \"#utility.yul\":4920:4925   */\n  dup5\n    /* \"#utility.yul\":4917:4947   */\n  or\n    /* \"#utility.yul\":4907:4947   */\n  swap3\n  pop\n    /* \"#utility.yul\":4636:4953   */\n  pop\n  pop\n    /* \"#utility.yul\":4560:4953   */\n  swap4\n  swap3\n  pop\n  pop\n  pop\n  jump\t// out\n    /* \"#utility.yul\":4959:5036   */\ntag_34:\n    /* \"#utility.yul\":4996:5003   */\n  0x00\n    /* \"#utility.yul\":5025:5030   */\n  dup2\n    /* \"#utility.yul\":5014:5030   */\n  swap1\n  pop\n    /* \"#utility.yul\":4959:5036   */\n  swap2\n  swap1\n  pop\n  jump\t// out\n    /* \"#utility.yul\":5042:5102   */\ntag_35:\n    /* \"#utility.yul\":5070:5073   */\n  0x00\n    /* \"#utility.yul\":5091:5096   */\n  dup2\n    /* \"#utility.yul\":5084:5096   */\n  swap1\n  pop\n    /* \"#utility.yul\":5042:5102   */\n  swap2\n  swap1\n  pop\n  jump\t// out\n    /* \"#utility.yul\":5108:5250   */\ntag_36:\n    /* \"#utility.yul\":5158:5167   */\n  0x00\n    /* \"#utility.yul\":5191:5244   */\n  tag_104\n    /* \"#utility.yul\":5209:5243   */\n  tag_105\n    /* \"#utility.yul\":5218:5242   */\n  tag_106\n    /* \"#utility.yul\":5236:5241   */\n  dup5\n    /* \"#utility.yul\":5218:5242   */\n  tag_34\n  jump\t// in\ntag_106:\n    /* \"#utility.yul\":5209:5243   */\n  tag_35\n  jump\t// in\ntag_105:\n    /* \"#utility.yul\":5191:5244   */\n  tag_34\n  jump\t// in\ntag_104:\n    /* \"#utility.yul\":5178:5244   */\n  swap1\n  pop\n    /* \"#utility.yul\":5108:5250   */\n  swap2\n  swap1\n  pop\n  jump\t// out\n    /* \"#utility.yul\":5256:5331   */\ntag_37:\n    /* \"#utility.yul\":5299:5302   */\n  0x00\n    /* \"#utility.yul\":5320:5325   */\n  dup2\n    /* \"#utility.yul\":5313:5325   */\n  swap1\n  pop\n    /* \"#utility.yul\":5256:5331   */\n  swap2\n  swap1\n  pop\n  jump\t// out\n    /* \"#utility.yul\":5337:5606   */\ntag_38:\n    /* \"#utility.yul\":5447:5486   */\n  tag_109\n    /* \"#utility.yul\":5478:5485   */\n  dup4\n    /* \"#utility.yul\":5447:5486   */\n  tag_36\n  jump\t// in\ntag_109:\n    /* \"#utility.yul\":5508:5599   */\n  tag_110\n    /* \"#utility.yul\":5557:5598   */\n  tag_111\n    /* \"#utility.yul\":5581:5597   */\n  dup3\n    /* \"#utility.yul\":5557:5598   */\n  tag_37\n  jump\t// in\ntag_111:\n    /* \"#utility.yul\":5549:5555   */\n  dup5\n    /* \"#utility.yul\":5542:5546   */\n  dup5\n    /* \"#utility.yul\":5536:5547   */\n  sload\n    /* \"#utility.yul\":5508:5599   */\n  tag_33\n  jump\t// in\ntag_110:\n    /* \"#utility.yul\":5502:5506   */\n  dup3\n    /* \"#utility.yul\":5495:5600   */\n  sstore\n    /* \"#utility.yul\":5413:5606   */\n  pop\n    /* \"#utility.yul\":5337:5606   */\n  pop\n  pop\n  pop\n  jump\t// out\n    /* \"#utility.yul\":5612:5685   */\ntag_39:\n    /* \"#utility.yul\":5657:5660   */\n  0x00\n    /* \"#utility.yul\":5612:5685   */\n  swap1\n  jump\t// out\n    /* \"#utility.yul\":5691:5880   */\ntag_40:\n    /* \"#utility.yul\":5768:5800   */\n  tag_114\n  tag_39\n  jump\t// in\ntag_114:\n    /* \"#utility.yul\":5809:5874   */\n  tag_115\n    /* \"#utility.yul\":5867:5873   */\n  dup2\n    /* \"#utility.yul\":5859:5865   */\n  dup5\n    /* \"#utility.yul\":5853:5857   */\n  dup5\n    /* \"#utility.yul\":5809:5874   */\n  tag_38\n  jump\t// in\ntag_115:\n    /* \"#utility.yul\":5744:5880   */\n  pop\n    /* \"#utility.yul\":5691:5880   */\n  pop\n  pop\n  jump\t// out\n    /* \"#utility.yul\":5886:6072   */\ntag_41:\n    /* \"#utility.yul\":5946:6066   */\ntag_117:\n    /* \"#utility.yul\":5963:5966   */\n  dup2\n    /* \"#utility.yul\":5956:5961   */\n  dup2\n    /* \"#utility.yul\":5953:5967   */\n  lt\n    /* \"#utility.yul\":5946:6066   */\n  iszero\n  tag_119\n  jumpi\n    /* \"#utility.yul\":6017:6056   */\n  tag_120\n    /* \"#utility.yul\":6054:6055   */\n  0x00\n    /* \"#utility.yul\":6047:6052   */\n  dup3\n    /* \"#utility.yul\":6017:6056   */\n  tag_40\n  jump\t// in\ntag_120:\n    /* \"#utility.yul\":5990:5991   */\n  0x01\n    /* \"#utility.yul\":5983:5988   */\n  dup2\n    /* \"#utility.yul\":5979:5992   */\n  add\n    /* \"#utility.yul\":5970:5992   */\n  swap1\n  pop\n    /* \"#utility.yul\":5946:6066   */\n  jump(tag_117)\ntag_119:\n    /* \"#utility.yul\":5886:6072   */\n  pop\n  pop\n  jump\t// out\n    /* \"#utility.yul\":6078:6621   */\ntag_42:\n    /* \"#utility.yul\":6179:6181   */\n  0x1f\n    /* \"#utility.yul\":6174:6177   */\n  dup3\n    /* \"#utility.yul\":6171:6182   */\n  gt\n    /* \"#utility.yul\":6168:6614   */\n  iszero\n  tag_122\n  jumpi\n    /* \"#utility.yul\":6213:6251   */\n  tag_123\n    /* \"#utility.yul\":6245:6250   */\n  dup2\n    /* \"#utility.yul\":6213:6251   */\n  tag_30\n  jump\t// in\ntag_123:\n    /* \"#utility.yul\":6297:6326   */\n  tag_124\n    /* \"#utility.yul\":6315:6325   */\n  dup5\n    /* \"#utility.yul\":6297:6326   */\n  tag_31\n  jump\t// in\ntag_124:\n    /* \"#utility.yul\":6287:6295   */\n  dup2\n    /* \"#utility.yul\":6283:6327   */\n  add\n    /* \"#utility.yul\":6480:6482   */\n  0x20\n    /* \"#utility.yul\":6468:6478   */\n  dup6\n    /* \"#utility.yul\":6465:6483   */\n  lt\n    /* \"#utility.yul\":6462:6511   */\n  iszero\n  tag_125\n  jumpi\n    /* \"#utility.yul\":6501:6509   */\n  dup2\n    /* \"#utility.yul\":6486:6509   */\n  swap1\n  pop\n    /* \"#utility.yul\":6462:6511   */\ntag_125:\n    /* \"#utility.yul\":6524:6604   */\n  tag_126\n    /* \"#utility.yul\":6580:6602   */\n  tag_127\n    /* \"#utility.yul\":6598:6601   */\n  dup6\n    /* \"#utility.yul\":6580:6602   */\n  tag_31\n  jump\t// in\ntag_127:\n    /* \"#utility.yul\":6570:6578   */\n  dup4\n    /* \"#utility.yul\":6566:6603   */\n  add\n    /* \"#utility.yul\":6553:6564   */\n  dup3\n    /* \"#utility.yul\":6524:6604   */\n  tag_41\n  jump\t// in\ntag_126:\n    /* \"#utility.yul\":6183:6614   */\n  pop\n  pop\n    /* \"#utility.yul\":6168:6614   */\ntag_122:\n    /* \"#utility.yul\":6078:6621   */\n  pop\n  pop\n  pop\n  jump\t// out\n    /* \"#utility.yul\":6627:6744   */\ntag_43:\n    /* \"#utility.yul\":6681:6689   */\n  0x00\n    /* \"#utility.yul\":6731:6736   */\n  dup3\n    /* \"#utility.yul\":6725:6729   */\n  dup3\n    /* \"#utility.yul\":6721:6737   */\n  shr\n    /* \"#utility.yul\":6700:6737   */\n  swap1\n  pop\n    /* \"#utility.yul\":6627:6744   */\n  swap3\n  swap2\n  pop\n  pop\n  jump\t// out\n    /* \"#utility.yul\":6750:6919   */\ntag_44:\n    /* \"#utility.yul\":6794:6800   */\n  0x00\n    /* \"#utility.yul\":6827:6878   */\n  tag_130\n    /* \"#utility.yul\":6875:6876   */\n  0x00\n    /* \"#utility.yul\":6871:6877   */\n  not\n    /* \"#utility.yul\":6863:6868   */\n  dup5\n    /* \"#utility.yul\":6860:6861   */\n  0x08\n    /* \"#utility.yul\":6856:6869   */\n  mul\n    /* \"#utility.yul\":6827:6878   */\n  tag_43\n  jump\t// in\ntag_130:\n    /* \"#utility.yul\":6823:6879   */\n  not\n    /* \"#utility.yul\":6908:6912   */\n  dup1\n    /* \"#utility.yul\":6902:6906   */\n  dup4\n    /* \"#utility.yul\":6898:6913   */\n  and\n    /* \"#utility.yul\":6888:6913   */\n  swap2\n  pop\n    /* \"#utility.yul\":6801:6919   */\n  pop\n    /* \"#utility.yul\":6750:6919   */\n  swap3\n  swap2\n  pop\n  pop\n  jump\t// out\n    /* \"#utility.yul\":6924:7219   */\ntag_45:\n    /* \"#utility.yul\":7000:7004   */\n  0x00\n    /* \"#utility.yul\":7146:7175   */\n  tag_132\n    /* \"#utility.yul\":7171:7174   */\n  dup4\n    /* \"#utility.yul\":7165:7169   */\n  dup4\n    /* \"#utility.yul\":7146:7175   */\n  tag_44\n  jump\t// in\ntag_132:\n    /* \"#utility.yul\":7138:7175   */\n  swap2\n  pop\n    /* \"#utility.yul\":7208:7211   */\n  dup3\n    /* \"#utility.yul\":7205:7206   */\n  0x02\n    /* \"#utility.yul\":7201:7212   */\n  mul\n    /* \"#utility.yul\":7195:7199   */\n  dup3\n    /* \"#utility.yul\":7192:7213   */\n  or\n    /* \"#utility.yul\":7184:7213   */\n  swap1\n  pop\n    /* \"#utility.yul\":6924:7219   */\n  swap3\n  swap2\n  pop\n  pop\n  jump\t// out\n    /* \"#utility.yul\":7224:8619   */\ntag_7:\n    /* \"#utility.yul\":7341:7378   */\n  tag_134\n    /* \"#utility.yul\":7374:7377   */\n  dup3\n    /* \"#utility.yul\":7341:7378   */\n  tag_27\n  jump\t// in\ntag_134:\n    /* \"#utility.yul\":7443:7461   */\n  0xffffffffffffffff\n    /* \"#utility.yul\":7435:7441   */\n  dup2\n    /* \"#utility.yul\":7432:7462   */\n  gt\n    /* \"#utility.yul\":7429:7485   */\n  iszero\n  tag_135\n  jumpi\n    /* \"#utility.yul\":7465:7483   */\n  tag_136\n  tag_20\n  jump\t// in\ntag_136:\n    /* \"#utility.yul\":7429:7485   */\ntag_135:\n    /* \"#utility.yul\":7509:7547   */\n  tag_137\n    /* \"#utility.yul\":7541:7545   */\n  dup3\n    /* \"#utility.yul\":7535:7546   */\n  sload\n    /* \"#utility.yul\":7509:7547   */\n  tag_29\n  jump\t// in\ntag_137:\n    /* \"#utility.yul\":7594:7661   */\n  tag_138\n    /* \"#utility.yul\":7654:7660   */\n  dup3\n    /* \"#utility.yul\":7646:7652   */\n  dup3\n    /* \"#utility.yul\":7640:7644   */\n  dup6\n    /* \"#utility.yul\":7594:7661   */\n  tag_42\n  jump\t// in\ntag_138:\n    /* \"#utility.yul\":7688:7689   */\n  0x00\n    /* \"#utility.yul\":7712:7716   */\n  0x20\n    /* \"#utility.yul\":7699:7716   */\n  swap1\n  pop\n    /* \"#utility.yul\":7744:7746   */\n  0x1f\n    /* \"#utility.yul\":7736:7742   */\n  dup4\n    /* \"#utility.yul\":7733:7747   */\n  gt\n    /* \"#utility.yul\":7761:7762   */\n  0x01\n    /* \"#utility.yul\":7756:8374   */\n  dup2\n  eq\n  tag_140\n  jumpi\n    /* \"#utility.yul\":8418:8419   */\n  0x00\n    /* \"#utility.yul\":8435:8441   */\n  dup5\n    /* \"#utility.yul\":8432:8509   */\n  iszero\n  tag_141\n  jumpi\n    /* \"#utility.yul\":8484:8493   */\n  dup3\n    /* \"#utility.yul\":8479:8482   */\n  dup8\n    /* \"#utility.yul\":8475:8494   */\n  add\n    /* \"#utility.yul\":8469:8495   */\n  mload\n    /* \"#utility.yul\":8460:8495   */\n  swap1\n  pop\n    /* \"#utility.yul\":8432:8509   */\ntag_141:\n    /* \"#utility.yul\":8535:8602   */\n  tag_142\n    /* \"#utility.yul\":8595:8601   */\n  dup6\n    /* \"#utility.yul\":8588:8593   */\n  dup3\n    /* \"#utility.yul\":8535:8602   */\n  tag_45\n  jump\t// in\ntag_142:\n    /* \"#utility.yul\":8529:8533   */\n  dup7\n    /* \"#utility.yul\":8522:8603   */\n  sstore\n    /* \"#utility.yul\":8391:8613   */\n  pop\n    /* \"#utility.yul\":7726:8613   */\n  jump(tag_139)\n    /* \"#utility.yul\":7756:8374   */\ntag_140:\n    /* \"#utility.yul\":7808:7812   */\n  0x1f\n    /* \"#utility.yul\":7804:7813   */\n  not\n    /* \"#utility.yul\":7796:7802   */\n  dup5\n    /* \"#utility.yul\":7792:7814   */\n  and\n    /* \"#utility.yul\":7842:7879   */\n  tag_143\n    /* \"#utility.yul\":7874:7878   */\n  dup7\n    /* \"#utility.yul\":7842:7879   */\n  tag_30\n  jump\t// in\ntag_143:\n    /* \"#utility.yul\":7901:7902   */\n  0x00\n    /* \"#utility.yul\":7915:8123   */\ntag_144:\n    /* \"#utility.yul\":7929:7936   */\n  dup3\n    /* \"#utility.yul\":7926:7927   */\n  dup2\n    /* \"#utility.yul\":7923:7937   */\n  lt\n    /* \"#utility.yul\":7915:8123   */\n  iszero\n  tag_146\n  jumpi\n    /* \"#utility.yul\":8008:8017   */\n  dup5\n    /* \"#utility.yul\":8003:8006   */\n  dup10\n    /* \"#utility.yul\":7999:8018   */\n  add\n    /* \"#utility.yul\":7993:8019   */\n  mload\n    /* \"#utility.yul\":7985:7991   */\n  dup3\n    /* \"#utility.yul\":7978:8020   */\n  sstore\n    /* \"#utility.yul\":8059:8060   */\n  0x01\n    /* \"#utility.yul\":8051:8057   */\n  dup3\n    /* \"#utility.yul\":8047:8061   */\n  add\n    /* \"#utility.yul\":8037:8061   */\n  swap2\n  pop\n    /* \"#utility.yul\":8106:8108   */\n  0x20\n    /* \"#utility.yul\":8095:8104   */\n  dup6\n    /* \"#utility.yul\":8091:8109   */\n  add\n    /* \"#utility.yul\":8078:8109   */\n  swap5\n  pop\n    /* \"#utility.yul\":7952:7956   */\n  0x20\n    /* \"#utility.yul\":7949:7950   */\n  dup2\n    /* \"#utility.yul\":7945:7957   */\n  add\n    /* \"#utility.yul\":7940:7957   */\n  swap1\n  pop\n    /* \"#utility.yul\":7915:8123   */\n  jump(tag_144)\ntag_146:\n    /* \"#utility.yul\":8151:8157   */\n  dup7\n    /* \"#utility.yul\":8142:8149   */\n  dup4\n    /* \"#utility.yul\":8139:8158   */\n  lt\n    /* \"#utility.yul\":8136:8315   */\n  iszero\n  tag_147\n  jumpi\n    /* \"#utility.yul\":8209:8218   */\n  dup5\n    /* \"#utility.yul\":8204:8207   */\n  dup10\n    /* \"#utility.yul\":8200:8219   */\n  add\n    /* \"#utility.yul\":8194:8220   */\n  mload\n    /* \"#utility.yul\":8252:8300   */\n  tag_148\n    /* \"#utility.yul\":8294:8298   */\n  0x1f\n    /* \"#utility.yul\":8286:8292   */\n  dup10\n    /* \"#utility.yul\":8282:8299   */\n  and\n    /* \"#utility.yul\":8271:8280   */\n  dup3\n    /* \"#utility.yul\":8252:8300   */\n  tag_44\n  jump\t// in\ntag_148:\n    /* \"#utility.yul\":8244:8250   */\n  dup4\n    /* \"#utility.yul\":8237:8301   */\n  sstore\n    /* \"#utility.yul\":8159:8315   */\n  pop\n    /* \"#utility.yul\":8136:8315   */\ntag_147:\n    /* \"#utility.yul\":8361:8362   */\n  0x01\n    /* \"#utility.yul\":8357:8358   */\n  0x02\n    /* \"#utility.yul\":8349:8355   */\n  dup9\n    /* \"#utility.yul\":8345:8359   */\n  mul\n    /* \"#utility.yul\":8341:8363   */\n  add\n    /* \"#utility.yul\":8335:8339   */\n  dup9\n    /* \"#utility.yul\":8328:8364   */\n  sstore\n    /* \"#utility.yul\":7763:8374   */\n  pop\n  pop\n  pop\n    /* \"#utility.yul\":7726:8613   */\ntag_139:\n  pop\n    /* \"#utility.yul\":7316:8619   */\n  pop\n  pop\n  pop\n    /* \"#utility.yul\":7224:8619   */\n  pop\n  pop\n  jump\t// out\n    /* \"contracts/FIW.sol\":1888:7747  contract ERC20 is Context, IERC20, IERC20Metadata {... */\ntag_12:\n  dataSize(sub_0)\n  dup1\n  dataOffset(sub_0)\n  0x00\n  codecopy\n  0x00\n  return\nstop\n\nsub_0: assembly {\n        /* \"contracts/FIW.sol\":1888:7747  contract ERC20 is Context, IERC20, IERC20Metadata {... */\n      mstore(0x40, 0x80)\n      callvalue\n      dup1\n      iszero\n      tag_1\n      jumpi\n      0x00\n      dup1\n      revert\n    tag_1:\n      pop\n      jumpi(tag_2, lt(calldatasize, 0x04))\n      shr(0xe0, calldataload(0x00))\n      dup1\n      0x39509351\n      gt\n      tag_16\n      jumpi\n      dup1\n      0x95d89b41\n      gt\n      tag_17\n      jumpi\n      dup1\n      0x95d89b41\n      eq\n      tag_12\n      jumpi\n      dup1\n      0xa9059cbb\n      eq\n      tag_13\n      jumpi\n      dup1\n      0xdd62ed3e\n      eq\n      tag_14\n      jumpi\n      dup1\n      0xf2fde38b\n      eq\n      tag_15\n      jumpi\n      jump(tag_2)\n    tag_17:\n      dup1\n      0x39509351\n      eq\n      tag_9\n      jumpi\n      dup1\n      0x70a08231\n      eq\n      tag_10\n      jumpi\n      dup1\n      0x8da5cb5b\n      eq\n      tag_11\n      jumpi\n      jump(tag_2)\n    tag_16:\n      dup1\n      0x06fdde03\n      eq\n      tag_3\n      jumpi\n      dup1\n      0x095ea7b3\n      eq\n      tag_4\n      jumpi\n      dup1\n      0x18160ddd\n      eq\n      tag_5\n      jumpi\n      dup1\n      0x23b872dd\n      eq\n      tag_6\n      jumpi\n      dup1\n      0x246f8b96\n      eq\n      tag_7\n      jumpi\n      dup1\n      0x313ce567\n      eq\n      tag_8\n      jumpi\n    tag_2:\n      0x00\n      dup1\n      revert\n        /* \"contracts/FIW.sol\":3176:3276  function name() public view virtual override returns (string memory) {... */\n    tag_3:\n      tag_18\n      tag_19\n      jump\t// in\n    tag_18:\n      mload(0x40)\n      tag_20\n      swap2\n      swap1\n      tag_21\n      jump\t// in\n    tag_20:\n      mload(0x40)\n      dup1\n      swap2\n      sub\n      swap1\n      return\n        /* \"contracts/FIW.sol\":4413:4582  function approve(address spender, uint256 amount) public virtual override returns (bool) {... */\n    tag_4:\n      tag_22\n      0x04\n      dup1\n      calldatasize\n      sub\n      dup2\n      add\n      swap1\n      tag_23\n      swap2\n      swap1\n      tag_24\n      jump\t// in\n    tag_23:\n      tag_25\n      jump\t// in\n    tag_22:\n      mload(0x40)\n      tag_26\n      swap2\n      swap1\n      tag_27\n      jump\t// in\n    tag_26:\n      mload(0x40)\n      dup1\n      swap2\n      sub\n      swap1\n      return\n        /* \"contracts/FIW.sol\":3614:3722  function totalSupply() public view virtual override returns (uint256) {... */\n    tag_5:\n      tag_28\n      tag_29\n      jump\t// in\n    tag_28:\n      mload(0x40)\n      tag_30\n      swap2\n      swap1\n      tag_31\n      jump\t// in\n    tag_30:\n      mload(0x40)\n      dup1\n      swap2\n      sub\n      swap1\n      return\n        /* \"contracts/FIW.sol\":4590:5082  function transferFrom(... */\n    tag_6:\n      tag_32\n      0x04\n      dup1\n      calldatasize\n      sub\n      dup2\n      add\n      swap1\n      tag_33\n      swap2\n      swap1\n      tag_34\n      jump\t// in\n    tag_33:\n      tag_35\n      jump\t// in\n    tag_32:\n      mload(0x40)\n      tag_36\n      swap2\n      swap1\n      tag_27\n      jump\t// in\n    tag_36:\n      mload(0x40)\n      dup1\n      swap2\n      sub\n      swap1\n      return\n        /* \"contracts/FIW.sol\":2972:3106  function removeOwner() public onlyOwner {... */\n    tag_7:\n      tag_37\n      tag_38\n      jump\t// in\n    tag_37:\n      stop\n        /* \"contracts/FIW.sol\":3507:3600  function decimals() public view virtual override returns (uint8) {... */\n    tag_8:\n      tag_39\n      tag_40\n      jump\t// in\n    tag_39:\n      mload(0x40)\n      tag_41\n      swap2\n      swap1\n      tag_42\n      jump\t// in\n    tag_41:\n      mload(0x40)\n      dup1\n      swap2\n      sub\n      swap1\n      return\n        /* \"contracts/FIW.sol\":5096:5311  function increaseAllowance(address spender, uint256 addedValue) public virtual returns (bool) {... */\n    tag_9:\n      tag_43\n      0x04\n      dup1\n      calldatasize\n      sub\n      dup2\n      add\n      swap1\n      tag_44\n      swap2\n      swap1\n      tag_24\n      jump\t// in\n    tag_44:\n      tag_45\n      jump\t// in\n    tag_43:\n      mload(0x40)\n      tag_46\n      swap2\n      swap1\n      tag_27\n      jump\t// in\n    tag_46:\n      mload(0x40)\n      dup1\n      swap2\n      sub\n      swap1\n      return\n        /* \"contracts/FIW.sol\":3736:3863  function balanceOf(address account) public view virtual override returns (uint256) {... */\n    tag_10:\n      tag_47\n      0x04\n      dup1\n      calldatasize\n      sub\n      dup2\n      add\n      swap1\n      tag_48\n      swap2\n      swap1\n      tag_49\n      jump\t// in\n    tag_48:\n      tag_50\n      jump\t// in\n    tag_47:\n      mload(0x40)\n      tag_51\n      swap2\n      swap1\n      tag_31\n      jump\t// in\n    tag_51:\n      mload(0x40)\n      dup1\n      swap2\n      sub\n      swap1\n      return\n        /* \"contracts/FIW.sol\":2643:2722  function owner() public view returns (address) {... */\n    tag_11:\n      tag_52\n      tag_53\n      jump\t// in\n    tag_52:\n      mload(0x40)\n      tag_54\n      swap2\n      swap1\n      tag_55\n      jump\t// in\n    tag_54:\n      mload(0x40)\n      dup1\n      swap2\n      sub\n      swap1\n      return\n        /* \"contracts/FIW.sol\":3395:3499  function symbol() public view virtual override returns (string memory) {... */\n    tag_12:\n      tag_56\n      tag_57\n      jump\t// in\n    tag_56:\n      mload(0x40)\n      tag_58\n      swap2\n      swap1\n      tag_21\n      jump\t// in\n    tag_58:\n      mload(0x40)\n      dup1\n      swap2\n      sub\n      swap1\n      return\n        /* \"contracts/FIW.sol\":3877:4052  function transfer(address recipient, uint256 amount) public virtual override returns (bool) {... */\n    tag_13:\n      tag_59\n      0x04\n      dup1\n      calldatasize\n      sub\n      dup2\n      add\n      swap1\n      tag_60\n      swap2\n      swap1\n      tag_24\n      jump\t// in\n    tag_60:\n      tag_61\n      jump\t// in\n    tag_59:\n      mload(0x40)\n      tag_62\n      swap2\n      swap1\n      tag_27\n      jump\t// in\n    tag_62:\n      mload(0x40)\n      dup1\n      swap2\n      sub\n      swap1\n      return\n        /* \"contracts/FIW.sol\":4115:4266  function allowance(address owner, address spender) public view virtual override returns (uint256) {... */\n    tag_14:\n      tag_63\n      0x04\n      dup1\n      calldatasize\n      sub\n      dup2\n      add\n      swap1\n      tag_64\n      swap2\n      swap1\n      tag_65\n      jump\t// in\n    tag_64:\n      tag_66\n      jump\t// in\n    tag_63:\n      mload(0x40)\n      tag_67\n      swap2\n      swap1\n      tag_31\n      jump\t// in\n    tag_67:\n      mload(0x40)\n      dup1\n      swap2\n      sub\n      swap1\n      return\n        /* \"contracts/FIW.sol\":2730:2964  function transferOwnership(address newOwner) public onlyOwner {... */\n    tag_15:\n      tag_68\n      0x04\n      dup1\n      calldatasize\n      sub\n      dup2\n      add\n      swap1\n      tag_69\n      swap2\n      swap1\n      tag_49\n      jump\t// in\n    tag_69:\n      tag_70\n      jump\t// in\n    tag_68:\n      stop\n        /* \"contracts/FIW.sol\":3176:3276  function name() public view virtual override returns (string memory) {... */\n    tag_19:\n        /* \"contracts/FIW.sol\":3230:3243  string memory */\n      0x60\n        /* \"contracts/FIW.sol\":3263:3268  _name */\n      0x03\n        /* \"contracts/FIW.sol\":3256:3268  return _name */\n      dup1\n      sload\n      tag_72\n      swap1\n      tag_73\n      jump\t// in\n    tag_72:\n      dup1\n      0x1f\n      add\n      0x20\n      dup1\n      swap2\n      div\n      mul\n      0x20\n      add\n      mload(0x40)\n      swap1\n      dup2\n      add\n      0x40\n      mstore\n      dup1\n      swap3\n      swap2\n      swap1\n      dup2\n      dup2\n      mstore\n      0x20\n      add\n      dup3\n      dup1\n      sload\n      tag_74\n      swap1\n      tag_73\n      jump\t// in\n    tag_74:\n      dup1\n      iszero\n      tag_75\n      jumpi\n      dup1\n      0x1f\n      lt\n      tag_76\n      jumpi\n      0x0100\n      dup1\n      dup4\n      sload\n      div\n      mul\n      dup4\n      mstore\n      swap2\n      0x20\n      add\n      swap2\n      jump(tag_75)\n    tag_76:\n      dup3\n      add\n      swap2\n      swap1\n      0x00\n      mstore\n      keccak256(0x00, 0x20)\n      swap1\n    tag_77:\n      dup2\n      sload\n      dup2\n      mstore\n      swap1\n      0x01\n      add\n      swap1\n      0x20\n      add\n      dup1\n      dup4\n      gt\n      tag_77\n      jumpi\n      dup3\n      swap1\n      sub\n      0x1f\n      and\n      dup3\n      add\n      swap2\n    tag_75:\n      pop\n      pop\n      pop\n      pop\n      pop\n      swap1\n      pop\n        /* \"contracts/FIW.sol\":3176:3276  function name() public view virtual override returns (string memory) {... */\n      swap1\n      jump\t// out\n        /* \"contracts/FIW.sol\":4413:4582  function approve(address spender, uint256 amount) public virtual override returns (bool) {... */\n    tag_25:\n        /* \"contracts/FIW.sol\":4496:4500  bool */\n      0x00\n        /* \"contracts/FIW.sol\":4513:4552  _approve(_msgSender(), spender, amount) */\n      tag_79\n        /* \"contracts/FIW.sol\":4522:4534  _msgSender() */\n      tag_80\n        /* \"contracts/FIW.sol\":4522:4532  _msgSender */\n      tag_81\n        /* \"contracts/FIW.sol\":4522:4534  _msgSender() */\n      jump\t// in\n    tag_80:\n        /* \"contracts/FIW.sol\":4536:4543  spender */\n      dup5\n        /* \"contracts/FIW.sol\":4545:4551  amount */\n      dup5\n        /* \"contracts/FIW.sol\":4513:4521  _approve */\n      tag_82\n        /* \"contracts/FIW.sol\":4513:4552  _approve(_msgSender(), spender, amount) */\n      jump\t// in\n    tag_79:\n        /* \"contracts/FIW.sol\":4570:4574  true */\n      0x01\n        /* \"contracts/FIW.sol\":4563:4574  return true */\n      swap1\n      pop\n        /* \"contracts/FIW.sol\":4413:4582  function approve(address spender, uint256 amount) public virtual override returns (bool) {... */\n      swap3\n      swap2\n      pop\n      pop\n      jump\t// out\n        /* \"contracts/FIW.sol\":3614:3722  function totalSupply() public view virtual override returns (uint256) {... */\n    tag_29:\n        /* \"contracts/FIW.sol\":3675:3682  uint256 */\n      0x00\n        /* \"contracts/FIW.sol\":3702:3714  _totalSupply */\n      sload(0x02)\n        /* \"contracts/FIW.sol\":3695:3714  return _totalSupply */\n      swap1\n      pop\n        /* \"contracts/FIW.sol\":3614:3722  function totalSupply() public view virtual override returns (uint256) {... */\n      swap1\n      jump\t// out\n        /* \"contracts/FIW.sol\":4590:5082  function transferFrom(... */\n    tag_35:\n        /* \"contracts/FIW.sol\":4730:4734  bool */\n      0x00\n        /* \"contracts/FIW.sol\":4747:4783  _transfer(sender, recipient, amount) */\n      tag_85\n        /* \"contracts/FIW.sol\":4757:4763  sender */\n      dup5\n        /* \"contracts/FIW.sol\":4765:4774  recipient */\n      dup5\n        /* \"contracts/FIW.sol\":4776:4782  amount */\n      dup5\n        /* \"contracts/FIW.sol\":4747:4756  _transfer */\n      tag_86\n        /* \"contracts/FIW.sol\":4747:4783  _transfer(sender, recipient, amount) */\n      jump\t// in\n    tag_85:\n        /* \"contracts/FIW.sol\":4796:4820  uint256 currentAllowance */\n      0x00\n        /* \"contracts/FIW.sol\":4823:4834  _allowances */\n      0x01\n        /* \"contracts/FIW.sol\":4823:4842  _allowances[sender] */\n      0x00\n        /* \"contracts/FIW.sol\":4835:4841  sender */\n      dup7\n        /* \"contracts/FIW.sol\":4823:4842  _allowances[sender] */\n      0xffffffffffffffffffffffffffffffffffffffff\n      and\n      0xffffffffffffffffffffffffffffffffffffffff\n      and\n      dup2\n      mstore\n      0x20\n      add\n      swap1\n      dup2\n      mstore\n      0x20\n      add\n      0x00\n      keccak256\n        /* \"contracts/FIW.sol\":4823:4856  _allowances[sender][_msgSender()] */\n      0x00\n        /* \"contracts/FIW.sol\":4843:4855  _msgSender() */\n      tag_87\n        /* \"contracts/FIW.sol\":4843:4853  _msgSender */\n      tag_81\n        /* \"contracts/FIW.sol\":4843:4855  _msgSender() */\n      jump\t// in\n    tag_87:\n        /* \"contracts/FIW.sol\":4823:4856  _allowances[sender][_msgSender()] */\n      0xffffffffffffffffffffffffffffffffffffffff\n      and\n      0xffffffffffffffffffffffffffffffffffffffff\n      and\n      dup2\n      mstore\n      0x20\n      add\n      swap1\n      dup2\n      mstore\n      0x20\n      add\n      0x00\n      keccak256\n      sload\n        /* \"contracts/FIW.sol\":4796:4856  uint256 currentAllowance = _allowances[sender][_msgSender()] */\n      swap1\n      pop\n        /* \"contracts/FIW.sol\":4895:4901  amount */\n      dup3\n        /* \"contracts/FIW.sol\":4875:4891  currentAllowance */\n      dup2\n        /* \"contracts/FIW.sol\":4875:4901  currentAllowance >= amount */\n      lt\n      iszero\n        /* \"contracts/FIW.sol\":4867:4946  require(currentAllowance >= amount, \"ERC20: transfer amount exceeds allowance\") */\n      tag_88\n      jumpi\n      mload(0x40)\n      0x08c379a000000000000000000000000000000000000000000000000000000000\n      dup2\n      mstore\n      0x04\n      add\n      tag_89\n      swap1\n      tag_90\n      jump\t// in\n    tag_89:\n      mload(0x40)\n      dup1\n      swap2\n      sub\n      swap1\n      revert\n    tag_88:\n        /* \"contracts/FIW.sol\":4982:5039  _approve(sender, _msgSender(), currentAllowance - amount) */\n      tag_91\n        /* \"contracts/FIW.sol\":4991:4997  sender */\n      dup6\n        /* \"contracts/FIW.sol\":4999:5011  _msgSender() */\n      tag_92\n        /* \"contracts/FIW.sol\":4999:5009  _msgSender */\n      tag_81\n        /* \"contracts/FIW.sol\":4999:5011  _msgSender() */\n      jump\t// in\n    tag_92:\n        /* \"contracts/FIW.sol\":5032:5038  amount */\n      dup6\n        /* \"contracts/FIW.sol\":5013:5029  currentAllowance */\n      dup5\n        /* \"contracts/FIW.sol\":5013:5038  currentAllowance - amount */\n      sub\n        /* \"contracts/FIW.sol\":4982:4990  _approve */\n      tag_82\n        /* \"contracts/FIW.sol\":4982:5039  _approve(sender, _msgSender(), currentAllowance - amount) */\n      jump\t// in\n    tag_91:\n        /* \"contracts/FIW.sol\":5070:5074  true */\n      0x01\n        /* \"contracts/FIW.sol\":5063:5074  return true */\n      swap2\n      pop\n      pop\n        /* \"contracts/FIW.sol\":4590:5082  function transferFrom(... */\n      swap4\n      swap3\n      pop\n      pop\n      pop\n      jump\t// out\n        /* \"contracts/FIW.sol\":2972:3106  function removeOwner() public onlyOwner {... */\n    tag_38:\n        /* \"contracts/FIW.sol\":2568:2580  _msgSender() */\n      tag_94\n        /* \"contracts/FIW.sol\":2568:2578  _msgSender */\n      tag_81\n        /* \"contracts/FIW.sol\":2568:2580  _msgSender() */\n      jump\t// in\n    tag_94:\n        /* \"contracts/FIW.sol\":2558:2580  _owner == _msgSender() */\n      0xffffffffffffffffffffffffffffffffffffffff\n      and\n        /* \"contracts/FIW.sol\":2558:2564  _owner */\n      0x05\n      0x00\n      swap1\n      sload\n      swap1\n      0x0100\n      exp\n      swap1\n      div\n      0xffffffffffffffffffffffffffffffffffffffff\n      and\n        /* \"contracts/FIW.sol\":2558:2580  _owner == _msgSender() */\n      0xffffffffffffffffffffffffffffffffffffffff\n      and\n      eq\n        /* \"contracts/FIW.sol\":2550:2615  require(_owner == _msgSender(), \"ERC20: caller is not the owner\") */\n      tag_95\n      jumpi\n      mload(0x40)\n      0x08c379a000000000000000000000000000000000000000000000000000000000\n      dup2\n      mstore\n      0x04\n      add\n      tag_96\n      swap1\n      tag_97\n      jump\t// in\n    tag_96:\n      mload(0x40)\n      dup1\n      swap2\n      sub\n      swap1\n      revert\n    tag_95:\n        /* \"contracts/FIW.sol\":3065:3066  0 */\n      0x00\n        /* \"contracts/FIW.sol\":3028:3068  OwnershipTransferred(_owner, address(0)) */\n      0xffffffffffffffffffffffffffffffffffffffff\n      and\n        /* \"contracts/FIW.sol\":3049:3055  _owner */\n      0x05\n      0x00\n      swap1\n      sload\n      swap1\n      0x0100\n      exp\n      swap1\n      div\n      0xffffffffffffffffffffffffffffffffffffffff\n      and\n        /* \"contracts/FIW.sol\":3028:3068  OwnershipTransferred(_owner, address(0)) */\n      0xffffffffffffffffffffffffffffffffffffffff\n      and\n      0x8be0079c531659141344cd1fd0a4f28419497f9722a3daafe3b4186f6b6457e0\n      mload(0x40)\n      mload(0x40)\n      dup1\n      swap2\n      sub\n      swap1\n      log3\n        /* \"contracts/FIW.sol\":3096:3097  0 */\n      0x00\n        /* \"contracts/FIW.sol\":3079:3085  _owner */\n      0x05\n      0x00\n        /* \"contracts/FIW.sol\":3079:3098  _owner = address(0) */\n      0x0100\n      exp\n      dup2\n      sload\n      dup2\n      0xffffffffffffffffffffffffffffffffffffffff\n      mul\n      not\n      and\n      swap1\n      dup4\n      0xffffffffffffffffffffffffffffffffffffffff\n      and\n      mul\n      or\n      swap1\n      sstore\n      pop\n        /* \"contracts/FIW.sol\":2972:3106  function removeOwner() public onlyOwner {... */\n      jump\t// out\n        /* \"contracts/FIW.sol\":3507:3600  function decimals() public view virtual override returns (uint8) {... */\n    tag_40:\n        /* \"contracts/FIW.sol\":3565:3570  uint8 */\n      0x00\n        /* \"contracts/FIW.sol\":3590:3592  18 */\n      0x12\n        /* \"contracts/FIW.sol\":3583:3592  return 18 */\n      swap1\n      pop\n        /* \"contracts/FIW.sol\":3507:3600  function decimals() public view virtual override returns (uint8) {... */\n      swap1\n      jump\t// out\n        /* \"contracts/FIW.sol\":5096:5311  function increaseAllowance(address spender, uint256 addedValue) public virtual returns (bool) {... */\n    tag_45:\n        /* \"contracts/FIW.sol\":5184:5188  bool */\n      0x00\n        /* \"contracts/FIW.sol\":5201:5281  _approve(_msgSender(), spender, _allowances[_msgSender()][spender] + addedValue) */\n      tag_101\n        /* \"contracts/FIW.sol\":5210:5222  _msgSender() */\n      tag_102\n        /* \"contracts/FIW.sol\":5210:5220  _msgSender */\n      tag_81\n        /* \"contracts/FIW.sol\":5210:5222  _msgSender() */\n      jump\t// in\n    tag_102:\n        /* \"contracts/FIW.sol\":5224:5231  spender */\n      dup5\n        /* \"contracts/FIW.sol\":5270:5280  addedValue */\n      dup5\n        /* \"contracts/FIW.sol\":5233:5244  _allowances */\n      0x01\n        /* \"contracts/FIW.sol\":5233:5258  _allowances[_msgSender()] */\n      0x00\n        /* \"contracts/FIW.sol\":5245:5257  _msgSender() */\n      tag_103\n        /* \"contracts/FIW.sol\":5245:5255  _msgSender */\n      tag_81\n        /* \"contracts/FIW.sol\":5245:5257  _msgSender() */\n      jump\t// in\n    tag_103:\n        /* \"contracts/FIW.sol\":5233:5258  _allowances[_msgSender()] */\n      0xffffffffffffffffffffffffffffffffffffffff\n      and\n      0xffffffffffffffffffffffffffffffffffffffff\n      and\n      dup2\n      mstore\n      0x20\n      add\n      swap1\n      dup2\n      mstore\n      0x20\n      add\n      0x00\n      keccak256\n        /* \"contracts/FIW.sol\":5233:5267  _allowances[_msgSender()][spender] */\n      0x00\n        /* \"contracts/FIW.sol\":5259:5266  spender */\n      dup9\n        /* \"contracts/FIW.sol\":5233:5267  _allowances[_msgSender()][spender] */\n      0xffffffffffffffffffffffffffffffffffffffff\n      and\n      0xffffffffffffffffffffffffffffffffffffffff\n      and\n      dup2\n      mstore\n      0x20\n      add\n      swap1\n      dup2\n      mstore\n      0x20\n      add\n      0x00\n      keccak256\n      sload\n        /* \"contracts/FIW.sol\":5233:5280  _allowances[_msgSender()][spender] + addedValue */\n      tag_104\n      swap2\n      swap1\n      tag_105\n      jump\t// in\n    tag_104:\n        /* \"contracts/FIW.sol\":5201:5209  _approve */\n      tag_82\n        /* \"contracts/FIW.sol\":5201:5281  _approve(_msgSender(), spender, _allowances[_msgSender()][spender] + addedValue) */\n      jump\t// in\n    tag_101:\n        /* \"contracts/FIW.sol\":5299:5303  true */\n      0x01\n        /* \"contracts/FIW.sol\":5292:5303  return true */\n      swap1\n      pop\n        /* \"contracts/FIW.sol\":5096:5311  function increaseAllowance(address spender, uint256 addedValue) public virtual returns (bool) {... */\n      swap3\n      swap2\n      pop\n      pop\n      jump\t// out\n        /* \"contracts/FIW.sol\":3736:3863  function balanceOf(address account) public view virtual override returns (uint256) {... */\n    tag_50:\n        /* \"contracts/FIW.sol\":3810:3817  uint256 */\n      0x00\n        /* \"contracts/FIW.sol\":3837:3846  _balances */\n      dup1\n        /* \"contracts/FIW.sol\":3837:3855  _balances[account] */\n      0x00\n        /* \"contracts/FIW.sol\":3847:3854  account */\n      dup4\n        /* \"contracts/FIW.sol\":3837:3855  _balances[account] */\n      0xffffffffffffffffffffffffffffffffffffffff\n      and\n      0xffffffffffffffffffffffffffffffffffffffff\n      and\n      dup2\n      mstore\n      0x20\n      add\n      swap1\n      dup2\n      mstore\n      0x20\n      add\n      0x00\n      keccak256\n      sload\n        /* \"contracts/FIW.sol\":3830:3855  return _balances[account] */\n      swap1\n      pop\n        /* \"contracts/FIW.sol\":3736:3863  function balanceOf(address account) public view virtual override returns (uint256) {... */\n      swap2\n      swap1\n      pop\n      jump\t// out\n        /* \"contracts/FIW.sol\":2643:2722  function owner() public view returns (address) {... */\n    tag_53:\n        /* \"contracts/FIW.sol\":2681:2688  address */\n      0x00\n        /* \"contracts/FIW.sol\":2708:2714  _owner */\n      0x05\n      0x00\n      swap1\n      sload\n      swap1\n      0x0100\n      exp\n      swap1\n      div\n      0xffffffffffffffffffffffffffffffffffffffff\n      and\n        /* \"contracts/FIW.sol\":2701:2714  return _owner */\n      swap1\n      pop\n        /* \"contracts/FIW.sol\":2643:2722  function owner() public view returns (address) {... */\n      swap1\n      jump\t// out\n        /* \"contracts/FIW.sol\":3395:3499  function symbol() public view virtual override returns (string memory) {... */\n    tag_57:\n        /* \"contracts/FIW.sol\":3451:3464  string memory */\n      0x60\n        /* \"contracts/FIW.sol\":3484:3491  _symbol */\n      0x04\n        /* \"contracts/FIW.sol\":3477:3491  return _symbol */\n      dup1\n      sload\n      tag_109\n      swap1\n      tag_73\n      jump\t// in\n    tag_109:\n      dup1\n      0x1f\n      add\n      0x20\n      dup1\n      swap2\n      div\n      mul\n      0x20\n      add\n      mload(0x40)\n      swap1\n      dup2\n      add\n      0x40\n      mstore\n      dup1\n      swap3\n      swap2\n      swap1\n      dup2\n      dup2\n      mstore\n      0x20\n      add\n      dup3\n      dup1\n      sload\n      tag_110\n      swap1\n      tag_73\n      jump\t// in\n    tag_110:\n      dup1\n      iszero\n      tag_111\n      jumpi\n      dup1\n      0x1f\n      lt\n      tag_112\n      jumpi\n      0x0100\n      dup1\n      dup4\n      sload\n      div\n      mul\n      dup4\n      mstore\n      swap2\n      0x20\n      add\n      swap2\n      jump(tag_111)\n    tag_112:\n      dup3\n      add\n      swap2\n      swap1\n      0x00\n      mstore\n      keccak256(0x00, 0x20)\n      swap1\n    tag_113:\n      dup2\n      sload\n      dup2\n      mstore\n      swap1\n      0x01\n      add\n      swap1\n      0x20\n      add\n      dup1\n      dup4\n      gt\n      tag_113\n      jumpi\n      dup3\n      swap1\n      sub\n      0x1f\n      and\n      dup3\n      add\n      swap2\n    tag_111:\n      pop\n      pop\n      pop\n      pop\n      pop\n      swap1\n      pop\n        /* \"contracts/FIW.sol\":3395:3499  function symbol() public view virtual override returns (string memory) {... */\n      swap1\n      jump\t// out\n        /* \"contracts/FIW.sol\":3877:4052  function transfer(address recipient, uint256 amount) public virtual override returns (bool) {... */\n    tag_61:\n        /* \"contracts/FIW.sol\":3963:3967  bool */\n      0x00\n        /* \"contracts/FIW.sol\":3980:4022  _transfer(_msgSender(), recipient, amount) */\n      tag_115\n        /* \"contracts/FIW.sol\":3990:4002  _msgSender() */\n      tag_116\n        /* \"contracts/FIW.sol\":3990:4000  _msgSender */\n      tag_81\n        /* \"contracts/FIW.sol\":3990:4002  _msgSender() */\n      jump\t// in\n    tag_116:\n        /* \"contracts/FIW.sol\":4004:4013  recipient */\n      dup5\n        /* \"contracts/FIW.sol\":4015:4021  amount */\n      dup5\n        /* \"contracts/FIW.sol\":3980:3989  _transfer */\n      tag_86\n        /* \"contracts/FIW.sol\":3980:4022  _transfer(_msgSender(), recipient, amount) */\n      jump\t// in\n    tag_115:\n        /* \"contracts/FIW.sol\":4040:4044  true */\n      0x01\n        /* \"contracts/FIW.sol\":4033:4044  return true */\n      swap1\n      pop\n        /* \"contracts/FIW.sol\":3877:4052  function transfer(address recipient, uint256 amount) public virtual override returns (bool) {... */\n      swap3\n      swap2\n      pop\n      pop\n      jump\t// out\n        /* \"contracts/FIW.sol\":4115:4266  function allowance(address owner, address spender) public view virtual override returns (uint256) {... */\n    tag_66:\n        /* \"contracts/FIW.sol\":4204:4211  uint256 */\n      0x00\n        /* \"contracts/FIW.sol\":4231:4242  _allowances */\n      0x01\n        /* \"contracts/FIW.sol\":4231:4249  _allowances[owner] */\n      0x00\n        /* \"contracts/FIW.sol\":4243:4248  owner */\n      dup5\n        /* \"contracts/FIW.sol\":4231:4249  _allowances[owner] */\n      0xffffffffffffffffffffffffffffffffffffffff\n      and\n      0xffffffffffffffffffffffffffffffffffffffff\n      and\n      dup2\n      mstore\n      0x20\n      add\n      swap1\n      dup2\n      mstore\n      0x20\n      add\n      0x00\n      keccak256\n        /* \"contracts/FIW.sol\":4231:4258  _allowances[owner][spender] */\n      0x00\n        /* \"contracts/FIW.sol\":4250:4257  spender */\n      dup4\n        /* \"contracts/FIW.sol\":4231:4258  _allowances[owner][spender] */\n      0xffffffffffffffffffffffffffffffffffffffff\n      and\n      0xffffffffffffffffffffffffffffffffffffffff\n      and\n      dup2\n      mstore\n      0x20\n      add\n      swap1\n      dup2\n      mstore\n      0x20\n      add\n      0x00\n      keccak256\n      sload\n        /* \"contracts/FIW.sol\":4224:4258  return _allowances[owner][spender] */\n      swap1\n      pop\n        /* \"contracts/FIW.sol\":4115:4266  function allowance(address owner, address spender) public view virtual override returns (uint256) {... */\n      swap3\n      swap2\n      pop\n      pop\n      jump\t// out\n        /* \"contracts/FIW.sol\":2730:2964  function transferOwnership(address newOwner) public onlyOwner {... */\n    tag_70:\n        /* \"contracts/FIW.sol\":2568:2580  _msgSender() */\n      tag_119\n        /* \"contracts/FIW.sol\":2568:2578  _msgSender */\n      tag_81\n        /* \"contracts/FIW.sol\":2568:2580  _msgSender() */\n      jump\t// in\n    tag_119:\n        /* \"contracts/FIW.sol\":2558:2580  _owner == _msgSender() */\n      0xffffffffffffffffffffffffffffffffffffffff\n      and\n        /* \"contracts/FIW.sol\":2558:2564  _owner */\n      0x05\n      0x00\n      swap1\n      sload\n      swap1\n      0x0100\n      exp\n      swap1\n      div\n      0xffffffffffffffffffffffffffffffffffffffff\n      and\n        /* \"contracts/FIW.sol\":2558:2580  _owner == _msgSender() */\n      0xffffffffffffffffffffffffffffffffffffffff\n      and\n      eq\n        /* \"contracts/FIW.sol\":2550:2615  require(_owner == _msgSender(), \"ERC20: caller is not the owner\") */\n      tag_120\n      jumpi\n      mload(0x40)\n      0x08c379a000000000000000000000000000000000000000000000000000000000\n      dup2\n      mstore\n      0x04\n      add\n      tag_121\n      swap1\n      tag_97\n      jump\t// in\n    tag_121:\n      mload(0x40)\n      dup1\n      swap2\n      sub\n      swap1\n      revert\n    tag_120:\n        /* \"contracts/FIW.sol\":2831:2832  0 */\n      0x00\n        /* \"contracts/FIW.sol\":2811:2833  newOwner != address(0) */\n      0xffffffffffffffffffffffffffffffffffffffff\n      and\n        /* \"contracts/FIW.sol\":2811:2819  newOwner */\n      dup2\n        /* \"contracts/FIW.sol\":2811:2833  newOwner != address(0) */\n      0xffffffffffffffffffffffffffffffffffffffff\n      and\n      sub\n        /* \"contracts/FIW.sol\":2803:2874  require(newOwner != address(0), \"ERC20: new owner is the zero address\") */\n      tag_123\n      jumpi\n      mload(0x40)\n      0x08c379a000000000000000000000000000000000000000000000000000000000\n      dup2\n      mstore\n      0x04\n      add\n      tag_124\n      swap1\n      tag_125\n      jump\t// in\n    tag_124:\n      mload(0x40)\n      dup1\n      swap2\n      sub\n      swap1\n      revert\n    tag_123:\n        /* \"contracts/FIW.sol\":2919:2927  newOwner */\n      dup1\n        /* \"contracts/FIW.sol\":2890:2928  OwnershipTransferred(_owner, newOwner) */\n      0xffffffffffffffffffffffffffffffffffffffff\n      and\n        /* \"contracts/FIW.sol\":2911:2917  _owner */\n      0x05\n      0x00\n      swap1\n      sload\n      swap1\n      0x0100\n      exp\n      swap1\n      div\n      0xffffffffffffffffffffffffffffffffffffffff\n      and\n        /* \"contracts/FIW.sol\":2890:2928  OwnershipTransferred(_owner, newOwner) */\n      0xffffffffffffffffffffffffffffffffffffffff\n      and\n      0x8be0079c531659141344cd1fd0a4f28419497f9722a3daafe3b4186f6b6457e0\n      mload(0x40)\n      mload(0x40)\n      dup1\n      swap2\n      sub\n      swap1\n      log3\n        /* \"contracts/FIW.sol\":2948:2956  newOwner */\n      dup1\n        /* \"contracts/FIW.sol\":2939:2945  _owner */\n      0x05\n      0x00\n        /* \"contracts/FIW.sol\":2939:2956  _owner = newOwner */\n      0x0100\n      exp\n      dup2\n      sload\n      dup2\n      0xffffffffffffffffffffffffffffffffffffffff\n      mul\n      not\n      and\n      swap1\n      dup4\n      0xffffffffffffffffffffffffffffffffffffffff\n      and\n      mul\n      or\n      swap1\n      sstore\n      pop\n        /* \"contracts/FIW.sol\":2730:2964  function transferOwnership(address newOwner) public onlyOwner {... */\n      pop\n      jump\t// out\n        /* \"contracts/FIW.sol\":102:200  function _msgSender() internal view virtual returns (address) {... */\n    tag_81:\n        /* \"contracts/FIW.sol\":155:162  address */\n      0x00\n        /* \"contracts/FIW.sol\":182:192  msg.sender */\n      caller\n        /* \"contracts/FIW.sol\":175:192  return msg.sender */\n      swap1\n      pop\n        /* \"contracts/FIW.sol\":102:200  function _msgSender() internal view virtual returns (address) {... */\n      swap1\n      jump\t// out\n        /* \"contracts/FIW.sol\":7089:7469  function _approve(... */\n    tag_82:\n        /* \"contracts/FIW.sol\":7242:7243  0 */\n      0x00\n        /* \"contracts/FIW.sol\":7225:7244  owner != address(0) */\n      0xffffffffffffffffffffffffffffffffffffffff\n      and\n        /* \"contracts/FIW.sol\":7225:7230  owner */\n      dup4\n        /* \"contracts/FIW.sol\":7225:7244  owner != address(0) */\n      0xffffffffffffffffffffffffffffffffffffffff\n      and\n      sub\n        /* \"contracts/FIW.sol\":7217:7285  require(owner != address(0), \"ERC20: approve from the zero address\") */\n      tag_128\n      jumpi\n      mload(0x40)\n      0x08c379a000000000000000000000000000000000000000000000000000000000\n      dup2\n      mstore\n      0x04\n      add\n      tag_129\n      swap1\n      tag_130\n      jump\t// in\n    tag_129:\n      mload(0x40)\n      dup1\n      swap2\n      sub\n      swap1\n      revert\n    tag_128:\n        /* \"contracts/FIW.sol\":7323:7324  0 */\n      0x00\n        /* \"contracts/FIW.sol\":7304:7325  spender != address(0) */\n      0xffffffffffffffffffffffffffffffffffffffff\n      and\n        /* \"contracts/FIW.sol\":7304:7311  spender */\n      dup3\n        /* \"contracts/FIW.sol\":7304:7325  spender != address(0) */\n      0xffffffffffffffffffffffffffffffffffffffff\n      and\n      sub\n        /* \"contracts/FIW.sol\":7296:7364  require(spender != address(0), \"ERC20: approve to the zero address\") */\n      tag_131\n      jumpi\n      mload(0x40)\n      0x08c379a000000000000000000000000000000000000000000000000000000000\n      dup2\n      mstore\n      0x04\n      add\n      tag_132\n      swap1\n      tag_133\n      jump\t// in\n    tag_132:\n      mload(0x40)\n      dup1\n      swap2\n      sub\n      swap1\n      revert\n    tag_131:\n        /* \"contracts/FIW.sol\":7407:7413  amount */\n      dup1\n        /* \"contracts/FIW.sol\":7377:7388  _allowances */\n      0x01\n        /* \"contracts/FIW.sol\":7377:7395  _allowances[owner] */\n      0x00\n        /* \"contracts/FIW.sol\":7389:7394  owner */\n      dup6\n        /* \"contracts/FIW.sol\":7377:7395  _allowances[owner] */\n      0xffffffffffffffffffffffffffffffffffffffff\n      and\n      0xffffffffffffffffffffffffffffffffffffffff\n      and\n      dup2\n      mstore\n      0x20\n      add\n      swap1\n      dup2\n      mstore\n      0x20\n      add\n      0x00\n      keccak256\n        /* \"contracts/FIW.sol\":7377:7404  _allowances[owner][spender] */\n      0x00\n        /* \"contracts/FIW.sol\":7396:7403  spender */\n      dup5\n        /* \"contracts/FIW.sol\":7377:7404  _allowances[owner][spender] */\n      0xffffffffffffffffffffffffffffffffffffffff\n      and\n      0xffffffffffffffffffffffffffffffffffffffff\n      and\n      dup2\n      mstore\n      0x20\n      add\n      swap1\n      dup2\n      mstore\n      0x20\n      add\n      0x00\n      keccak256\n        /* \"contracts/FIW.sol\":7377:7413  _allowances[owner][spender] = amount */\n      dup2\n      swap1\n      sstore\n      pop\n        /* \"contracts/FIW.sol\":7445:7452  spender */\n      dup2\n        /* \"contracts/FIW.sol\":7429:7461  Approval(owner, spender, amount) */\n      0xffffffffffffffffffffffffffffffffffffffff\n      and\n        /* \"contracts/FIW.sol\":7438:7443  owner */\n      dup4\n        /* \"contracts/FIW.sol\":7429:7461  Approval(owner, spender, amount) */\n      0xffffffffffffffffffffffffffffffffffffffff\n      and\n      0x8c5be1e5ebec7d5bd14f71427d1e84f3dd0314c0f7b2291e5b200ac8c7c3b925\n        /* \"contracts/FIW.sol\":7454:7460  amount */\n      dup4\n        /* \"contracts/FIW.sol\":7429:7461  Approval(owner, spender, amount) */\n      mload(0x40)\n      tag_134\n      swap2\n      swap1\n      tag_31\n      jump\t// in\n    tag_134:\n      mload(0x40)\n      dup1\n      swap2\n      sub\n      swap1\n      log3\n        /* \"contracts/FIW.sol\":7089:7469  function _approve(... */\n      pop\n      pop\n      pop\n      jump\t// out\n        /* \"contracts/FIW.sol\":5325:6058  function _transfer(... */\n    tag_86:\n        /* \"contracts/FIW.sol\":5483:5484  0 */\n      0x00\n        /* \"contracts/FIW.sol\":5465:5485  sender != address(0) */\n      0xffffffffffffffffffffffffffffffffffffffff\n      and\n        /* \"contracts/FIW.sol\":5465:5471  sender */\n      dup4\n        /* \"contracts/FIW.sol\":5465:5485  sender != address(0) */\n      0xffffffffffffffffffffffffffffffffffffffff\n      and\n      sub\n        /* \"contracts/FIW.sol\":5457:5527  require(sender != address(0), \"ERC20: transfer from the zero address\") */\n      tag_136\n      jumpi\n      mload(0x40)\n      0x08c379a000000000000000000000000000000000000000000000000000000000\n      dup2\n      mstore\n      0x04\n      add\n      tag_137\n      swap1\n      tag_138\n      jump\t// in\n    tag_137:\n      mload(0x40)\n      dup1\n      swap2\n      sub\n      swap1\n      revert\n    tag_136:\n        /* \"contracts/FIW.sol\":5567:5568  0 */\n      0x00\n        /* \"contracts/FIW.sol\":5546:5569  recipient != address(0) */\n      0xffffffffffffffffffffffffffffffffffffffff\n      and\n        /* \"contracts/FIW.sol\":5546:5555  recipient */\n      dup3\n        /* \"contracts/FIW.sol\":5546:5569  recipient != address(0) */\n      0xffffffffffffffffffffffffffffffffffffffff\n      and\n      sub\n        /* \"contracts/FIW.sol\":5538:5609  require(recipient != address(0), \"ERC20: transfer to the zero address\") */\n      tag_139\n      jumpi\n      mload(0x40)\n      0x08c379a000000000000000000000000000000000000000000000000000000000\n      dup2\n      mstore\n      0x04\n      add\n      tag_140\n      swap1\n      tag_141\n      jump\t// in\n    tag_140:\n      mload(0x40)\n      dup1\n      swap2\n      sub\n      swap1\n      revert\n    tag_139:\n        /* \"contracts/FIW.sol\":5622:5669  _beforeTokenTransfer(sender, recipient, amount) */\n      tag_142\n        /* \"contracts/FIW.sol\":5643:5649  sender */\n      dup4\n        /* \"contracts/FIW.sol\":5651:5660  recipient */\n      dup4\n        /* \"contracts/FIW.sol\":5662:5668  amount */\n      dup4\n        /* \"contracts/FIW.sol\":5622:5642  _beforeTokenTransfer */\n      tag_143\n        /* \"contracts/FIW.sol\":5622:5669  _beforeTokenTransfer(sender, recipient, amount) */\n      jump\t// in\n    tag_142:\n        /* \"contracts/FIW.sol\":5682:5703  uint256 senderBalance */\n      0x00\n        /* \"contracts/FIW.sol\":5706:5715  _balances */\n      dup1\n        /* \"contracts/FIW.sol\":5706:5723  _balances[sender] */\n      0x00\n        /* \"contracts/FIW.sol\":5716:5722  sender */\n      dup6\n        /* \"contracts/FIW.sol\":5706:5723  _balances[sender] */\n      0xffffffffffffffffffffffffffffffffffffffff\n      and\n      0xffffffffffffffffffffffffffffffffffffffff\n      and\n      dup2\n      mstore\n      0x20\n      add\n      swap1\n      dup2\n      mstore\n      0x20\n      add\n      0x00\n      keccak256\n      sload\n        /* \"contracts/FIW.sol\":5682:5723  uint256 senderBalance = _balances[sender] */\n      swap1\n      pop\n        /* \"contracts/FIW.sol\":5759:5765  amount */\n      dup2\n        /* \"contracts/FIW.sol\":5742:5755  senderBalance */\n      dup2\n        /* \"contracts/FIW.sol\":5742:5765  senderBalance >= amount */\n      lt\n      iszero\n        /* \"contracts/FIW.sol\":5734:5808  require(senderBalance >= amount, \"ERC20: transfer amount exceeds balance\") */\n      tag_144\n      jumpi\n      mload(0x40)\n      0x08c379a000000000000000000000000000000000000000000000000000000000\n      dup2\n      mstore\n      0x04\n      add\n      tag_145\n      swap1\n      tag_146\n      jump\t// in\n    tag_145:\n      mload(0x40)\n      dup1\n      swap2\n      sub\n      swap1\n      revert\n    tag_144:\n        /* \"contracts/FIW.sol\":5880:5886  amount */\n      dup2\n        /* \"contracts/FIW.sol\":5864:5877  senderBalance */\n      dup2\n        /* \"contracts/FIW.sol\":5864:5886  senderBalance - amount */\n      sub\n        /* \"contracts/FIW.sol\":5844:5853  _balances */\n      0x00\n        /* \"contracts/FIW.sol\":5844:5861  _balances[sender] */\n      dup1\n        /* \"contracts/FIW.sol\":5854:5860  sender */\n      dup7\n        /* \"contracts/FIW.sol\":5844:5861  _balances[sender] */\n      0xffffffffffffffffffffffffffffffffffffffff\n      and\n      0xffffffffffffffffffffffffffffffffffffffff\n      and\n      dup2\n      mstore\n      0x20\n      add\n      swap1\n      dup2\n      mstore\n      0x20\n      add\n      0x00\n      keccak256\n        /* \"contracts/FIW.sol\":5844:5886  _balances[sender] = senderBalance - amount */\n      dup2\n      swap1\n      sstore\n      pop\n        /* \"contracts/FIW.sol\":5932:5938  amount */\n      dup2\n        /* \"contracts/FIW.sol\":5908:5917  _balances */\n      0x00\n        /* \"contracts/FIW.sol\":5908:5928  _balances[recipient] */\n      dup1\n        /* \"contracts/FIW.sol\":5918:5927  recipient */\n      dup6\n        /* \"contracts/FIW.sol\":5908:5928  _balances[recipient] */\n      0xffffffffffffffffffffffffffffffffffffffff\n      and\n      0xffffffffffffffffffffffffffffffffffffffff\n      and\n      dup2\n      mstore\n      0x20\n      add\n      swap1\n      dup2\n      mstore\n      0x20\n      add\n      0x00\n      keccak256\n      0x00\n        /* \"contracts/FIW.sol\":5908:5938  _balances[recipient] += amount */\n      dup3\n      dup3\n      sload\n      tag_147\n      swap2\n      swap1\n      tag_105\n      jump\t// in\n    tag_147:\n      swap3\n      pop\n      pop\n      dup2\n      swap1\n      sstore\n      pop\n        /* \"contracts/FIW.sol\":5973:5982  recipient */\n      dup3\n        /* \"contracts/FIW.sol\":5956:5991  Transfer(sender, recipient, amount) */\n      0xffffffffffffffffffffffffffffffffffffffff\n      and\n        /* \"contracts/FIW.sol\":5965:5971  sender */\n      dup5\n        /* \"contracts/FIW.sol\":5956:5991  Transfer(sender, recipient, amount) */\n      0xffffffffffffffffffffffffffffffffffffffff\n      and\n      0xddf252ad1be2c89b69c2b068fc378daa952ba7f163c4a11628f55a4df523b3ef\n        /* \"contracts/FIW.sol\":5984:5990  amount */\n      dup5\n        /* \"contracts/FIW.sol\":5956:5991  Transfer(sender, recipient, amount) */\n      mload(0x40)\n      tag_148\n      swap2\n      swap1\n      tag_31\n      jump\t// in\n    tag_148:\n      mload(0x40)\n      dup1\n      swap2\n      sub\n      swap1\n      log3\n        /* \"contracts/FIW.sol\":6004:6050  _afterTokenTransfer(sender, recipient, amount) */\n      tag_149\n        /* \"contracts/FIW.sol\":6024:6030  sender */\n      dup5\n        /* \"contracts/FIW.sol\":6032:6041  recipient */\n      dup5\n        /* \"contracts/FIW.sol\":6043:6049  amount */\n      dup5\n        /* \"contracts/FIW.sol\":6004:6023  _afterTokenTransfer */\n      tag_150\n        /* \"contracts/FIW.sol\":6004:6050  _afterTokenTransfer(sender, recipient, amount) */\n      jump\t// in\n    tag_149:\n        /* \"contracts/FIW.sol\":5446:6058  {... */\n      pop\n        /* \"contracts/FIW.sol\":5325:6058  function _transfer(... */\n      pop\n      pop\n      pop\n      jump\t// out\n        /* \"contracts/FIW.sol\":7483:7608  function _beforeTokenTransfer(... */\n    tag_143:\n      pop\n      pop\n      pop\n      jump\t// out\n        /* \"contracts/FIW.sol\":7620:7744  function _afterTokenTransfer(... */\n    tag_150:\n      pop\n      pop\n      pop\n      jump\t// out\n        /* \"#utility.yul\":7:106   */\n    tag_153:\n        /* \"#utility.yul\":59:65   */\n      0x00\n        /* \"#utility.yul\":93:98   */\n      dup2\n        /* \"#utility.yul\":87:99   */\n      mload\n        /* \"#utility.yul\":77:99   */\n      swap1\n      pop\n        /* \"#utility.yul\":7:106   */\n      swap2\n      swap1\n      pop\n      jump\t// out\n        /* \"#utility.yul\":112:281   */\n    tag_154:\n        /* \"#utility.yul\":196:207   */\n      0x00\n        /* \"#utility.yul\":230:236   */\n      dup3\n        /* \"#utility.yul\":225:228   */\n      dup3\n        /* \"#utility.yul\":218:237   */\n      mstore\n        /* \"#utility.yul\":270:274   */\n      0x20\n        /* \"#utility.yul\":265:268   */\n      dup3\n        /* \"#utility.yul\":261:275   */\n      add\n        /* \"#utility.yul\":246:275   */\n      swap1\n      pop\n        /* \"#utility.yul\":112:281   */\n      swap3\n      swap2\n      pop\n      pop\n      jump\t// out\n        /* \"#utility.yul\":287:594   */\n    tag_155:\n        /* \"#utility.yul\":355:356   */\n      0x00\n        /* \"#utility.yul\":365:478   */\n    tag_196:\n        /* \"#utility.yul\":379:385   */\n      dup4\n        /* \"#utility.yul\":376:377   */\n      dup2\n        /* \"#utility.yul\":373:386   */\n      lt\n        /* \"#utility.yul\":365:478   */\n      iszero\n      tag_198\n      jumpi\n        /* \"#utility.yul\":464:465   */\n      dup1\n        /* \"#utility.yul\":459:462   */\n      dup3\n        /* \"#utility.yul\":455:466   */\n      add\n        /* \"#utility.yul\":449:467   */\n      mload\n        /* \"#utility.yul\":445:446   */\n      dup2\n        /* \"#utility.yul\":440:443   */\n      dup5\n        /* \"#utility.yul\":436:447   */\n      add\n        /* \"#utility.yul\":429:468   */\n      mstore\n        /* \"#utility.yul\":401:403   */\n      0x20\n        /* \"#utility.yul\":398:399   */\n      dup2\n        /* \"#utility.yul\":394:404   */\n      add\n        /* \"#utility.yul\":389:404   */\n      swap1\n      pop\n        /* \"#utility.yul\":365:478   */\n      jump(tag_196)\n    tag_198:\n        /* \"#utility.yul\":496:502   */\n      dup4\n        /* \"#utility.yul\":493:494   */\n      dup2\n        /* \"#utility.yul\":490:503   */\n      gt\n        /* \"#utility.yul\":487:588   */\n      iszero\n      tag_199\n      jumpi\n        /* \"#utility.yul\":576:577   */\n      0x00\n        /* \"#utility.yul\":567:573   */\n      dup5\n        /* \"#utility.yul\":562:565   */\n      dup5\n        /* \"#utility.yul\":558:574   */\n      add\n        /* \"#utility.yul\":551:578   */\n      mstore\n        /* \"#utility.yul\":487:588   */\n    tag_199:\n        /* \"#utility.yul\":336:594   */\n      pop\n        /* \"#utility.yul\":287:594   */\n      pop\n      pop\n      pop\n      jump\t// out\n        /* \"#utility.yul\":600:702   */\n    tag_156:\n        /* \"#utility.yul\":641:647   */\n      0x00\n        /* \"#utility.yul\":692:694   */\n      0x1f\n        /* \"#utility.yul\":688:695   */\n      not\n        /* \"#utility.yul\":683:685   */\n      0x1f\n        /* \"#utility.yul\":676:681   */\n      dup4\n        /* \"#utility.yul\":672:686   */\n      add\n        /* \"#utility.yul\":668:696   */\n      and\n        /* \"#utility.yul\":658:696   */\n      swap1\n      pop\n        /* \"#utility.yul\":600:702   */\n      swap2\n      swap1\n      pop\n      jump\t// out\n        /* \"#utility.yul\":708:1072   */\n    tag_157:\n        /* \"#utility.yul\":796:799   */\n      0x00\n        /* \"#utility.yul\":824:863   */\n      tag_202\n        /* \"#utility.yul\":857:862   */\n      dup3\n        /* \"#utility.yul\":824:863   */\n      tag_153\n      jump\t// in\n    tag_202:\n        /* \"#utility.yul\":879:950   */\n      tag_203\n        /* \"#utility.yul\":943:949   */\n      dup2\n        /* \"#utility.yul\":938:941   */\n      dup6\n        /* \"#utility.yul\":879:950   */\n      tag_154\n      jump\t// in\n    tag_203:\n        /* \"#utility.yul\":872:950   */\n      swap4\n      pop\n        /* \"#utility.yul\":959:1011   */\n      tag_204\n        /* \"#utility.yul\":1004:1010   */\n      dup2\n        /* \"#utility.yul\":999:1002   */\n      dup6\n        /* \"#utility.yul\":992:996   */\n      0x20\n        /* \"#utility.yul\":985:990   */\n      dup7\n        /* \"#utility.yul\":981:997   */\n      add\n        /* \"#utility.yul\":959:1011   */\n      tag_155\n      jump\t// in\n    tag_204:\n        /* \"#utility.yul\":1036:1065   */\n      tag_205\n        /* \"#utility.yul\":1058:1064   */\n      dup2\n        /* \"#utility.yul\":1036:1065   */\n      tag_156\n      jump\t// in\n    tag_205:\n        /* \"#utility.yul\":1031:1034   */\n      dup5\n        /* \"#utility.yul\":1027:1066   */\n      add\n        /* \"#utility.yul\":1020:1066   */\n      swap2\n      pop\n        /* \"#utility.yul\":800:1072   */\n      pop\n        /* \"#utility.yul\":708:1072   */\n      swap3\n      swap2\n      pop\n      pop\n      jump\t// out\n        /* \"#utility.yul\":1078:1391   */\n    tag_21:\n        /* \"#utility.yul\":1191:1195   */\n      0x00\n        /* \"#utility.yul\":1229:1231   */\n      0x20\n        /* \"#utility.yul\":1218:1227   */\n      dup3\n        /* \"#utility.yul\":1214:1232   */\n      add\n        /* \"#utility.yul\":1206:1232   */\n      swap1\n      pop\n        /* \"#utility.yul\":1278:1287   */\n      dup2\n        /* \"#utility.yul\":1272:1276   */\n      dup2\n        /* \"#utility.yul\":1268:1288   */\n      sub\n        /* \"#utility.yul\":1264:1265   */\n      0x00\n        /* \"#utility.yul\":1253:1262   */\n      dup4\n        /* \"#utility.yul\":1249:1266   */\n      add\n        /* \"#utility.yul\":1242:1289   */\n      mstore\n        /* \"#utility.yul\":1306:1384   */\n      tag_207\n        /* \"#utility.yul\":1379:1383   */\n      dup2\n        /* \"#utility.yul\":1370:1376   */\n      dup5\n        /* \"#utility.yul\":1306:1384   */\n      tag_157\n      jump\t// in\n    tag_207:\n        /* \"#utility.yul\":1298:1384   */\n      swap1\n      pop\n        /* \"#utility.yul\":1078:1391   */\n      swap3\n      swap2\n      pop\n      pop\n      jump\t// out\n        /* \"#utility.yul\":1478:1595   */\n    tag_159:\n        /* \"#utility.yul\":1587:1588   */\n      0x00\n        /* \"#utility.yul\":1584:1585   */\n      dup1\n        /* \"#utility.yul\":1577:1589   */\n      revert\n        /* \"#utility.yul\":1724:1850   */\n    tag_161:\n        /* \"#utility.yul\":1761:1768   */\n      0x00\n        /* \"#utility.yul\":1801:1843   */\n      0xffffffffffffffffffffffffffffffffffffffff\n        /* \"#utility.yul\":1794:1799   */\n      dup3\n        /* \"#utility.yul\":1790:1844   */\n      and\n        /* \"#utility.yul\":1779:1844   */\n      swap1\n      pop\n        /* \"#utility.yul\":1724:1850   */\n      swap2\n      swap1\n      pop\n      jump\t// out\n        /* \"#utility.yul\":1856:1952   */\n    tag_162:\n        /* \"#utility.yul\":1893:1900   */\n      0x00\n        /* \"#utility.yul\":1922:1946   */\n      tag_213\n        /* \"#utility.yul\":1940:1945   */\n      dup3\n        /* \"#utility.yul\":1922:1946   */\n      tag_161\n      jump\t// in\n    tag_213:\n        /* \"#utility.yul\":1911:1946   */\n      swap1\n      pop\n        /* \"#utility.yul\":1856:1952   */\n      swap2\n      swap1\n      pop\n      jump\t// out\n        /* \"#utility.yul\":1958:2080   */\n    tag_163:\n        /* \"#utility.yul\":2031:2055   */\n      tag_215\n        /* \"#utility.yul\":2049:2054   */\n      dup2\n        /* \"#utility.yul\":2031:2055   */\n      tag_162\n      jump\t// in\n    tag_215:\n        /* \"#utility.yul\":2024:2029   */\n      dup2\n        /* \"#utility.yul\":2021:2056   */\n      eq\n        /* \"#utility.yul\":2011:2074   */\n      tag_216\n      jumpi\n        /* \"#utility.yul\":2070:2071   */\n      0x00\n        /* \"#utility.yul\":2067:2068   */\n      dup1\n        /* \"#utility.yul\":2060:2072   */\n      revert\n        /* \"#utility.yul\":2011:2074   */\n    tag_216:\n        /* \"#utility.yul\":1958:2080   */\n      pop\n      jump\t// out\n        /* \"#utility.yul\":2086:2225   */\n    tag_164:\n        /* \"#utility.yul\":2132:2137   */\n      0x00\n        /* \"#utility.yul\":2170:2176   */\n      dup2\n        /* \"#utility.yul\":2157:2177   */\n      calldataload\n        /* \"#utility.yul\":2148:2177   */\n      swap1\n      pop\n        /* \"#utility.yul\":2186:2219   */\n      tag_218\n        /* \"#utility.yul\":2213:2218   */\n      dup2\n        /* \"#utility.yul\":2186:2219   */\n      tag_163\n      jump\t// in\n    tag_218:\n        /* \"#utility.yul\":2086:2225   */\n      swap3\n      swap2\n      pop\n      pop\n      jump\t// out\n        /* \"#utility.yul\":2231:2308   */\n    tag_165:\n        /* \"#utility.yul\":2268:2275   */\n      0x00\n        /* \"#utility.yul\":2297:2302   */\n      dup2\n        /* \"#utility.yul\":2286:2302   */\n      swap1\n      pop\n        /* \"#utility.yul\":2231:2308   */\n      swap2\n      swap1\n      pop\n      jump\t// out\n        /* \"#utility.yul\":2314:2436   */\n    tag_166:\n        /* \"#utility.yul\":2387:2411   */\n      tag_221\n        /* \"#utility.yul\":2405:2410   */\n      dup2\n        /* \"#utility.yul\":2387:2411   */\n      tag_165\n      jump\t// in\n    tag_221:\n        /* \"#utility.yul\":2380:2385   */\n      dup2\n        /* \"#utility.yul\":2377:2412   */\n      eq\n        /* \"#utility.yul\":2367:2430   */\n      tag_222\n      jumpi\n        /* \"#utility.yul\":2426:2427   */\n      0x00\n        /* \"#utility.yul\":2423:2424   */\n      dup1\n        /* \"#utility.yul\":2416:2428   */\n      revert\n        /* \"#utility.yul\":2367:2430   */\n    tag_222:\n        /* \"#utility.yul\":2314:2436   */\n      pop\n      jump\t// out\n        /* \"#utility.yul\":2442:2581   */\n    tag_167:\n        /* \"#utility.yul\":2488:2493   */\n      0x00\n        /* \"#utility.yul\":2526:2532   */\n      dup2\n        /* \"#utility.yul\":2513:2533   */\n      calldataload\n        /* \"#utility.yul\":2504:2533   */\n      swap1\n      pop\n        /* \"#utility.yul\":2542:2575   */\n      tag_224\n        /* \"#utility.yul\":2569:2574   */\n      dup2\n        /* \"#utility.yul\":2542:2575   */\n      tag_166\n      jump\t// in\n    tag_224:\n        /* \"#utility.yul\":2442:2581   */\n      swap3\n      swap2\n      pop\n      pop\n      jump\t// out\n        /* \"#utility.yul\":2587:3061   */\n    tag_24:\n        /* \"#utility.yul\":2655:2661   */\n      0x00\n        /* \"#utility.yul\":2663:2669   */\n      dup1\n        /* \"#utility.yul\":2712:2714   */\n      0x40\n        /* \"#utility.yul\":2700:2709   */\n      dup4\n        /* \"#utility.yul\":2691:2698   */\n      dup6\n        /* \"#utility.yul\":2687:2710   */\n      sub\n        /* \"#utility.yul\":2683:2715   */\n      slt\n        /* \"#utility.yul\":2680:2799   */\n      iszero\n      tag_226\n      jumpi\n        /* \"#utility.yul\":2718:2797   */\n      tag_227\n      tag_159\n      jump\t// in\n    tag_227:\n        /* \"#utility.yul\":2680:2799   */\n    tag_226:\n        /* \"#utility.yul\":2838:2839   */\n      0x00\n        /* \"#utility.yul\":2863:2916   */\n      tag_228\n        /* \"#utility.yul\":2908:2915   */\n      dup6\n        /* \"#utility.yul\":2899:2905   */\n      dup3\n        /* \"#utility.yul\":2888:2897   */\n      dup7\n        /* \"#utility.yul\":2884:2906   */\n      add\n        /* \"#utility.yul\":2863:2916   */\n      tag_164\n      jump\t// in\n    tag_228:\n        /* \"#utility.yul\":2853:2916   */\n      swap3\n      pop\n        /* \"#utility.yul\":2809:2926   */\n      pop\n        /* \"#utility.yul\":2965:2967   */\n      0x20\n        /* \"#utility.yul\":2991:3044   */\n      tag_229\n        /* \"#utility.yul\":3036:3043   */\n      dup6\n        /* \"#utility.yul\":3027:3033   */\n      dup3\n        /* \"#utility.yul\":3016:3025   */\n      dup7\n        /* \"#utility.yul\":3012:3034   */\n      add\n        /* \"#utility.yul\":2991:3044   */\n      tag_167\n      jump\t// in\n    tag_229:\n        /* \"#utility.yul\":2981:3044   */\n      swap2\n      pop\n        /* \"#utility.yul\":2936:3054   */\n      pop\n        /* \"#utility.yul\":2587:3061   */\n      swap3\n      pop\n      swap3\n      swap1\n      pop\n      jump\t// out\n        /* \"#utility.yul\":3067:3157   */\n    tag_168:\n        /* \"#utility.yul\":3101:3108   */\n      0x00\n        /* \"#utility.yul\":3144:3149   */\n      dup2\n        /* \"#utility.yul\":3137:3150   */\n      iszero\n        /* \"#utility.yul\":3130:3151   */\n      iszero\n        /* \"#utility.yul\":3119:3151   */\n      swap1\n      pop\n        /* \"#utility.yul\":3067:3157   */\n      swap2\n      swap1\n      pop\n      jump\t// out\n        /* \"#utility.yul\":3163:3272   */\n    tag_169:\n        /* \"#utility.yul\":3244:3265   */\n      tag_232\n        /* \"#utility.yul\":3259:3264   */\n      dup2\n        /* \"#utility.yul\":3244:3265   */\n      tag_168\n      jump\t// in\n    tag_232:\n        /* \"#utility.yul\":3239:3242   */\n      dup3\n        /* \"#utility.yul\":3232:3266   */\n      mstore\n        /* \"#utility.yul\":3163:3272   */\n      pop\n      pop\n      jump\t// out\n        /* \"#utility.yul\":3278:3488   */\n    tag_27:\n        /* \"#utility.yul\":3365:3369   */\n      0x00\n        /* \"#utility.yul\":3403:3405   */\n      0x20\n        /* \"#utility.yul\":3392:3401   */\n      dup3\n        /* \"#utility.yul\":3388:3406   */\n      add\n        /* \"#utility.yul\":3380:3406   */\n      swap1\n      pop\n        /* \"#utility.yul\":3416:3481   */\n      tag_234\n        /* \"#utility.yul\":3478:3479   */\n      0x00\n        /* \"#utility.yul\":3467:3476   */\n      dup4\n        /* \"#utility.yul\":3463:3480   */\n      add\n        /* \"#utility.yul\":3454:3460   */\n      dup5\n        /* \"#utility.yul\":3416:3481   */\n      tag_169\n      jump\t// in\n    tag_234:\n        /* \"#utility.yul\":3278:3488   */\n      swap3\n      swap2\n      pop\n      pop\n      jump\t// out\n        /* \"#utility.yul\":3494:3612   */\n    tag_170:\n        /* \"#utility.yul\":3581:3605   */\n      tag_236\n        /* \"#utility.yul\":3599:3604   */\n      dup2\n        /* \"#utility.yul\":3581:3605   */\n      tag_165\n      jump\t// in\n    tag_236:\n        /* \"#utility.yul\":3576:3579   */\n      dup3\n        /* \"#utility.yul\":3569:3606   */\n      mstore\n        /* \"#utility.yul\":3494:3612   */\n      pop\n      pop\n      jump\t// out\n        /* \"#utility.yul\":3618:3840   */\n    tag_31:\n        /* \"#utility.yul\":3711:3715   */\n      0x00\n        /* \"#utility.yul\":3749:3751   */\n      0x20\n        /* \"#utility.yul\":3738:3747   */\n      dup3\n        /* \"#utility.yul\":3734:3752   */\n      add\n        /* \"#utility.yul\":3726:3752   */\n      swap1\n      pop\n        /* \"#utility.yul\":3762:3833   */\n      tag_238\n        /* \"#utility.yul\":3830:3831   */\n      0x00\n        /* \"#utility.yul\":3819:3828   */\n      dup4\n        /* \"#utility.yul\":3815:3832   */\n      add\n        /* \"#utility.yul\":3806:3812   */\n      dup5\n        /* \"#utility.yul\":3762:3833   */\n      tag_170\n      jump\t// in\n    tag_238:\n        /* \"#utility.yul\":3618:3840   */\n      swap3\n      swap2\n      pop\n      pop\n      jump\t// out\n        /* \"#utility.yul\":3846:4465   */\n    tag_34:\n        /* \"#utility.yul\":3923:3929   */\n      0x00\n        /* \"#utility.yul\":3931:3937   */\n      dup1\n        /* \"#utility.yul\":3939:3945   */\n      0x00\n        /* \"#utility.yul\":3988:3990   */\n      0x60\n        /* \"#utility.yul\":3976:3985   */\n      dup5\n        /* \"#utility.yul\":3967:3974   */\n      dup7\n        /* \"#utility.yul\":3963:3986   */\n      sub\n        /* \"#utility.yul\":3959:3991   */\n      slt\n        /* \"#utility.yul\":3956:4075   */\n      iszero\n      tag_240\n      jumpi\n        /* \"#utility.yul\":3994:4073   */\n      tag_241\n      tag_159\n      jump\t// in\n    tag_241:\n        /* \"#utility.yul\":3956:4075   */\n    tag_240:\n        /* \"#utility.yul\":4114:4115   */\n      0x00\n        /* \"#utility.yul\":4139:4192   */\n      tag_242\n        /* \"#utility.yul\":4184:4191   */\n      dup7\n        /* \"#utility.yul\":4175:4181   */\n      dup3\n        /* \"#utility.yul\":4164:4173   */\n      dup8\n        /* \"#utility.yul\":4160:4182   */\n      add\n        /* \"#utility.yul\":4139:4192   */\n      tag_164\n      jump\t// in\n    tag_242:\n        /* \"#utility.yul\":4129:4192   */\n      swap4\n      pop\n        /* \"#utility.yul\":4085:4202   */\n      pop\n        /* \"#utility.yul\":4241:4243   */\n      0x20\n        /* \"#utility.yul\":4267:4320   */\n      tag_243\n        /* \"#utility.yul\":4312:4319   */\n      dup7\n        /* \"#utility.yul\":4303:4309   */\n      dup3\n        /* \"#utility.yul\":4292:4301   */\n      dup8\n        /* \"#utility.yul\":4288:4310   */\n      add\n        /* \"#utility.yul\":4267:4320   */\n      tag_164\n      jump\t// in\n    tag_243:\n        /* \"#utility.yul\":4257:4320   */\n      swap3\n      pop\n        /* \"#utility.yul\":4212:4330   */\n      pop\n        /* \"#utility.yul\":4369:4371   */\n      0x40\n        /* \"#utility.yul\":4395:4448   */\n      tag_244\n        /* \"#utility.yul\":4440:4447   */\n      dup7\n        /* \"#utility.yul\":4431:4437   */\n      dup3\n        /* \"#utility.yul\":4420:4429   */\n      dup8\n        /* \"#utility.yul\":4416:4438   */\n      add\n        /* \"#utility.yul\":4395:4448   */\n      tag_167\n      jump\t// in\n    tag_244:\n        /* \"#utility.yul\":4385:4448   */\n      swap2\n      pop\n        /* \"#utility.yul\":4340:4458   */\n      pop\n        /* \"#utility.yul\":3846:4465   */\n      swap3\n      pop\n      swap3\n      pop\n      swap3\n      jump\t// out\n        /* \"#utility.yul\":4471:4557   */\n    tag_171:\n        /* \"#utility.yul\":4506:4513   */\n      0x00\n        /* \"#utility.yul\":4546:4550   */\n      0xff\n        /* \"#utility.yul\":4539:4544   */\n      dup3\n        /* \"#utility.yul\":4535:4551   */\n      and\n        /* \"#utility.yul\":4524:4551   */\n      swap1\n      pop\n        /* \"#utility.yul\":4471:4557   */\n      swap2\n      swap1\n      pop\n      jump\t// out\n        /* \"#utility.yul\":4563:4675   */\n    tag_172:\n        /* \"#utility.yul\":4646:4668   */\n      tag_247\n        /* \"#utility.yul\":4662:4667   */\n      dup2\n        /* \"#utility.yul\":4646:4668   */\n      tag_171\n      jump\t// in\n    tag_247:\n        /* \"#utility.yul\":4641:4644   */\n      dup3\n        /* \"#utility.yul\":4634:4669   */\n      mstore\n        /* \"#utility.yul\":4563:4675   */\n      pop\n      pop\n      jump\t// out\n        /* \"#utility.yul\":4681:4895   */\n    tag_42:\n        /* \"#utility.yul\":4770:4774   */\n      0x00\n        /* \"#utility.yul\":4808:4810   */\n      0x20\n        /* \"#utility.yul\":4797:4806   */\n      dup3\n        /* \"#utility.yul\":4793:4811   */\n      add\n        /* \"#utility.yul\":4785:4811   */\n      swap1\n      pop\n        /* \"#utility.yul\":4821:4888   */\n      tag_249\n        /* \"#utility.yul\":4885:4886   */\n      0x00\n        /* \"#utility.yul\":4874:4883   */\n      dup4\n        /* \"#utility.yul\":4870:4887   */\n      add\n        /* \"#utility.yul\":4861:4867   */\n      dup5\n        /* \"#utility.yul\":4821:4888   */\n      tag_172\n      jump\t// in\n    tag_249:\n        /* \"#utility.yul\":4681:4895   */\n      swap3\n      swap2\n      pop\n      pop\n      jump\t// out\n        /* \"#utility.yul\":4901:5230   */\n    tag_49:\n        /* \"#utility.yul\":4960:4966   */\n      0x00\n        /* \"#utility.yul\":5009:5011   */\n      0x20\n        /* \"#utility.yul\":4997:5006   */\n      dup3\n        /* \"#utility.yul\":4988:4995   */\n      dup5\n        /* \"#utility.yul\":4984:5007   */\n      sub\n        /* \"#utility.yul\":4980:5012   */\n      slt\n        /* \"#utility.yul\":4977:5096   */\n      iszero\n      tag_251\n      jumpi\n        /* \"#utility.yul\":5015:5094   */\n      tag_252\n      tag_159\n      jump\t// in\n    tag_252:\n        /* \"#utility.yul\":4977:5096   */\n    tag_251:\n        /* \"#utility.yul\":5135:5136   */\n      0x00\n        /* \"#utility.yul\":5160:5213   */\n      tag_253\n        /* \"#utility.yul\":5205:5212   */\n      dup5\n        /* \"#utility.yul\":5196:5202   */\n      dup3\n        /* \"#utility.yul\":5185:5194   */\n      dup6\n        /* \"#utility.yul\":5181:5203   */\n      add\n        /* \"#utility.yul\":5160:5213   */\n      tag_164\n      jump\t// in\n    tag_253:\n        /* \"#utility.yul\":5150:5213   */\n      swap2\n      pop\n        /* \"#utility.yul\":5106:5223   */\n      pop\n        /* \"#utility.yul\":4901:5230   */\n      swap3\n      swap2\n      pop\n      pop\n      jump\t// out\n        /* \"#utility.yul\":5236:5354   */\n    tag_173:\n        /* \"#utility.yul\":5323:5347   */\n      tag_255\n        /* \"#utility.yul\":5341:5346   */\n      dup2\n        /* \"#utility.yul\":5323:5347   */\n      tag_162\n      jump\t// in\n    tag_255:\n        /* \"#utility.yul\":5318:5321   */\n      dup3\n        /* \"#utility.yul\":5311:5348   */\n      mstore\n        /* \"#utility.yul\":5236:5354   */\n      pop\n      pop\n      jump\t// out\n        /* \"#utility.yul\":5360:5582   */\n    tag_55:\n        /* \"#utility.yul\":5453:5457   */\n      0x00\n        /* \"#utility.yul\":5491:5493   */\n      0x20\n        /* \"#utility.yul\":5480:5489   */\n      dup3\n        /* \"#utility.yul\":5476:5494   */\n      add\n        /* \"#utility.yul\":5468:5494   */\n      swap1\n      pop\n        /* \"#utility.yul\":5504:5575   */\n      tag_257\n        /* \"#utility.yul\":5572:5573   */\n      0x00\n        /* \"#utility.yul\":5561:5570   */\n      dup4\n        /* \"#utility.yul\":5557:5574   */\n      add\n        /* \"#utility.yul\":5548:5554   */\n      dup5\n        /* \"#utility.yul\":5504:5575   */\n      tag_173\n      jump\t// in\n    tag_257:\n        /* \"#utility.yul\":5360:5582   */\n      swap3\n      swap2\n      pop\n      pop\n      jump\t// out\n        /* \"#utility.yul\":5588:6062   */\n    tag_65:\n        /* \"#utility.yul\":5656:5662   */\n      0x00\n        /* \"#utility.yul\":5664:5670   */\n      dup1\n        /* \"#utility.yul\":5713:5715   */\n      0x40\n        /* \"#utility.yul\":5701:5710   */\n      dup4\n        /* \"#utility.yul\":5692:5699   */\n      dup6\n        /* \"#utility.yul\":5688:5711   */\n      sub\n        /* \"#utility.yul\":5684:5716   */\n      slt\n        /* \"#utility.yul\":5681:5800   */\n      iszero\n      tag_259\n      jumpi\n        /* \"#utility.yul\":5719:5798   */\n      tag_260\n      tag_159\n      jump\t// in\n    tag_260:\n        /* \"#utility.yul\":5681:5800   */\n    tag_259:\n        /* \"#utility.yul\":5839:5840   */\n      0x00\n        /* \"#utility.yul\":5864:5917   */\n      tag_261\n        /* \"#utility.yul\":5909:5916   */\n      dup6\n        /* \"#utility.yul\":5900:5906   */\n      dup3\n        /* \"#utility.yul\":5889:5898   */\n      dup7\n        /* \"#utility.yul\":5885:5907   */\n      add\n        /* \"#utility.yul\":5864:5917   */\n      tag_164\n      jump\t// in\n    tag_261:\n        /* \"#utility.yul\":5854:5917   */\n      swap3\n      pop\n        /* \"#utility.yul\":5810:5927   */\n      pop\n        /* \"#utility.yul\":5966:5968   */\n      0x20\n        /* \"#utility.yul\":5992:6045   */\n      tag_262\n        /* \"#utility.yul\":6037:6044   */\n      dup6\n        /* \"#utility.yul\":6028:6034   */\n      dup3\n        /* \"#utility.yul\":6017:6026   */\n      dup7\n        /* \"#utility.yul\":6013:6035   */\n      add\n        /* \"#utility.yul\":5992:6045   */\n      tag_164\n      jump\t// in\n    tag_262:\n        /* \"#utility.yul\":5982:6045   */\n      swap2\n      pop\n        /* \"#utility.yul\":5937:6055   */\n      pop\n        /* \"#utility.yul\":5588:6062   */\n      swap3\n      pop\n      swap3\n      swap1\n      pop\n      jump\t// out\n        /* \"#utility.yul\":6068:6248   */\n    tag_174:\n        /* \"#utility.yul\":6116:6193   */\n      0x4e487b7100000000000000000000000000000000000000000000000000000000\n        /* \"#utility.yul\":6113:6114   */\n      0x00\n        /* \"#utility.yul\":6106:6194   */\n      mstore\n        /* \"#utility.yul\":6213:6217   */\n      0x22\n        /* \"#utility.yul\":6210:6211   */\n      0x04\n        /* \"#utility.yul\":6203:6218   */\n      mstore\n        /* \"#utility.yul\":6237:6241   */\n      0x24\n        /* \"#utility.yul\":6234:6235   */\n      0x00\n        /* \"#utility.yul\":6227:6242   */\n      revert\n        /* \"#utility.yul\":6254:6574   */\n    tag_73:\n        /* \"#utility.yul\":6298:6304   */\n      0x00\n        /* \"#utility.yul\":6335:6336   */\n      0x02\n        /* \"#utility.yul\":6329:6333   */\n      dup3\n        /* \"#utility.yul\":6325:6337   */\n      div\n        /* \"#utility.yul\":6315:6337   */\n      swap1\n      pop\n        /* \"#utility.yul\":6382:6383   */\n      0x01\n        /* \"#utility.yul\":6376:6380   */\n      dup3\n        /* \"#utility.yul\":6372:6384   */\n      and\n        /* \"#utility.yul\":6403:6421   */\n      dup1\n        /* \"#utility.yul\":6393:6474   */\n      tag_265\n      jumpi\n        /* \"#utility.yul\":6459:6463   */\n      0x7f\n        /* \"#utility.yul\":6451:6457   */\n      dup3\n        /* \"#utility.yul\":6447:6464   */\n      and\n        /* \"#utility.yul\":6437:6464   */\n      swap2\n      pop\n        /* \"#utility.yul\":6393:6474   */\n    tag_265:\n        /* \"#utility.yul\":6521:6523   */\n      0x20\n        /* \"#utility.yul\":6513:6519   */\n      dup3\n        /* \"#utility.yul\":6510:6524   */\n      lt\n        /* \"#utility.yul\":6490:6508   */\n      dup2\n        /* \"#utility.yul\":6487:6525   */\n      sub\n        /* \"#utility.yul\":6484:6568   */\n      tag_266\n      jumpi\n        /* \"#utility.yul\":6540:6558   */\n      tag_267\n      tag_174\n      jump\t// in\n    tag_267:\n        /* \"#utility.yul\":6484:6568   */\n    tag_266:\n        /* \"#utility.yul\":6305:6574   */\n      pop\n        /* \"#utility.yul\":6254:6574   */\n      swap2\n      swap1\n      pop\n      jump\t// out\n        /* \"#utility.yul\":6580:6807   */\n    tag_175:\n        /* \"#utility.yul\":6720:6754   */\n      0x45524332303a207472616e7366657220616d6f756e7420657863656564732061\n        /* \"#utility.yul\":6716:6717   */\n      0x00\n        /* \"#utility.yul\":6708:6714   */\n      dup3\n        /* \"#utility.yul\":6704:6718   */\n      add\n        /* \"#utility.yul\":6697:6755   */\n      mstore\n        /* \"#utility.yul\":6789:6799   */\n      0x6c6c6f77616e6365000000000000000000000000000000000000000000000000\n        /* \"#utility.yul\":6784:6786   */\n      0x20\n        /* \"#utility.yul\":6776:6782   */\n      dup3\n        /* \"#utility.yul\":6772:6787   */\n      add\n        /* \"#utility.yul\":6765:6800   */\n      mstore\n        /* \"#utility.yul\":6580:6807   */\n      pop\n      jump\t// out\n        /* \"#utility.yul\":6813:7179   */\n    tag_176:\n        /* \"#utility.yul\":6955:6958   */\n      0x00\n        /* \"#utility.yul\":6976:7043   */\n      tag_270\n        /* \"#utility.yul\":7040:7042   */\n      0x28\n        /* \"#utility.yul\":7035:7038   */\n      dup4\n        /* \"#utility.yul\":6976:7043   */\n      tag_154\n      jump\t// in\n    tag_270:\n        /* \"#utility.yul\":6969:7043   */\n      swap2\n      pop\n        /* \"#utility.yul\":7052:7145   */\n      tag_271\n        /* \"#utility.yul\":7141:7144   */\n      dup3\n        /* \"#utility.yul\":7052:7145   */\n      tag_175\n      jump\t// in\n    tag_271:\n        /* \"#utility.yul\":7170:7172   */\n      0x40\n        /* \"#utility.yul\":7165:7168   */\n      dup3\n        /* \"#utility.yul\":7161:7173   */\n      add\n        /* \"#utility.yul\":7154:7173   */\n      swap1\n      pop\n        /* \"#utility.yul\":6813:7179   */\n      swap2\n      swap1\n      pop\n      jump\t// out\n        /* \"#utility.yul\":7185:7604   */\n    tag_90:\n        /* \"#utility.yul\":7351:7355   */\n      0x00\n        /* \"#utility.yul\":7389:7391   */\n      0x20\n        /* \"#utility.yul\":7378:7387   */\n      dup3\n        /* \"#utility.yul\":7374:7392   */\n      add\n        /* \"#utility.yul\":7366:7392   */\n      swap1\n      pop\n        /* \"#utility.yul\":7438:7447   */\n      dup2\n        /* \"#utility.yul\":7432:7436   */\n      dup2\n        /* \"#utility.yul\":7428:7448   */\n      sub\n        /* \"#utility.yul\":7424:7425   */\n      0x00\n        /* \"#utility.yul\":7413:7422   */\n      dup4\n        /* \"#utility.yul\":7409:7426   */\n      add\n        /* \"#utility.yul\":7402:7449   */\n      mstore\n        /* \"#utility.yul\":7466:7597   */\n      tag_273\n        /* \"#utility.yul\":7592:7596   */\n      dup2\n        /* \"#utility.yul\":7466:7597   */\n      tag_176\n      jump\t// in\n    tag_273:\n        /* \"#utility.yul\":7458:7597   */\n      swap1\n      pop\n        /* \"#utility.yul\":7185:7604   */\n      swap2\n      swap1\n      pop\n      jump\t// out\n        /* \"#utility.yul\":7610:7790   */\n    tag_177:\n        /* \"#utility.yul\":7750:7782   */\n      0x45524332303a2063616c6c6572206973206e6f7420746865206f776e65720000\n        /* \"#utility.yul\":7746:7747   */\n      0x00\n        /* \"#utility.yul\":7738:7744   */\n      dup3\n        /* \"#utility.yul\":7734:7748   */\n      add\n        /* \"#utility.yul\":7727:7783   */\n      mstore\n        /* \"#utility.yul\":7610:7790   */\n      pop\n      jump\t// out\n        /* \"#utility.yul\":7796:8162   */\n    tag_178:\n        /* \"#utility.yul\":7938:7941   */\n      0x00\n        /* \"#utility.yul\":7959:8026   */\n      tag_276\n        /* \"#utility.yul\":8023:8025   */\n      0x1e\n        /* \"#utility.yul\":8018:8021   */\n      dup4\n        /* \"#utility.yul\":7959:8026   */\n      tag_154\n      jump\t// in\n    tag_276:\n        /* \"#utility.yul\":7952:8026   */\n      swap2\n      pop\n        /* \"#utility.yul\":8035:8128   */\n      tag_277\n        /* \"#utility.yul\":8124:8127   */\n      dup3\n        /* \"#utility.yul\":8035:8128   */\n      tag_177\n      jump\t// in\n    tag_277:\n        /* \"#utility.yul\":8153:8155   */\n      0x20\n        /* \"#utility.yul\":8148:8151   */\n      dup3\n        /* \"#utility.yul\":8144:8156   */\n      add\n        /* \"#utility.yul\":8137:8156   */\n      swap1\n      pop\n        /* \"#utility.yul\":7796:8162   */\n      swap2\n      swap1\n      pop\n      jump\t// out\n        /* \"#utility.yul\":8168:8587   */\n    tag_97:\n        /* \"#utility.yul\":8334:8338   */\n      0x00\n        /* \"#utility.yul\":8372:8374   */\n      0x20\n        /* \"#utility.yul\":8361:8370   */\n      dup3\n        /* \"#utility.yul\":8357:8375   */\n      add\n        /* \"#utility.yul\":8349:8375   */\n      swap1\n      pop\n        /* \"#utility.yul\":8421:8430   */\n      dup2\n        /* \"#utility.yul\":8415:8419   */\n      dup2\n        /* \"#utility.yul\":8411:8431   */\n      sub\n        /* \"#utility.yul\":8407:8408   */\n      0x00\n        /* \"#utility.yul\":8396:8405   */\n      dup4\n        /* \"#utility.yul\":8392:8409   */\n      add\n        /* \"#utility.yul\":8385:8432   */\n      mstore\n        /* \"#utility.yul\":8449:8580   */\n      tag_279\n        /* \"#utility.yul\":8575:8579   */\n      dup2\n        /* \"#utility.yul\":8449:8580   */\n      tag_178\n      jump\t// in\n    tag_279:\n        /* \"#utility.yul\":8441:8580   */\n      swap1\n      pop\n        /* \"#utility.yul\":8168:8587   */\n      swap2\n      swap1\n      pop\n      jump\t// out\n        /* \"#utility.yul\":8593:8773   */\n    tag_179:\n        /* \"#utility.yul\":8641:8718   */\n      0x4e487b7100000000000000000000000000000000000000000000000000000000\n        /* \"#utility.yul\":8638:8639   */\n      0x00\n        /* \"#utility.yul\":8631:8719   */\n      mstore\n        /* \"#utility.yul\":8738:8742   */\n      0x11\n        /* \"#utility.yul\":8735:8736   */\n      0x04\n        /* \"#utility.yul\":8728:8743   */\n      mstore\n        /* \"#utility.yul\":8762:8766   */\n      0x24\n        /* \"#utility.yul\":8759:8760   */\n      0x00\n        /* \"#utility.yul\":8752:8767   */\n      revert\n        /* \"#utility.yul\":8779:9084   */\n    tag_105:\n        /* \"#utility.yul\":8819:8822   */\n      0x00\n        /* \"#utility.yul\":8838:8858   */\n      tag_282\n        /* \"#utility.yul\":8856:8857   */\n      dup3\n        /* \"#utility.yul\":8838:8858   */\n      tag_165\n      jump\t// in\n    tag_282:\n        /* \"#utility.yul\":8833:8858   */\n      swap2\n      pop\n        /* \"#utility.yul\":8872:8892   */\n      tag_283\n        /* \"#utility.yul\":8890:8891   */\n      dup4\n        /* \"#utility.yul\":8872:8892   */\n      tag_165\n      jump\t// in\n    tag_283:\n        /* \"#utility.yul\":8867:8892   */\n      swap3\n      pop\n        /* \"#utility.yul\":9026:9027   */\n      dup3\n        /* \"#utility.yul\":8958:9024   */\n      0xffffffffffffffffffffffffffffffffffffffffffffffffffffffffffffffff\n        /* \"#utility.yul\":8954:9028   */\n      sub\n        /* \"#utility.yul\":8951:8952   */\n      dup3\n        /* \"#utility.yul\":8948:9029   */\n      gt\n        /* \"#utility.yul\":8945:9052   */\n      iszero\n      tag_284\n      jumpi\n        /* \"#utility.yul\":9032:9050   */\n      tag_285\n      tag_179\n      jump\t// in\n    tag_285:\n        /* \"#utility.yul\":8945:9052   */\n    tag_284:\n        /* \"#utility.yul\":9076:9077   */\n      dup3\n        /* \"#utility.yul\":9073:9074   */\n      dup3\n        /* \"#utility.yul\":9069:9078   */\n      add\n        /* \"#utility.yul\":9062:9078   */\n      swap1\n      pop\n        /* \"#utility.yul\":8779:9084   */\n      swap3\n      swap2\n      pop\n      pop\n      jump\t// out\n        /* \"#utility.yul\":9090:9313   */\n    tag_180:\n        /* \"#utility.yul\":9230:9264   */\n      0x45524332303a206e6577206f776e657220697320746865207a65726f20616464\n        /* \"#utility.yul\":9226:9227   */\n      0x00\n        /* \"#utility.yul\":9218:9224   */\n      dup3\n        /* \"#utility.yul\":9214:9228   */\n      add\n        /* \"#utility.yul\":9207:9265   */\n      mstore\n        /* \"#utility.yul\":9299:9305   */\n      0x7265737300000000000000000000000000000000000000000000000000000000\n        /* \"#utility.yul\":9294:9296   */\n      0x20\n        /* \"#utility.yul\":9286:9292   */\n      dup3\n        /* \"#utility.yul\":9282:9297   */\n      add\n        /* \"#utility.yul\":9275:9306   */\n      mstore\n        /* \"#utility.yul\":9090:9313   */\n      pop\n      jump\t// out\n        /* \"#utility.yul\":9319:9685   */\n    tag_181:\n        /* \"#utility.yul\":9461:9464   */\n      0x00\n        /* \"#utility.yul\":9482:9549   */\n      tag_288\n        /* \"#utility.yul\":9546:9548   */\n      0x24\n        /* \"#utility.yul\":9541:9544   */\n      dup4\n        /* \"#utility.yul\":9482:9549   */\n      tag_154\n      jump\t// in\n    tag_288:\n        /* \"#utility.yul\":9475:9549   */\n      swap2\n      pop\n        /* \"#utility.yul\":9558:9651   */\n      tag_289\n        /* \"#utility.yul\":9647:9650   */\n      dup3\n        /* \"#utility.yul\":9558:9651   */\n      tag_180\n      jump\t// in\n    tag_289:\n        /* \"#utility.yul\":9676:9678   */\n      0x40\n        /* \"#utility.yul\":9671:9674   */\n      dup3\n        /* \"#utility.yul\":9667:9679   */\n      add\n        /* \"#utility.yul\":9660:9679   */\n      swap1\n      pop\n        /* \"#utility.yul\":9319:9685   */\n      swap2\n      swap1\n      pop\n      jump\t// out\n        /* \"#utility.yul\":9691:10110   */\n    tag_125:\n        /* \"#utility.yul\":9857:9861   */\n      0x00\n        /* \"#utility.yul\":9895:9897   */\n      0x20\n        /* \"#utility.yul\":9884:9893   */\n      dup3\n        /* \"#utility.yul\":9880:9898   */\n      add\n        /* \"#utility.yul\":9872:9898   */\n      swap1\n      pop\n        /* \"#utility.yul\":9944:9953   */\n      dup2\n        /* \"#utility.yul\":9938:9942   */\n      dup2\n        /* \"#utility.yul\":9934:9954   */\n      sub\n        /* \"#utility.yul\":9930:9931   */\n      0x00\n        /* \"#utility.yul\":9919:9928   */\n      dup4\n        /* \"#utility.yul\":9915:9932   */\n      add\n        /* \"#utility.yul\":9908:9955   */\n      mstore\n        /* \"#utility.yul\":9972:10103   */\n      tag_291\n        /* \"#utility.yul\":10098:10102   */\n      dup2\n        /* \"#utility.yul\":9972:10103   */\n      tag_181\n      jump\t// in\n    tag_291:\n        /* \"#utility.yul\":9964:10103   */\n      swap1\n      pop\n        /* \"#utility.yul\":9691:10110   */\n      swap2\n      swap1\n      pop\n      jump\t// out\n        /* \"#utility.yul\":10116:10339   */\n    tag_182:\n        /* \"#utility.yul\":10256:10290   */\n      0x45524332303a20617070726f76652066726f6d20746865207a65726f20616464\n        /* \"#utility.yul\":10252:10253   */\n      0x00\n        /* \"#utility.yul\":10244:10250   */\n      dup3\n        /* \"#utility.yul\":10240:10254   */\n      add\n        /* \"#utility.yul\":10233:10291   */\n      mstore\n        /* \"#utility.yul\":10325:10331   */\n      0x7265737300000000000000000000000000000000000000000000000000000000\n        /* \"#utility.yul\":10320:10322   */\n      0x20\n        /* \"#utility.yul\":10312:10318   */\n      dup3\n        /* \"#utility.yul\":10308:10323   */\n      add\n        /* \"#utility.yul\":10301:10332   */\n      mstore\n        /* \"#utility.yul\":10116:10339   */\n      pop\n      jump\t// out\n        /* \"#utility.yul\":10345:10711   */\n    tag_183:\n        /* \"#utility.yul\":10487:10490   */\n      0x00\n        /* \"#utility.yul\":10508:10575   */\n      tag_294\n        /* \"#utility.yul\":10572:10574   */\n      0x24\n        /* \"#utility.yul\":10567:10570   */\n      dup4\n        /* \"#utility.yul\":10508:10575   */\n      tag_154\n      jump\t// in\n    tag_294:\n        /* \"#utility.yul\":10501:10575   */\n      swap2\n      pop\n        /* \"#utility.yul\":10584:10677   */\n      tag_295\n        /* \"#utility.yul\":10673:10676   */\n      dup3\n        /* \"#utility.yul\":10584:10677   */\n      tag_182\n      jump\t// in\n    tag_295:\n        /* \"#utility.yul\":10702:10704   */\n      0x40\n        /* \"#utility.yul\":10697:10700   */\n      dup3\n        /* \"#utility.yul\":10693:10705   */\n      add\n        /* \"#utility.yul\":10686:10705   */\n      swap1\n      pop\n        /* \"#utility.yul\":10345:10711   */\n      swap2\n      swap1\n      pop\n      jump\t// out\n        /* \"#utility.yul\":10717:11136   */\n    tag_130:\n        /* \"#utility.yul\":10883:10887   */\n      0x00\n        /* \"#utility.yul\":10921:10923   */\n      0x20\n        /* \"#utility.yul\":10910:10919   */\n      dup3\n        /* \"#utility.yul\":10906:10924   */\n      add\n        /* \"#utility.yul\":10898:10924   */\n      swap1\n      pop\n        /* \"#utility.yul\":10970:10979   */\n      dup2\n        /* \"#utility.yul\":10964:10968   */\n      dup2\n        /* \"#utility.yul\":10960:10980   */\n      sub\n        /* \"#utility.yul\":10956:10957   */\n      0x00\n        /* \"#utility.yul\":10945:10954   */\n      dup4\n        /* \"#utility.yul\":10941:10958   */\n      add\n        /* \"#utility.yul\":10934:10981   */\n      mstore\n        /* \"#utility.yul\":10998:11129   */\n      tag_297\n        /* \"#utility.yul\":11124:11128   */\n      dup2\n        /* \"#utility.yul\":10998:11129   */\n      tag_183\n      jump\t// in\n    tag_297:\n        /* \"#utility.yul\":10990:11129   */\n      swap1\n      pop\n        /* \"#utility.yul\":10717:11136   */\n      swap2\n      swap1\n      pop\n      jump\t// out\n        /* \"#utility.yul\":11142:11363   */\n    tag_184:\n        /* \"#utility.yul\":11282:11316   */\n      0x45524332303a20617070726f766520746f20746865207a65726f206164647265\n        /* \"#utility.yul\":11278:11279   */\n      0x00\n        /* \"#utility.yul\":11270:11276   */\n      dup3\n        /* \"#utility.yul\":11266:11280   */\n      add\n        /* \"#utility.yul\":11259:11317   */\n      mstore\n        /* \"#utility.yul\":11351:11355   */\n      0x7373000000000000000000000000000000000000000000000000000000000000\n        /* \"#utility.yul\":11346:11348   */\n      0x20\n        /* \"#utility.yul\":11338:11344   */\n      dup3\n        /* \"#utility.yul\":11334:11349   */\n      add\n        /* \"#utility.yul\":11327:11356   */\n      mstore\n        /* \"#utility.yul\":11142:11363   */\n      pop\n      jump\t// out\n        /* \"#utility.yul\":11369:11735   */\n    tag_185:\n        /* \"#utility.yul\":11511:11514   */\n      0x00\n        /* \"#utility.yul\":11532:11599   */\n      tag_300\n        /* \"#utility.yul\":11596:11598   */\n      0x22\n        /* \"#utility.yul\":11591:11594   */\n      dup4\n        /* \"#utility.yul\":11532:11599   */\n      tag_154\n      jump\t// in\n    tag_300:\n        /* \"#utility.yul\":11525:11599   */\n      swap2\n      pop\n        /* \"#utility.yul\":11608:11701   */\n      tag_301\n        /* \"#utility.yul\":11697:11700   */\n      dup3\n        /* \"#utility.yul\":11608:11701   */\n      tag_184\n      jump\t// in\n    tag_301:\n        /* \"#utility.yul\":11726:11728   */\n      0x40\n        /* \"#utility.yul\":11721:11724   */\n      dup3\n        /* \"#utility.yul\":11717:11729   */\n      add\n        /* \"#utility.yul\":11710:11729   */\n      swap1\n      pop\n        /* \"#utility.yul\":11369:11735   */\n      swap2\n      swap1\n      pop\n      jump\t// out\n        /* \"#utility.yul\":11741:12160   */\n    tag_133:\n        /* \"#utility.yul\":11907:11911   */\n      0x00\n        /* \"#utility.yul\":11945:11947   */\n      0x20\n        /* \"#utility.yul\":11934:11943   */\n      dup3\n        /* \"#utility.yul\":11930:11948   */\n      add\n        /* \"#utility.yul\":11922:11948   */\n      swap1\n      pop\n        /* \"#utility.yul\":11994:12003   */\n      dup2\n        /* \"#utility.yul\":11988:11992   */\n      dup2\n        /* \"#utility.yul\":11984:12004   */\n      sub\n        /* \"#utility.yul\":11980:11981   */\n      0x00\n        /* \"#utility.yul\":11969:11978   */\n      dup4\n        /* \"#utility.yul\":11965:11982   */\n      add\n        /* \"#utility.yul\":11958:12005   */\n      mstore\n        /* \"#utility.yul\":12022:12153   */\n      tag_303\n        /* \"#utility.yul\":12148:12152   */\n      dup2\n        /* \"#utility.yul\":12022:12153   */\n      tag_185\n      jump\t// in\n    tag_303:\n        /* \"#utility.yul\":12014:12153   */\n      swap1\n      pop\n        /* \"#utility.yul\":11741:12160   */\n      swap2\n      swap1\n      pop\n      jump\t// out\n        /* \"#utility.yul\":12166:12390   */\n    tag_186:\n        /* \"#utility.yul\":12306:12340   */\n      0x45524332303a207472616e736665722066726f6d20746865207a65726f206164\n        /* \"#utility.yul\":12302:12303   */\n      0x00\n        /* \"#utility.yul\":12294:12300   */\n      dup3\n        /* \"#utility.yul\":12290:12304   */\n      add\n        /* \"#utility.yul\":12283:12341   */\n      mstore\n        /* \"#utility.yul\":12375:12382   */\n      0x6472657373000000000000000000000000000000000000000000000000000000\n        /* \"#utility.yul\":12370:12372   */\n      0x20\n        /* \"#utility.yul\":12362:12368   */\n      dup3\n        /* \"#utility.yul\":12358:12373   */\n      add\n        /* \"#utility.yul\":12351:12383   */\n      mstore\n        /* \"#utility.yul\":12166:12390   */\n      pop\n      jump\t// out\n        /* \"#utility.yul\":12396:12762   */\n    tag_187:\n        /* \"#utility.yul\":12538:12541   */\n      0x00\n        /* \"#utility.yul\":12559:12626   */\n      tag_306\n        /* \"#utility.yul\":12623:12625   */\n      0x25\n        /* \"#utility.yul\":12618:12621   */\n      dup4\n        /* \"#utility.yul\":12559:12626   */\n      tag_154\n      jump\t// in\n    tag_306:\n        /* \"#utility.yul\":12552:12626   */\n      swap2\n      pop\n        /* \"#utility.yul\":12635:12728   */\n      tag_307\n        /* \"#utility.yul\":12724:12727   */\n      dup3\n        /* \"#utility.yul\":12635:12728   */\n      tag_186\n      jump\t// in\n    tag_307:\n        /* \"#utility.yul\":12753:12755   */\n      0x40\n        /* \"#utility.yul\":12748:12751   */\n      dup3\n        /* \"#utility.yul\":12744:12756   */\n      add\n        /* \"#utility.yul\":12737:12756   */\n      swap1\n      pop\n        /* \"#utility.yul\":12396:12762   */\n      swap2\n      swap1\n      pop\n      jump\t// out\n        /* \"#utility.yul\":12768:13187   */\n    tag_138:\n        /* \"#utility.yul\":12934:12938   */\n      0x00\n        /* \"#utility.yul\":12972:12974   */\n      0x20\n        /* \"#utility.yul\":12961:12970   */\n      dup3\n        /* \"#utility.yul\":12957:12975   */\n      add\n        /* \"#utility.yul\":12949:12975   */\n      swap1\n      pop\n        /* \"#utility.yul\":13021:13030   */\n      dup2\n        /* \"#utility.yul\":13015:13019   */\n      dup2\n        /* \"#utility.yul\":13011:13031   */\n      sub\n        /* \"#utility.yul\":13007:13008   */\n      0x00\n        /* \"#utility.yul\":12996:13005   */\n      dup4\n        /* \"#utility.yul\":12992:13009   */\n      add\n        /* \"#utility.yul\":12985:13032   */\n      mstore\n        /* \"#utility.yul\":13049:13180   */\n      tag_309\n        /* \"#utility.yul\":13175:13179   */\n      dup2\n        /* \"#utility.yul\":13049:13180   */\n      tag_187\n      jump\t// in\n    tag_309:\n        /* \"#utility.yul\":13041:13180   */\n      swap1\n      pop\n        /* \"#utility.yul\":12768:13187   */\n      swap2\n      swap1\n      pop\n      jump\t// out\n        /* \"#utility.yul\":13193:13415   */\n    tag_188:\n        /* \"#utility.yul\":13333:13367   */\n      0x45524332303a207472616e7366657220746f20746865207a65726f2061646472\n        /* \"#utility.yul\":13329:13330   */\n      0x00\n        /* \"#utility.yul\":13321:13327   */\n      dup3\n        /* \"#utility.yul\":13317:13331   */\n      add\n        /* \"#utility.yul\":13310:13368   */\n      mstore\n        /* \"#utility.yul\":13402:13407   */\n      0x6573730000000000000000000000000000000000000000000000000000000000\n        /* \"#utility.yul\":13397:13399   */\n      0x20\n        /* \"#utility.yul\":13389:13395   */\n      dup3\n        /* \"#utility.yul\":13385:13400   */\n      add\n        /* \"#utility.yul\":13378:13408   */\n      mstore\n        /* \"#utility.yul\":13193:13415   */\n      pop\n      jump\t// out\n        /* \"#utility.yul\":13421:13787   */\n    tag_189:\n        /* \"#utility.yul\":13563:13566   */\n      0x00\n        /* \"#utility.yul\":13584:13651   */\n      tag_312\n        /* \"#utility.yul\":13648:13650   */\n      0x23\n        /* \"#utility.yul\":13643:13646   */\n      dup4\n        /* \"#utility.yul\":13584:13651   */\n      tag_154\n      jump\t// in\n    tag_312:\n        /* \"#utility.yul\":13577:13651   */\n      swap2\n      pop\n        /* \"#utility.yul\":13660:13753   */\n      tag_313\n        /* \"#utility.yul\":13749:13752   */\n      dup3\n        /* \"#utility.yul\":13660:13753   */\n      tag_188\n      jump\t// in\n    tag_313:\n        /* \"#utility.yul\":13778:13780   */\n      0x40\n        /* \"#utility.yul\":13773:13776   */\n      dup3\n        /* \"#utility.yul\":13769:13781   */\n      add\n        /* \"#utility.yul\":13762:13781   */\n      swap1\n      pop\n        /* \"#utility.yul\":13421:13787   */\n      swap2\n      swap1\n      pop\n      jump\t// out\n        /* \"#utility.yul\":13793:14212   */\n    tag_141:\n        /* \"#utility.yul\":13959:13963   */\n      0x00\n        /* \"#utility.yul\":13997:13999   */\n      0x20\n        /* \"#utility.yul\":13986:13995   */\n      dup3\n        /* \"#utility.yul\":13982:14000   */\n      add\n        /* \"#utility.yul\":13974:14000   */\n      swap1\n      pop\n        /* \"#utility.yul\":14046:14055   */\n      dup2\n        /* \"#utility.yul\":14040:14044   */\n      dup2\n        /* \"#utility.yul\":14036:14056   */\n      sub\n        /* \"#utility.yul\":14032:14033   */\n      0x00\n        /* \"#utility.yul\":14021:14030   */\n      dup4\n        /* \"#utility.yul\":14017:14034   */\n      add\n        /* \"#utility.yul\":14010:14057   */\n      mstore\n        /* \"#utility.yul\":14074:14205   */\n      tag_315\n        /* \"#utility.yul\":14200:14204   */\n      dup2\n        /* \"#utility.yul\":14074:14205   */\n      tag_189\n      jump\t// in\n    tag_315:\n        /* \"#utility.yul\":14066:14205   */\n      swap1\n      pop\n        /* \"#utility.yul\":13793:14212   */\n      swap2\n      swap1\n      pop\n      jump\t// out\n        /* \"#utility.yul\":14218:14443   */\n    tag_190:\n        /* \"#utility.yul\":14358:14392   */\n      0x45524332303a207472616e7366657220616d6f756e7420657863656564732062\n        /* \"#utility.yul\":14354:14355   */\n      0x00\n        /* \"#utility.yul\":14346:14352   */\n      dup3\n        /* \"#utility.yul\":14342:14356   */\n      add\n        /* \"#utility.yul\":14335:14393   */\n      mstore\n        /* \"#utility.yul\":14427:14435   */\n      0x616c616e63650000000000000000000000000000000000000000000000000000\n        /* \"#utility.yul\":14422:14424   */\n      0x20\n        /* \"#utility.yul\":14414:14420   */\n      dup3\n        /* \"#utility.yul\":14410:14425   */\n      add\n        /* \"#utility.yul\":14403:14436   */\n      mstore\n        /* \"#utility.yul\":14218:14443   */\n      pop\n      jump\t// out\n        /* \"#utility.yul\":14449:14815   */\n    tag_191:\n        /* \"#utility.yul\":14591:14594   */\n      0x00\n        /* \"#utility.yul\":14612:14679   */\n      tag_318\n        /* \"#utility.yul\":14676:14678   */\n      0x26\n        /* \"#utility.yul\":14671:14674   */\n      dup4\n        /* \"#utility.yul\":14612:14679   */\n      tag_154\n      jump\t// in\n    tag_318:\n        /* \"#utility.yul\":14605:14679   */\n      swap2\n      pop\n        /* \"#utility.yul\":14688:14781   */\n      tag_319\n        /* \"#utility.yul\":14777:14780   */\n      dup3\n        /* \"#utility.yul\":14688:14781   */\n      tag_190\n      jump\t// in\n    tag_319:\n        /* \"#utility.yul\":14806:14808   */\n      0x40\n        /* \"#utility.yul\":14801:14804   */\n      dup3\n        /* \"#utility.yul\":14797:14809   */\n      add\n        /* \"#utility.yul\":14790:14809   */\n      swap1\n      pop\n        /* \"#utility.yul\":14449:14815   */\n      swap2\n      swap1\n      pop\n      jump\t// out\n        /* \"#utility.yul\":14821:15240   */\n    tag_146:\n        /* \"#utility.yul\":14987:14991   */\n      0x00\n        /* \"#utility.yul\":15025:15027   */\n      0x20\n        /* \"#utility.yul\":15014:15023   */\n      dup3\n        /* \"#utility.yul\":15010:15028   */\n      add\n        /* \"#utility.yul\":15002:15028   */\n      swap1\n      pop\n        /* \"#utility.yul\":15074:15083   */\n      dup2\n        /* \"#utility.yul\":15068:15072   */\n      dup2\n        /* \"#utility.yul\":15064:15084   */\n      sub\n        /* \"#utility.yul\":15060:15061   */\n      0x00\n        /* \"#utility.yul\":15049:15058   */\n      dup4\n        /* \"#utility.yul\":15045:15062   */\n      add\n        /* \"#utility.yul\":15038:15085   */\n      mstore\n        /* \"#utility.yul\":15102:15233   */\n      tag_321\n        /* \"#utility.yul\":15228:15232   */\n      dup2\n        /* \"#utility.yul\":15102:15233   */\n      tag_191\n      jump\t// in\n    tag_321:\n        /* \"#utility.yul\":15094:15233   */\n      swap1\n      pop\n        /* \"#utility.yul\":14821:15240   */\n      swap2\n      swap1\n      pop\n      jump\t// out\n\n    auxdata: 0xa2646970667358221220ad09e0b68d3ed4232b482624c6fe7000e8eb09c24a0e2ca2e01d8e679c157f9464736f6c634300080f0033\n}\n",
				"bytecode": {
					"linkReferences": {},
					"object": "60806040523480156200001157600080fd5b5060405162001d5b38038062001d5b8339818101604052810190620000379190620002c2565b816003908162000048919062000592565b5080600490816200005a919062000592565b506200006b6200011d60201b60201c565b600560006101000a81548173ffffffffffffffffffffffffffffffffffffffff021916908373ffffffffffffffffffffffffffffffffffffffff160217905550620000bb6200011d60201b60201c565b73ffffffffffffffffffffffffffffffffffffffff16600073ffffffffffffffffffffffffffffffffffffffff167f8be0079c531659141344cd1fd0a4f28419497f9722a3daafe3b4186f6b6457e060405160405180910390a3505062000679565b600033905090565b6000604051905090565b600080fd5b600080fd5b600080fd5b600080fd5b6000601f19601f8301169050919050565b7f4e487b7100000000000000000000000000000000000000000000000000000000600052604160045260246000fd5b6200018e8262000143565b810181811067ffffffffffffffff82111715620001b057620001af62000154565b5b80604052505050565b6000620001c562000125565b9050620001d3828262000183565b919050565b600067ffffffffffffffff821115620001f657620001f562000154565b5b620002018262000143565b9050602081019050919050565b60005b838110156200022e57808201518184015260208101905062000211565b838111156200023e576000848401525b50505050565b60006200025b6200025584620001d8565b620001b9565b9050828152602081018484840111156200027a57620002796200013e565b5b620002878482856200020e565b509392505050565b600082601f830112620002a757620002a662000139565b5b8151620002b984826020860162000244565b91505092915050565b60008060408385031215620002dc57620002db6200012f565b5b600083015167ffffffffffffffff811115620002fd57620002fc62000134565b5b6200030b858286016200028f565b925050602083015167ffffffffffffffff8111156200032f576200032e62000134565b5b6200033d858286016200028f565b9150509250929050565b600081519050919050565b7f4e487b7100000000000000000000000000000000000000000000000000000000600052602260045260246000fd5b600060028204905060018216806200039a57607f821691505b602082108103620003b057620003af62000352565b5b50919050565b60008190508160005260206000209050919050565b60006020601f8301049050919050565b600082821b905092915050565b6000600883026200041a7fffffffffffffffffffffffffffffffffffffffffffffffffffffffffffffffff82620003db565b620004268683620003db565b95508019841693508086168417925050509392505050565b6000819050919050565b6000819050919050565b6000620004736200046d62000467846200043e565b62000448565b6200043e565b9050919050565b6000819050919050565b6200048f8362000452565b620004a76200049e826200047a565b848454620003e8565b825550505050565b600090565b620004be620004af565b620004cb81848462000484565b505050565b5b81811015620004f357620004e7600082620004b4565b600181019050620004d1565b5050565b601f82111562000542576200050c81620003b6565b6200051784620003cb565b8101602085101562000527578190505b6200053f6200053685620003cb565b830182620004d0565b50505b505050565b600082821c905092915050565b6000620005676000198460080262000547565b1980831691505092915050565b600062000582838362000554565b9150826002028217905092915050565b6200059d8262000347565b67ffffffffffffffff811115620005b957620005b862000154565b5b620005c5825462000381565b620005d2828285620004f7565b600060209050601f8311600181146200060a5760008415620005f5578287015190505b62000601858262000574565b86555062000671565b601f1984166200061a86620003b6565b60005b8281101562000644578489015182556001820191506020850194506020810190506200061d565b8683101562000664578489015162000660601f89168262000554565b8355505b6001600288020188555050505b505050505050565b6116d280620006896000396000f3fe608060405234801561001057600080fd5b50600436106100cf5760003560e01c8063395093511161008c57806395d89b411161006657806395d89b4114610216578063a9059cbb14610234578063dd62ed3e14610264578063f2fde38b14610294576100cf565b8063395093511461019857806370a08231146101c85780638da5cb5b146101f8576100cf565b806306fdde03146100d4578063095ea7b3146100f257806318160ddd1461012257806323b872dd14610140578063246f8b9614610170578063313ce5671461017a575b600080fd5b6100dc6102b0565b6040516100e99190610ed1565b60405180910390f35b61010c60048036038101906101079190610f8c565b610342565b6040516101199190610fe7565b60405180910390f35b61012a610360565b6040516101379190611011565b60405180910390f35b61015a6004803603810190610155919061102c565b61036a565b6040516101679190610fe7565b60405180910390f35b610178610462565b005b6101826105ba565b60405161018f919061109b565b60405180910390f35b6101b260048036038101906101ad9190610f8c565b6105c3565b6040516101bf9190610fe7565b60405180910390f35b6101e260048036038101906101dd91906110b6565b61066f565b6040516101ef9190611011565b60405180910390f35b6102006106b7565b60405161020d91906110f2565b60405180910390f35b61021e6106e1565b60405161022b9190610ed1565b60405180910390f35b61024e60048036038101906102499190610f8c565b610773565b60405161025b9190610fe7565b60405180910390f35b61027e6004803603810190610279919061110d565b610791565b60405161028b9190611011565b60405180910390f35b6102ae60048036038101906102a991906110b6565b610818565b005b6060600380546102bf9061117c565b80601f01602080910402602001604051908101604052809291908181526020018280546102eb9061117c565b80156103385780601f1061030d57610100808354040283529160200191610338565b820191906000526020600020905b81548152906001019060200180831161031b57829003601f168201915b5050505050905090565b600061035661034f6109de565b84846109e6565b6001905092915050565b6000600254905090565b6000610377848484610baf565b6000600160008673ffffffffffffffffffffffffffffffffffffffff1673ffffffffffffffffffffffffffffffffffffffff16815260200190815260200160002060006103c26109de565b73ffffffffffffffffffffffffffffffffffffffff1673ffffffffffffffffffffffffffffffffffffffff16815260200190815260200160002054905082811015610442576040517f08c379a00000000000000000000000000000000000000000000000000000000081526004016104399061121f565b60405180910390fd5b6104568561044e6109de565b8584036109e6565b60019150509392505050565b61046a6109de565b73ffffffffffffffffffffffffffffffffffffffff16600560009054906101000a900473ffffffffffffffffffffffffffffffffffffffff1673ffffffffffffffffffffffffffffffffffffffff16146104f9576040517f08c379a00000000000000000000000000000000000000000000000000000000081526004016104f09061128b565b60405180910390fd5b600073ffffffffffffffffffffffffffffffffffffffff16600560009054906101000a900473ffffffffffffffffffffffffffffffffffffffff1673ffffffffffffffffffffffffffffffffffffffff167f8be0079c531659141344cd1fd0a4f28419497f9722a3daafe3b4186f6b6457e060405160405180910390a36000600560006101000a81548173ffffffffffffffffffffffffffffffffffffffff021916908373ffffffffffffffffffffffffffffffffffffffff160217905550565b60006012905090565b60006106656105d06109de565b8484600160006105de6109de565b73ffffffffffffffffffffffffffffffffffffffff1673ffffffffffffffffffffffffffffffffffffffff16815260200190815260200160002060008873ffffffffffffffffffffffffffffffffffffffff1673ffffffffffffffffffffffffffffffffffffffff1681526020019081526020016000205461066091906112da565b6109e6565b6001905092915050565b60008060008373ffffffffffffffffffffffffffffffffffffffff1673ffffffffffffffffffffffffffffffffffffffff168152602001908152602001600020549050919050565b6000600560009054906101000a900473ffffffffffffffffffffffffffffffffffffffff16905090565b6060600480546106f09061117c565b80601f016020809104026020016040519081016040528092919081815260200182805461071c9061117c565b80156107695780601f1061073e57610100808354040283529160200191610769565b820191906000526020600020905b81548152906001019060200180831161074c57829003601f168201915b5050505050905090565b60006107876107806109de565b8484610baf565b6001905092915050565b6000600160008473ffffffffffffffffffffffffffffffffffffffff1673ffffffffffffffffffffffffffffffffffffffff16815260200190815260200160002060008373ffffffffffffffffffffffffffffffffffffffff1673ffffffffffffffffffffffffffffffffffffffff16815260200190815260200160002054905092915050565b6108206109de565b73ffffffffffffffffffffffffffffffffffffffff16600560009054906101000a900473ffffffffffffffffffffffffffffffffffffffff1673ffffffffffffffffffffffffffffffffffffffff16146108af576040517f08c379a00000000000000000000000000000000000000000000000000000000081526004016108a69061128b565b60405180910390fd5b600073ffffffffffffffffffffffffffffffffffffffff168173ffffffffffffffffffffffffffffffffffffffff160361091e576040517f08c379a0000000000000000000000000000000000000000000000000000000008152600401610915906113a2565b60405180910390fd5b8073ffffffffffffffffffffffffffffffffffffffff16600560009054906101000a900473ffffffffffffffffffffffffffffffffffffffff1673ffffffffffffffffffffffffffffffffffffffff167f8be0079c531659141344cd1fd0a4f28419497f9722a3daafe3b4186f6b6457e060405160405180910390a380600560006101000a81548173ffffffffffffffffffffffffffffffffffffffff021916908373ffffffffffffffffffffffffffffffffffffffff16021790555050565b600033905090565b600073ffffffffffffffffffffffffffffffffffffffff168373ffffffffffffffffffffffffffffffffffffffff1603610a55576040517f08c379a0000000000000000000000000000000000000000000000000000000008152600401610a4c90611434565b60405180910390fd5b600073ffffffffffffffffffffffffffffffffffffffff168273ffffffffffffffffffffffffffffffffffffffff1603610ac4576040517f08c379a0000000000000000000000000000000000000000000000000000000008152600401610abb906114c6565b60405180910390fd5b80600160008573ffffffffffffffffffffffffffffffffffffffff1673ffffffffffffffffffffffffffffffffffffffff16815260200190815260200160002060008473ffffffffffffffffffffffffffffffffffffffff1673ffffffffffffffffffffffffffffffffffffffff168152602001908152602001600020819055508173ffffffffffffffffffffffffffffffffffffffff168373ffffffffffffffffffffffffffffffffffffffff167f8c5be1e5ebec7d5bd14f71427d1e84f3dd0314c0f7b2291e5b200ac8c7c3b92583604051610ba29190611011565b60405180910390a3505050565b600073ffffffffffffffffffffffffffffffffffffffff168373ffffffffffffffffffffffffffffffffffffffff1603610c1e576040517f08c379a0000000000000000000000000000000000000000000000000000000008152600401610c1590611558565b60405180910390fd5b600073ffffffffffffffffffffffffffffffffffffffff168273ffffffffffffffffffffffffffffffffffffffff1603610c8d576040517f08c379a0000000000000000000000000000000000000000000000000000000008152600401610c84906115ea565b60405180910390fd5b610c98838383610e2e565b60008060008573ffffffffffffffffffffffffffffffffffffffff1673ffffffffffffffffffffffffffffffffffffffff16815260200190815260200160002054905081811015610d1e576040517f08c379a0000000000000000000000000000000000000000000000000000000008152600401610d159061167c565b60405180910390fd5b8181036000808673ffffffffffffffffffffffffffffffffffffffff1673ffffffffffffffffffffffffffffffffffffffff16815260200190815260200160002081905550816000808573ffffffffffffffffffffffffffffffffffffffff1673ffffffffffffffffffffffffffffffffffffffff1681526020019081526020016000206000828254610db191906112da565b925050819055508273ffffffffffffffffffffffffffffffffffffffff168473ffffffffffffffffffffffffffffffffffffffff167fddf252ad1be2c89b69c2b068fc378daa952ba7f163c4a11628f55a4df523b3ef84604051610e159190611011565b60405180910390a3610e28848484610e33565b50505050565b505050565b505050565b600081519050919050565b600082825260208201905092915050565b60005b83811015610e72578082015181840152602081019050610e57565b83811115610e81576000848401525b50505050565b6000601f19601f8301169050919050565b6000610ea382610e38565b610ead8185610e43565b9350610ebd818560208601610e54565b610ec681610e87565b840191505092915050565b60006020820190508181036000830152610eeb8184610e98565b905092915050565b600080fd5b600073ffffffffffffffffffffffffffffffffffffffff82169050919050565b6000610f2382610ef8565b9050919050565b610f3381610f18565b8114610f3e57600080fd5b50565b600081359050610f5081610f2a565b92915050565b6000819050919050565b610f6981610f56565b8114610f7457600080fd5b50565b600081359050610f8681610f60565b92915050565b60008060408385031215610fa357610fa2610ef3565b5b6000610fb185828601610f41565b9250506020610fc285828601610f77565b9150509250929050565b60008115159050919050565b610fe181610fcc565b82525050565b6000602082019050610ffc6000830184610fd8565b92915050565b61100b81610f56565b82525050565b60006020820190506110266000830184611002565b92915050565b60008060006060848603121561104557611044610ef3565b5b600061105386828701610f41565b935050602061106486828701610f41565b925050604061107586828701610f77565b9150509250925092565b600060ff82169050919050565b6110958161107f565b82525050565b60006020820190506110b0600083018461108c565b92915050565b6000602082840312156110cc576110cb610ef3565b5b60006110da84828501610f41565b91505092915050565b6110ec81610f18565b82525050565b600060208201905061110760008301846110e3565b92915050565b6000806040838503121561112457611123610ef3565b5b600061113285828601610f41565b925050602061114385828601610f41565b9150509250929050565b7f4e487b7100000000000000000000000000000000000000000000000000000000600052602260045260246000fd5b6000600282049050600182168061119457607f821691505b6020821081036111a7576111a661114d565b5b50919050565b7f45524332303a207472616e7366657220616d6f756e742065786365656473206160008201527f6c6c6f77616e6365000000000000000000000000000000000000000000000000602082015250565b6000611209602883610e43565b9150611214826111ad565b604082019050919050565b60006020820190508181036000830152611238816111fc565b9050919050565b7f45524332303a2063616c6c6572206973206e6f7420746865206f776e65720000600082015250565b6000611275601e83610e43565b91506112808261123f565b602082019050919050565b600060208201905081810360008301526112a481611268565b9050919050565b7f4e487b7100000000000000000000000000000000000000000000000000000000600052601160045260246000fd5b60006112e582610f56565b91506112f083610f56565b9250827fffffffffffffffffffffffffffffffffffffffffffffffffffffffffffffffff03821115611325576113246112ab565b5b828201905092915050565b7f45524332303a206e6577206f776e657220697320746865207a65726f2061646460008201527f7265737300000000000000000000000000000000000000000000000000000000602082015250565b600061138c602483610e43565b915061139782611330565b604082019050919050565b600060208201905081810360008301526113bb8161137f565b9050919050565b7f45524332303a20617070726f76652066726f6d20746865207a65726f2061646460008201527f7265737300000000000000000000000000000000000000000000000000000000602082015250565b600061141e602483610e43565b9150611429826113c2565b604082019050919050565b6000602082019050818103600083015261144d81611411565b9050919050565b7f45524332303a20617070726f766520746f20746865207a65726f20616464726560008201527f7373000000000000000000000000000000000000000000000000000000000000602082015250565b60006114b0602283610e43565b91506114bb82611454565b604082019050919050565b600060208201905081810360008301526114df816114a3565b9050919050565b7f45524332303a207472616e736665722066726f6d20746865207a65726f20616460008201527f6472657373000000000000000000000000000000000000000000000000000000602082015250565b6000611542602583610e43565b915061154d826114e6565b604082019050919050565b6000602082019050818103600083015261157181611535565b9050919050565b7f45524332303a207472616e7366657220746f20746865207a65726f206164647260008201527f6573730000000000000000000000000000000000000000000000000000000000602082015250565b60006115d4602383610e43565b91506115df82611578565b604082019050919050565b60006020820190508181036000830152611603816115c7565b9050919050565b7f45524332303a207472616e7366657220616d6f756e742065786365656473206260008201527f616c616e63650000000000000000000000000000000000000000000000000000602082015250565b6000611666602683610e43565b91506116718261160a565b604082019050919050565b6000602082019050818103600083015261169581611659565b905091905056fea2646970667358221220ad09e0b68d3ed4232b482624c6fe7000e8eb09c24a0e2ca2e01d8e679c157f9464736f6c634300080f0033",
					"opcodes": "PUSH1 0x80 PUSH1 0x40 MSTORE CALLVALUE DUP1 ISZERO PUSH3 0x11 JUMPI PUSH1 0x0 DUP1 REVERT JUMPDEST POP PUSH1 0x40 MLOAD PUSH3 0x1D5B CODESIZE SUB DUP1 PUSH3 0x1D5B DUP4 CODECOPY DUP2 DUP2 ADD PUSH1 0x40 MSTORE DUP2 ADD SWAP1 PUSH3 0x37 SWAP2 SWAP1 PUSH3 0x2C2 JUMP JUMPDEST DUP2 PUSH1 0x3 SWAP1 DUP2 PUSH3 0x48 SWAP2 SWAP1 PUSH3 0x592 JUMP JUMPDEST POP DUP1 PUSH1 0x4 SWAP1 DUP2 PUSH3 0x5A SWAP2 SWAP1 PUSH3 0x592 JUMP JUMPDEST POP PUSH3 0x6B PUSH3 0x11D PUSH1 0x20 SHL PUSH1 0x20 SHR JUMP JUMPDEST PUSH1 0x5 PUSH1 0x0 PUSH2 0x100 EXP DUP2 SLOAD DUP2 PUSH20 0xFFFFFFFFFFFFFFFFFFFFFFFFFFFFFFFFFFFFFFFF MUL NOT AND SWAP1 DUP4 PUSH20 0xFFFFFFFFFFFFFFFFFFFFFFFFFFFFFFFFFFFFFFFF AND MUL OR SWAP1 SSTORE POP PUSH3 0xBB PUSH3 0x11D PUSH1 0x20 SHL PUSH1 0x20 SHR JUMP JUMPDEST PUSH20 0xFFFFFFFFFFFFFFFFFFFFFFFFFFFFFFFFFFFFFFFF AND PUSH1 0x0 PUSH20 0xFFFFFFFFFFFFFFFFFFFFFFFFFFFFFFFFFFFFFFFF AND PUSH32 0x8BE0079C531659141344CD1FD0A4F28419497F9722A3DAAFE3B4186F6B6457E0 PUSH1 0x40 MLOAD PUSH1 0x40 MLOAD DUP1 SWAP2 SUB SWAP1 LOG3 POP POP PUSH3 0x679 JUMP JUMPDEST PUSH1 0x0 CALLER SWAP1 POP SWAP1 JUMP JUMPDEST PUSH1 0x0 PUSH1 0x40 MLOAD SWAP1 POP SWAP1 JUMP JUMPDEST PUSH1 0x0 DUP1 REVERT JUMPDEST PUSH1 0x0 DUP1 REVERT JUMPDEST PUSH1 0x0 DUP1 REVERT JUMPDEST PUSH1 0x0 DUP1 REVERT JUMPDEST PUSH1 0x0 PUSH1 0x1F NOT PUSH1 0x1F DUP4 ADD AND SWAP1 POP SWAP2 SWAP1 POP JUMP JUMPDEST PUSH32 0x4E487B7100000000000000000000000000000000000000000000000000000000 PUSH1 0x0 MSTORE PUSH1 0x41 PUSH1 0x4 MSTORE PUSH1 0x24 PUSH1 0x0 REVERT JUMPDEST PUSH3 0x18E DUP3 PUSH3 0x143 JUMP JUMPDEST DUP2 ADD DUP2 DUP2 LT PUSH8 0xFFFFFFFFFFFFFFFF DUP3 GT OR ISZERO PUSH3 0x1B0 JUMPI PUSH3 0x1AF PUSH3 0x154 JUMP JUMPDEST JUMPDEST DUP1 PUSH1 0x40 MSTORE POP POP POP JUMP JUMPDEST PUSH1 0x0 PUSH3 0x1C5 PUSH3 0x125 JUMP JUMPDEST SWAP1 POP PUSH3 0x1D3 DUP3 DUP3 PUSH3 0x183 JUMP JUMPDEST SWAP2 SWAP1 POP JUMP JUMPDEST PUSH1 0x0 PUSH8 0xFFFFFFFFFFFFFFFF DUP3 GT ISZERO PUSH3 0x1F6 JUMPI PUSH3 0x1F5 PUSH3 0x154 JUMP JUMPDEST JUMPDEST PUSH3 0x201 DUP3 PUSH3 0x143 JUMP JUMPDEST SWAP1 POP PUSH1 0x20 DUP2 ADD SWAP1 POP SWAP2 SWAP1 POP JUMP JUMPDEST PUSH1 0x0 JUMPDEST DUP4 DUP2 LT ISZERO PUSH3 0x22E JUMPI DUP1 DUP3 ADD MLOAD DUP2 DUP5 ADD MSTORE PUSH1 0x20 DUP2 ADD SWAP1 POP PUSH3 0x211 JUMP JUMPDEST DUP4 DUP2 GT ISZERO PUSH3 0x23E JUMPI PUSH1 0x0 DUP5 DUP5 ADD MSTORE JUMPDEST POP POP POP POP JUMP JUMPDEST PUSH1 0x0 PUSH3 0x25B PUSH3 0x255 DUP5 PUSH3 0x1D8 JUMP JUMPDEST PUSH3 0x1B9 JUMP JUMPDEST SWAP1 POP DUP3 DUP2 MSTORE PUSH1 0x20 DUP2 ADD DUP5 DUP5 DUP5 ADD GT ISZERO PUSH3 0x27A JUMPI PUSH3 0x279 PUSH3 0x13E JUMP JUMPDEST JUMPDEST PUSH3 0x287 DUP5 DUP3 DUP6 PUSH3 0x20E JUMP JUMPDEST POP SWAP4 SWAP3 POP POP POP JUMP JUMPDEST PUSH1 0x0 DUP3 PUSH1 0x1F DUP4 ADD SLT PUSH3 0x2A7 JUMPI PUSH3 0x2A6 PUSH3 0x139 JUMP JUMPDEST JUMPDEST DUP2 MLOAD PUSH3 0x2B9 DUP5 DUP3 PUSH1 0x20 DUP7 ADD PUSH3 0x244 JUMP JUMPDEST SWAP2 POP POP SWAP3 SWAP2 POP POP JUMP JUMPDEST PUSH1 0x0 DUP1 PUSH1 0x40 DUP4 DUP6 SUB SLT ISZERO PUSH3 0x2DC JUMPI PUSH3 0x2DB PUSH3 0x12F JUMP JUMPDEST JUMPDEST PUSH1 0x0 DUP4 ADD MLOAD PUSH8 0xFFFFFFFFFFFFFFFF DUP2 GT ISZERO PUSH3 0x2FD JUMPI PUSH3 0x2FC PUSH3 0x134 JUMP JUMPDEST JUMPDEST PUSH3 0x30B DUP6 DUP3 DUP7 ADD PUSH3 0x28F JUMP JUMPDEST SWAP3 POP POP PUSH1 0x20 DUP4 ADD MLOAD PUSH8 0xFFFFFFFFFFFFFFFF DUP2 GT ISZERO PUSH3 0x32F JUMPI PUSH3 0x32E PUSH3 0x134 JUMP JUMPDEST JUMPDEST PUSH3 0x33D DUP6 DUP3 DUP7 ADD PUSH3 0x28F JUMP JUMPDEST SWAP2 POP POP SWAP3 POP SWAP3 SWAP1 POP JUMP JUMPDEST PUSH1 0x0 DUP2 MLOAD SWAP1 POP SWAP2 SWAP1 POP JUMP JUMPDEST PUSH32 0x4E487B7100000000000000000000000000000000000000000000000000000000 PUSH1 0x0 MSTORE PUSH1 0x22 PUSH1 0x4 MSTORE PUSH1 0x24 PUSH1 0x0 REVERT JUMPDEST PUSH1 0x0 PUSH1 0x2 DUP3 DIV SWAP1 POP PUSH1 0x1 DUP3 AND DUP1 PUSH3 0x39A JUMPI PUSH1 0x7F DUP3 AND SWAP2 POP JUMPDEST PUSH1 0x20 DUP3 LT DUP2 SUB PUSH3 0x3B0 JUMPI PUSH3 0x3AF PUSH3 0x352 JUMP JUMPDEST JUMPDEST POP SWAP2 SWAP1 POP JUMP JUMPDEST PUSH1 0x0 DUP2 SWAP1 POP DUP2 PUSH1 0x0 MSTORE PUSH1 0x20 PUSH1 0x0 KECCAK256 SWAP1 POP SWAP2 SWAP1 POP JUMP JUMPDEST PUSH1 0x0 PUSH1 0x20 PUSH1 0x1F DUP4 ADD DIV SWAP1 POP SWAP2 SWAP1 POP JUMP JUMPDEST PUSH1 0x0 DUP3 DUP3 SHL SWAP1 POP SWAP3 SWAP2 POP POP JUMP JUMPDEST PUSH1 0x0 PUSH1 0x8 DUP4 MUL PUSH3 0x41A PUSH32 0xFFFFFFFFFFFFFFFFFFFFFFFFFFFFFFFFFFFFFFFFFFFFFFFFFFFFFFFFFFFFFFFF DUP3 PUSH3 0x3DB JUMP JUMPDEST PUSH3 0x426 DUP7 DUP4 PUSH3 0x3DB JUMP JUMPDEST SWAP6 POP DUP1 NOT DUP5 AND SWAP4 POP DUP1 DUP7 AND DUP5 OR SWAP3 POP POP POP SWAP4 SWAP3 POP POP POP JUMP JUMPDEST PUSH1 0x0 DUP2 SWAP1 POP SWAP2 SWAP1 POP JUMP JUMPDEST PUSH1 0x0 DUP2 SWAP1 POP SWAP2 SWAP1 POP JUMP JUMPDEST PUSH1 0x0 PUSH3 0x473 PUSH3 0x46D PUSH3 0x467 DUP5 PUSH3 0x43E JUMP JUMPDEST PUSH3 0x448 JUMP JUMPDEST PUSH3 0x43E JUMP JUMPDEST SWAP1 POP SWAP2 SWAP1 POP JUMP JUMPDEST PUSH1 0x0 DUP2 SWAP1 POP SWAP2 SWAP1 POP JUMP JUMPDEST PUSH3 0x48F DUP4 PUSH3 0x452 JUMP JUMPDEST PUSH3 0x4A7 PUSH3 0x49E DUP3 PUSH3 0x47A JUMP JUMPDEST DUP5 DUP5 SLOAD PUSH3 0x3E8 JUMP JUMPDEST DUP3 SSTORE POP POP POP POP JUMP JUMPDEST PUSH1 0x0 SWAP1 JUMP JUMPDEST PUSH3 0x4BE PUSH3 0x4AF JUMP JUMPDEST PUSH3 0x4CB DUP2 DUP5 DUP5 PUSH3 0x484 JUMP JUMPDEST POP POP POP JUMP JUMPDEST JUMPDEST DUP2 DUP2 LT ISZERO PUSH3 0x4F3 JUMPI PUSH3 0x4E7 PUSH1 0x0 DUP3 PUSH3 0x4B4 JUMP JUMPDEST PUSH1 0x1 DUP2 ADD SWAP1 POP PUSH3 0x4D1 JUMP JUMPDEST POP POP JUMP JUMPDEST PUSH1 0x1F DUP3 GT ISZERO PUSH3 0x542 JUMPI PUSH3 0x50C DUP2 PUSH3 0x3B6 JUMP JUMPDEST PUSH3 0x517 DUP5 PUSH3 0x3CB JUMP JUMPDEST DUP2 ADD PUSH1 0x20 DUP6 LT ISZERO PUSH3 0x527 JUMPI DUP2 SWAP1 POP JUMPDEST PUSH3 0x53F PUSH3 0x536 DUP6 PUSH3 0x3CB JUMP JUMPDEST DUP4 ADD DUP3 PUSH3 0x4D0 JUMP JUMPDEST POP POP JUMPDEST POP POP POP JUMP JUMPDEST PUSH1 0x0 DUP3 DUP3 SHR SWAP1 POP SWAP3 SWAP2 POP POP JUMP JUMPDEST PUSH1 0x0 PUSH3 0x567 PUSH1 0x0 NOT DUP5 PUSH1 0x8 MUL PUSH3 0x547 JUMP JUMPDEST NOT DUP1 DUP4 AND SWAP2 POP POP SWAP3 SWAP2 POP POP JUMP JUMPDEST PUSH1 0x0 PUSH3 0x582 DUP4 DUP4 PUSH3 0x554 JUMP JUMPDEST SWAP2 POP DUP3 PUSH1 0x2 MUL DUP3 OR SWAP1 POP SWAP3 SWAP2 POP POP JUMP JUMPDEST PUSH3 0x59D DUP3 PUSH3 0x347 JUMP JUMPDEST PUSH8 0xFFFFFFFFFFFFFFFF DUP2 GT ISZERO PUSH3 0x5B9 JUMPI PUSH3 0x5B8 PUSH3 0x154 JUMP JUMPDEST JUMPDEST PUSH3 0x5C5 DUP3 SLOAD PUSH3 0x381 JUMP JUMPDEST PUSH3 0x5D2 DUP3 DUP3 DUP6 PUSH3 0x4F7 JUMP JUMPDEST PUSH1 0x0 PUSH1 0x20 SWAP1 POP PUSH1 0x1F DUP4 GT PUSH1 0x1 DUP2 EQ PUSH3 0x60A JUMPI PUSH1 0x0 DUP5 ISZERO PUSH3 0x5F5 JUMPI DUP3 DUP8 ADD MLOAD SWAP1 POP JUMPDEST PUSH3 0x601 DUP6 DUP3 PUSH3 0x574 JUMP JUMPDEST DUP7 SSTORE POP PUSH3 0x671 JUMP JUMPDEST PUSH1 0x1F NOT DUP5 AND PUSH3 0x61A DUP7 PUSH3 0x3B6 JUMP JUMPDEST PUSH1 0x0 JUMPDEST DUP3 DUP2 LT ISZERO PUSH3 0x644 JUMPI DUP5 DUP10 ADD MLOAD DUP3 SSTORE PUSH1 0x1 DUP3 ADD SWAP2 POP PUSH1 0x20 DUP6 ADD SWAP5 POP PUSH1 0x20 DUP2 ADD SWAP1 POP PUSH3 0x61D JUMP JUMPDEST DUP7 DUP4 LT ISZERO PUSH3 0x664 JUMPI DUP5 DUP10 ADD MLOAD PUSH3 0x660 PUSH1 0x1F DUP10 AND DUP3 PUSH3 0x554 JUMP JUMPDEST DUP4 SSTORE POP JUMPDEST PUSH1 0x1 PUSH1 0x2 DUP9 MUL ADD DUP9 SSTORE POP POP POP JUMPDEST POP POP POP POP POP POP JUMP JUMPDEST PUSH2 0x16D2 DUP1 PUSH3 0x689 PUSH1 0x0 CODECOPY PUSH1 0x0 RETURN INVALID PUSH1 0x80 PUSH1 0x40 MSTORE CALLVALUE DUP1 ISZERO PUSH2 0x10 JUMPI PUSH1 0x0 DUP1 REVERT JUMPDEST POP PUSH1 0x4 CALLDATASIZE LT PUSH2 0xCF JUMPI PUSH1 0x0 CALLDATALOAD PUSH1 0xE0 SHR DUP1 PUSH4 0x39509351 GT PUSH2 0x8C JUMPI DUP1 PUSH4 0x95D89B41 GT PUSH2 0x66 JUMPI DUP1 PUSH4 0x95D89B41 EQ PUSH2 0x216 JUMPI DUP1 PUSH4 0xA9059CBB EQ PUSH2 0x234 JUMPI DUP1 PUSH4 0xDD62ED3E EQ PUSH2 0x264 JUMPI DUP1 PUSH4 0xF2FDE38B EQ PUSH2 0x294 JUMPI PUSH2 0xCF JUMP JUMPDEST DUP1 PUSH4 0x39509351 EQ PUSH2 0x198 JUMPI DUP1 PUSH4 0x70A08231 EQ PUSH2 0x1C8 JUMPI DUP1 PUSH4 0x8DA5CB5B EQ PUSH2 0x1F8 JUMPI PUSH2 0xCF JUMP JUMPDEST DUP1 PUSH4 0x6FDDE03 EQ PUSH2 0xD4 JUMPI DUP1 PUSH4 0x95EA7B3 EQ PUSH2 0xF2 JUMPI DUP1 PUSH4 0x18160DDD EQ PUSH2 0x122 JUMPI DUP1 PUSH4 0x23B872DD EQ PUSH2 0x140 JUMPI DUP1 PUSH4 0x246F8B96 EQ PUSH2 0x170 JUMPI DUP1 PUSH4 0x313CE567 EQ PUSH2 0x17A JUMPI JUMPDEST PUSH1 0x0 DUP1 REVERT JUMPDEST PUSH2 0xDC PUSH2 0x2B0 JUMP JUMPDEST PUSH1 0x40 MLOAD PUSH2 0xE9 SWAP2 SWAP1 PUSH2 0xED1 JUMP JUMPDEST PUSH1 0x40 MLOAD DUP1 SWAP2 SUB SWAP1 RETURN JUMPDEST PUSH2 0x10C PUSH1 0x4 DUP1 CALLDATASIZE SUB DUP2 ADD SWAP1 PUSH2 0x107 SWAP2 SWAP1 PUSH2 0xF8C JUMP JUMPDEST PUSH2 0x342 JUMP JUMPDEST PUSH1 0x40 MLOAD PUSH2 0x119 SWAP2 SWAP1 PUSH2 0xFE7 JUMP JUMPDEST PUSH1 0x40 MLOAD DUP1 SWAP2 SUB SWAP1 RETURN JUMPDEST PUSH2 0x12A PUSH2 0x360 JUMP JUMPDEST PUSH1 0x40 MLOAD PUSH2 0x137 SWAP2 SWAP1 PUSH2 0x1011 JUMP JUMPDEST PUSH1 0x40 MLOAD DUP1 SWAP2 SUB SWAP1 RETURN JUMPDEST PUSH2 0x15A PUSH1 0x4 DUP1 CALLDATASIZE SUB DUP2 ADD SWAP1 PUSH2 0x155 SWAP2 SWAP1 PUSH2 0x102C JUMP JUMPDEST PUSH2 0x36A JUMP JUMPDEST PUSH1 0x40 MLOAD PUSH2 0x167 SWAP2 SWAP1 PUSH2 0xFE7 JUMP JUMPDEST PUSH1 0x40 MLOAD DUP1 SWAP2 SUB SWAP1 RETURN JUMPDEST PUSH2 0x178 PUSH2 0x462 JUMP JUMPDEST STOP JUMPDEST PUSH2 0x182 PUSH2 0x5BA JUMP JUMPDEST PUSH1 0x40 MLOAD PUSH2 0x18F SWAP2 SWAP1 PUSH2 0x109B JUMP JUMPDEST PUSH1 0x40 MLOAD DUP1 SWAP2 SUB SWAP1 RETURN JUMPDEST PUSH2 0x1B2 PUSH1 0x4 DUP1 CALLDATASIZE SUB DUP2 ADD SWAP1 PUSH2 0x1AD SWAP2 SWAP1 PUSH2 0xF8C JUMP JUMPDEST PUSH2 0x5C3 JUMP JUMPDEST PUSH1 0x40 MLOAD PUSH2 0x1BF SWAP2 SWAP1 PUSH2 0xFE7 JUMP JUMPDEST PUSH1 0x40 MLOAD DUP1 SWAP2 SUB SWAP1 RETURN JUMPDEST PUSH2 0x1E2 PUSH1 0x4 DUP1 CALLDATASIZE SUB DUP2 ADD SWAP1 PUSH2 0x1DD SWAP2 SWAP1 PUSH2 0x10B6 JUMP JUMPDEST PUSH2 0x66F JUMP JUMPDEST PUSH1 0x40 MLOAD PUSH2 0x1EF SWAP2 SWAP1 PUSH2 0x1011 JUMP JUMPDEST PUSH1 0x40 MLOAD DUP1 SWAP2 SUB SWAP1 RETURN JUMPDEST PUSH2 0x200 PUSH2 0x6B7 JUMP JUMPDEST PUSH1 0x40 MLOAD PUSH2 0x20D SWAP2 SWAP1 PUSH2 0x10F2 JUMP JUMPDEST PUSH1 0x40 MLOAD DUP1 SWAP2 SUB SWAP1 RETURN JUMPDEST PUSH2 0x21E PUSH2 0x6E1 JUMP JUMPDEST PUSH1 0x40 MLOAD PUSH2 0x22B SWAP2 SWAP1 PUSH2 0xED1 JUMP JUMPDEST PUSH1 0x40 MLOAD DUP1 SWAP2 SUB SWAP1 RETURN JUMPDEST PUSH2 0x24E PUSH1 0x4 DUP1 CALLDATASIZE SUB DUP2 ADD SWAP1 PUSH2 0x249 SWAP2 SWAP1 PUSH2 0xF8C JUMP JUMPDEST PUSH2 0x773 JUMP JUMPDEST PUSH1 0x40 MLOAD PUSH2 0x25B SWAP2 SWAP1 PUSH2 0xFE7 JUMP JUMPDEST PUSH1 0x40 MLOAD DUP1 SWAP2 SUB SWAP1 RETURN JUMPDEST PUSH2 0x27E PUSH1 0x4 DUP1 CALLDATASIZE SUB DUP2 ADD SWAP1 PUSH2 0x279 SWAP2 SWAP1 PUSH2 0x110D JUMP JUMPDEST PUSH2 0x791 JUMP JUMPDEST PUSH1 0x40 MLOAD PUSH2 0x28B SWAP2 SWAP1 PUSH2 0x1011 JUMP JUMPDEST PUSH1 0x40 MLOAD DUP1 SWAP2 SUB SWAP1 RETURN JUMPDEST PUSH2 0x2AE PUSH1 0x4 DUP1 CALLDATASIZE SUB DUP2 ADD SWAP1 PUSH2 0x2A9 SWAP2 SWAP1 PUSH2 0x10B6 JUMP JUMPDEST PUSH2 0x818 JUMP JUMPDEST STOP JUMPDEST PUSH1 0x60 PUSH1 0x3 DUP1 SLOAD PUSH2 0x2BF SWAP1 PUSH2 0x117C JUMP JUMPDEST DUP1 PUSH1 0x1F ADD PUSH1 0x20 DUP1 SWAP2 DIV MUL PUSH1 0x20 ADD PUSH1 0x40 MLOAD SWAP1 DUP2 ADD PUSH1 0x40 MSTORE DUP1 SWAP3 SWAP2 SWAP1 DUP2 DUP2 MSTORE PUSH1 0x20 ADD DUP3 DUP1 SLOAD PUSH2 0x2EB SWAP1 PUSH2 0x117C JUMP JUMPDEST DUP1 ISZERO PUSH2 0x338 JUMPI DUP1 PUSH1 0x1F LT PUSH2 0x30D JUMPI PUSH2 0x100 DUP1 DUP4 SLOAD DIV MUL DUP4 MSTORE SWAP2 PUSH1 0x20 ADD SWAP2 PUSH2 0x338 JUMP JUMPDEST DUP3 ADD SWAP2 SWAP1 PUSH1 0x0 MSTORE PUSH1 0x20 PUSH1 0x0 KECCAK256 SWAP1 JUMPDEST DUP2 SLOAD DUP2 MSTORE SWAP1 PUSH1 0x1 ADD SWAP1 PUSH1 0x20 ADD DUP1 DUP4 GT PUSH2 0x31B JUMPI DUP3 SWAP1 SUB PUSH1 0x1F AND DUP3 ADD SWAP2 JUMPDEST POP POP POP POP POP SWAP1 POP SWAP1 JUMP JUMPDEST PUSH1 0x0 PUSH2 0x356 PUSH2 0x34F PUSH2 0x9DE JUMP JUMPDEST DUP5 DUP5 PUSH2 0x9E6 JUMP JUMPDEST PUSH1 0x1 SWAP1 POP SWAP3 SWAP2 POP POP JUMP JUMPDEST PUSH1 0x0 PUSH1 0x2 SLOAD SWAP1 POP SWAP1 JUMP JUMPDEST PUSH1 0x0 PUSH2 0x377 DUP5 DUP5 DUP5 PUSH2 0xBAF JUMP JUMPDEST PUSH1 0x0 PUSH1 0x1 PUSH1 0x0 DUP7 PUSH20 0xFFFFFFFFFFFFFFFFFFFFFFFFFFFFFFFFFFFFFFFF AND PUSH20 0xFFFFFFFFFFFFFFFFFFFFFFFFFFFFFFFFFFFFFFFF AND DUP2 MSTORE PUSH1 0x20 ADD SWAP1 DUP2 MSTORE PUSH1 0x20 ADD PUSH1 0x0 KECCAK256 PUSH1 0x0 PUSH2 0x3C2 PUSH2 0x9DE JUMP JUMPDEST PUSH20 0xFFFFFFFFFFFFFFFFFFFFFFFFFFFFFFFFFFFFFFFF AND PUSH20 0xFFFFFFFFFFFFFFFFFFFFFFFFFFFFFFFFFFFFFFFF AND DUP2 MSTORE PUSH1 0x20 ADD SWAP1 DUP2 MSTORE PUSH1 0x20 ADD PUSH1 0x0 KECCAK256 SLOAD SWAP1 POP DUP3 DUP2 LT ISZERO PUSH2 0x442 JUMPI PUSH1 0x40 MLOAD PUSH32 0x8C379A000000000000000000000000000000000000000000000000000000000 DUP2 MSTORE PUSH1 0x4 ADD PUSH2 0x439 SWAP1 PUSH2 0x121F JUMP JUMPDEST PUSH1 0x40 MLOAD DUP1 SWAP2 SUB SWAP1 REVERT JUMPDEST PUSH2 0x456 DUP6 PUSH2 0x44E PUSH2 0x9DE JUMP JUMPDEST DUP6 DUP5 SUB PUSH2 0x9E6 JUMP JUMPDEST PUSH1 0x1 SWAP2 POP POP SWAP4 SWAP3 POP POP POP JUMP JUMPDEST PUSH2 0x46A PUSH2 0x9DE JUMP JUMPDEST PUSH20 0xFFFFFFFFFFFFFFFFFFFFFFFFFFFFFFFFFFFFFFFF AND PUSH1 0x5 PUSH1 0x0 SWAP1 SLOAD SWAP1 PUSH2 0x100 EXP SWAP1 DIV PUSH20 0xFFFFFFFFFFFFFFFFFFFFFFFFFFFFFFFFFFFFFFFF AND PUSH20 0xFFFFFFFFFFFFFFFFFFFFFFFFFFFFFFFFFFFFFFFF AND EQ PUSH2 0x4F9 JUMPI PUSH1 0x40 MLOAD PUSH32 0x8C379A000000000000000000000000000000000000000000000000000000000 DUP2 MSTORE PUSH1 0x4 ADD PUSH2 0x4F0 SWAP1 PUSH2 0x128B JUMP JUMPDEST PUSH1 0x40 MLOAD DUP1 SWAP2 SUB SWAP1 REVERT JUMPDEST PUSH1 0x0 PUSH20 0xFFFFFFFFFFFFFFFFFFFFFFFFFFFFFFFFFFFFFFFF AND PUSH1 0x5 PUSH1 0x0 SWAP1 SLOAD SWAP1 PUSH2 0x100 EXP SWAP1 DIV PUSH20 0xFFFFFFFFFFFFFFFFFFFFFFFFFFFFFFFFFFFFFFFF AND PUSH20 0xFFFFFFFFFFFFFFFFFFFFFFFFFFFFFFFFFFFFFFFF AND PUSH32 0x8BE0079C531659141344CD1FD0A4F28419497F9722A3DAAFE3B4186F6B6457E0 PUSH1 0x40 MLOAD PUSH1 0x40 MLOAD DUP1 SWAP2 SUB SWAP1 LOG3 PUSH1 0x0 PUSH1 0x5 PUSH1 0x0 PUSH2 0x100 EXP DUP2 SLOAD DUP2 PUSH20 0xFFFFFFFFFFFFFFFFFFFFFFFFFFFFFFFFFFFFFFFF MUL NOT AND SWAP1 DUP4 PUSH20 0xFFFFFFFFFFFFFFFFFFFFFFFFFFFFFFFFFFFFFFFF AND MUL OR SWAP1 SSTORE POP JUMP JUMPDEST PUSH1 0x0 PUSH1 0x12 SWAP1 POP SWAP1 JUMP JUMPDEST PUSH1 0x0 PUSH2 0x665 PUSH2 0x5D0 PUSH2 0x9DE JUMP JUMPDEST DUP5 DUP5 PUSH1 0x1 PUSH1 0x0 PUSH2 0x5DE PUSH2 0x9DE JUMP JUMPDEST PUSH20 0xFFFFFFFFFFFFFFFFFFFFFFFFFFFFFFFFFFFFFFFF AND PUSH20 0xFFFFFFFFFFFFFFFFFFFFFFFFFFFFFFFFFFFFFFFF AND DUP2 MSTORE PUSH1 0x20 ADD SWAP1 DUP2 MSTORE PUSH1 0x20 ADD PUSH1 0x0 KECCAK256 PUSH1 0x0 DUP9 PUSH20 0xFFFFFFFFFFFFFFFFFFFFFFFFFFFFFFFFFFFFFFFF AND PUSH20 0xFFFFFFFFFFFFFFFFFFFFFFFFFFFFFFFFFFFFFFFF AND DUP2 MSTORE PUSH1 0x20 ADD SWAP1 DUP2 MSTORE PUSH1 0x20 ADD PUSH1 0x0 KECCAK256 SLOAD PUSH2 0x660 SWAP2 SWAP1 PUSH2 0x12DA JUMP JUMPDEST PUSH2 0x9E6 JUMP JUMPDEST PUSH1 0x1 SWAP1 POP SWAP3 SWAP2 POP POP JUMP JUMPDEST PUSH1 0x0 DUP1 PUSH1 0x0 DUP4 PUSH20 0xFFFFFFFFFFFFFFFFFFFFFFFFFFFFFFFFFFFFFFFF AND PUSH20 0xFFFFFFFFFFFFFFFFFFFFFFFFFFFFFFFFFFFFFFFF AND DUP2 MSTORE PUSH1 0x20 ADD SWAP1 DUP2 MSTORE PUSH1 0x20 ADD PUSH1 0x0 KECCAK256 SLOAD SWAP1 POP SWAP2 SWAP1 POP JUMP JUMPDEST PUSH1 0x0 PUSH1 0x5 PUSH1 0x0 SWAP1 SLOAD SWAP1 PUSH2 0x100 EXP SWAP1 DIV PUSH20 0xFFFFFFFFFFFFFFFFFFFFFFFFFFFFFFFFFFFFFFFF AND SWAP1 POP SWAP1 JUMP JUMPDEST PUSH1 0x60 PUSH1 0x4 DUP1 SLOAD PUSH2 0x6F0 SWAP1 PUSH2 0x117C JUMP JUMPDEST DUP1 PUSH1 0x1F ADD PUSH1 0x20 DUP1 SWAP2 DIV MUL PUSH1 0x20 ADD PUSH1 0x40 MLOAD SWAP1 DUP2 ADD PUSH1 0x40 MSTORE DUP1 SWAP3 SWAP2 SWAP1 DUP2 DUP2 MSTORE PUSH1 0x20 ADD DUP3 DUP1 SLOAD PUSH2 0x71C SWAP1 PUSH2 0x117C JUMP JUMPDEST DUP1 ISZERO PUSH2 0x769 JUMPI DUP1 PUSH1 0x1F LT PUSH2 0x73E JUMPI PUSH2 0x100 DUP1 DUP4 SLOAD DIV MUL DUP4 MSTORE SWAP2 PUSH1 0x20 ADD SWAP2 PUSH2 0x769 JUMP JUMPDEST DUP3 ADD SWAP2 SWAP1 PUSH1 0x0 MSTORE PUSH1 0x20 PUSH1 0x0 KECCAK256 SWAP1 JUMPDEST DUP2 SLOAD DUP2 MSTORE SWAP1 PUSH1 0x1 ADD SWAP1 PUSH1 0x20 ADD DUP1 DUP4 GT PUSH2 0x74C JUMPI DUP3 SWAP1 SUB PUSH1 0x1F AND DUP3 ADD SWAP2 JUMPDEST POP POP POP POP POP SWAP1 POP SWAP1 JUMP JUMPDEST PUSH1 0x0 PUSH2 0x787 PUSH2 0x780 PUSH2 0x9DE JUMP JUMPDEST DUP5 DUP5 PUSH2 0xBAF JUMP JUMPDEST PUSH1 0x1 SWAP1 POP SWAP3 SWAP2 POP POP JUMP JUMPDEST PUSH1 0x0 PUSH1 0x1 PUSH1 0x0 DUP5 PUSH20 0xFFFFFFFFFFFFFFFFFFFFFFFFFFFFFFFFFFFFFFFF AND PUSH20 0xFFFFFFFFFFFFFFFFFFFFFFFFFFFFFFFFFFFFFFFF AND DUP2 MSTORE PUSH1 0x20 ADD SWAP1 DUP2 MSTORE PUSH1 0x20 ADD PUSH1 0x0 KECCAK256 PUSH1 0x0 DUP4 PUSH20 0xFFFFFFFFFFFFFFFFFFFFFFFFFFFFFFFFFFFFFFFF AND PUSH20 0xFFFFFFFFFFFFFFFFFFFFFFFFFFFFFFFFFFFFFFFF AND DUP2 MSTORE PUSH1 0x20 ADD SWAP1 DUP2 MSTORE PUSH1 0x20 ADD PUSH1 0x0 KECCAK256 SLOAD SWAP1 POP SWAP3 SWAP2 POP POP JUMP JUMPDEST PUSH2 0x820 PUSH2 0x9DE JUMP JUMPDEST PUSH20 0xFFFFFFFFFFFFFFFFFFFFFFFFFFFFFFFFFFFFFFFF AND PUSH1 0x5 PUSH1 0x0 SWAP1 SLOAD SWAP1 PUSH2 0x100 EXP SWAP1 DIV PUSH20 0xFFFFFFFFFFFFFFFFFFFFFFFFFFFFFFFFFFFFFFFF AND PUSH20 0xFFFFFFFFFFFFFFFFFFFFFFFFFFFFFFFFFFFFFFFF AND EQ PUSH2 0x8AF JUMPI PUSH1 0x40 MLOAD PUSH32 0x8C379A000000000000000000000000000000000000000000000000000000000 DUP2 MSTORE PUSH1 0x4 ADD PUSH2 0x8A6 SWAP1 PUSH2 0x128B JUMP JUMPDEST PUSH1 0x40 MLOAD DUP1 SWAP2 SUB SWAP1 REVERT JUMPDEST PUSH1 0x0 PUSH20 0xFFFFFFFFFFFFFFFFFFFFFFFFFFFFFFFFFFFFFFFF AND DUP2 PUSH20 0xFFFFFFFFFFFFFFFFFFFFFFFFFFFFFFFFFFFFFFFF AND SUB PUSH2 0x91E JUMPI PUSH1 0x40 MLOAD PUSH32 0x8C379A000000000000000000000000000000000000000000000000000000000 DUP2 MSTORE PUSH1 0x4 ADD PUSH2 0x915 SWAP1 PUSH2 0x13A2 JUMP JUMPDEST PUSH1 0x40 MLOAD DUP1 SWAP2 SUB SWAP1 REVERT JUMPDEST DUP1 PUSH20 0xFFFFFFFFFFFFFFFFFFFFFFFFFFFFFFFFFFFFFFFF AND PUSH1 0x5 PUSH1 0x0 SWAP1 SLOAD SWAP1 PUSH2 0x100 EXP SWAP1 DIV PUSH20 0xFFFFFFFFFFFFFFFFFFFFFFFFFFFFFFFFFFFFFFFF AND PUSH20 0xFFFFFFFFFFFFFFFFFFFFFFFFFFFFFFFFFFFFFFFF AND PUSH32 0x8BE0079C531659141344CD1FD0A4F28419497F9722A3DAAFE3B4186F6B6457E0 PUSH1 0x40 MLOAD PUSH1 0x40 MLOAD DUP1 SWAP2 SUB SWAP1 LOG3 DUP1 PUSH1 0x5 PUSH1 0x0 PUSH2 0x100 EXP DUP2 SLOAD DUP2 PUSH20 0xFFFFFFFFFFFFFFFFFFFFFFFFFFFFFFFFFFFFFFFF MUL NOT AND SWAP1 DUP4 PUSH20 0xFFFFFFFFFFFFFFFFFFFFFFFFFFFFFFFFFFFFFFFF AND MUL OR SWAP1 SSTORE POP POP JUMP JUMPDEST PUSH1 0x0 CALLER SWAP1 POP SWAP1 JUMP JUMPDEST PUSH1 0x0 PUSH20 0xFFFFFFFFFFFFFFFFFFFFFFFFFFFFFFFFFFFFFFFF AND DUP4 PUSH20 0xFFFFFFFFFFFFFFFFFFFFFFFFFFFFFFFFFFFFFFFF AND SUB PUSH2 0xA55 JUMPI PUSH1 0x40 MLOAD PUSH32 0x8C379A000000000000000000000000000000000000000000000000000000000 DUP2 MSTORE PUSH1 0x4 ADD PUSH2 0xA4C SWAP1 PUSH2 0x1434 JUMP JUMPDEST PUSH1 0x40 MLOAD DUP1 SWAP2 SUB SWAP1 REVERT JUMPDEST PUSH1 0x0 PUSH20 0xFFFFFFFFFFFFFFFFFFFFFFFFFFFFFFFFFFFFFFFF AND DUP3 PUSH20 0xFFFFFFFFFFFFFFFFFFFFFFFFFFFFFFFFFFFFFFFF AND SUB PUSH2 0xAC4 JUMPI PUSH1 0x40 MLOAD PUSH32 0x8C379A000000000000000000000000000000000000000000000000000000000 DUP2 MSTORE PUSH1 0x4 ADD PUSH2 0xABB SWAP1 PUSH2 0x14C6 JUMP JUMPDEST PUSH1 0x40 MLOAD DUP1 SWAP2 SUB SWAP1 REVERT JUMPDEST DUP1 PUSH1 0x1 PUSH1 0x0 DUP6 PUSH20 0xFFFFFFFFFFFFFFFFFFFFFFFFFFFFFFFFFFFFFFFF AND PUSH20 0xFFFFFFFFFFFFFFFFFFFFFFFFFFFFFFFFFFFFFFFF AND DUP2 MSTORE PUSH1 0x20 ADD SWAP1 DUP2 MSTORE PUSH1 0x20 ADD PUSH1 0x0 KECCAK256 PUSH1 0x0 DUP5 PUSH20 0xFFFFFFFFFFFFFFFFFFFFFFFFFFFFFFFFFFFFFFFF AND PUSH20 0xFFFFFFFFFFFFFFFFFFFFFFFFFFFFFFFFFFFFFFFF AND DUP2 MSTORE PUSH1 0x20 ADD SWAP1 DUP2 MSTORE PUSH1 0x20 ADD PUSH1 0x0 KECCAK256 DUP2 SWAP1 SSTORE POP DUP2 PUSH20 0xFFFFFFFFFFFFFFFFFFFFFFFFFFFFFFFFFFFFFFFF AND DUP4 PUSH20 0xFFFFFFFFFFFFFFFFFFFFFFFFFFFFFFFFFFFFFFFF AND PUSH32 0x8C5BE1E5EBEC7D5BD14F71427D1E84F3DD0314C0F7B2291E5B200AC8C7C3B925 DUP4 PUSH1 0x40 MLOAD PUSH2 0xBA2 SWAP2 SWAP1 PUSH2 0x1011 JUMP JUMPDEST PUSH1 0x40 MLOAD DUP1 SWAP2 SUB SWAP1 LOG3 POP POP POP JUMP JUMPDEST PUSH1 0x0 PUSH20 0xFFFFFFFFFFFFFFFFFFFFFFFFFFFFFFFFFFFFFFFF AND DUP4 PUSH20 0xFFFFFFFFFFFFFFFFFFFFFFFFFFFFFFFFFFFFFFFF AND SUB PUSH2 0xC1E JUMPI PUSH1 0x40 MLOAD PUSH32 0x8C379A000000000000000000000000000000000000000000000000000000000 DUP2 MSTORE PUSH1 0x4 ADD PUSH2 0xC15 SWAP1 PUSH2 0x1558 JUMP JUMPDEST PUSH1 0x40 MLOAD DUP1 SWAP2 SUB SWAP1 REVERT JUMPDEST PUSH1 0x0 PUSH20 0xFFFFFFFFFFFFFFFFFFFFFFFFFFFFFFFFFFFFFFFF AND DUP3 PUSH20 0xFFFFFFFFFFFFFFFFFFFFFFFFFFFFFFFFFFFFFFFF AND SUB PUSH2 0xC8D JUMPI PUSH1 0x40 MLOAD PUSH32 0x8C379A000000000000000000000000000000000000000000000000000000000 DUP2 MSTORE PUSH1 0x4 ADD PUSH2 0xC84 SWAP1 PUSH2 0x15EA JUMP JUMPDEST PUSH1 0x40 MLOAD DUP1 SWAP2 SUB SWAP1 REVERT JUMPDEST PUSH2 0xC98 DUP4 DUP4 DUP4 PUSH2 0xE2E JUMP JUMPDEST PUSH1 0x0 DUP1 PUSH1 0x0 DUP6 PUSH20 0xFFFFFFFFFFFFFFFFFFFFFFFFFFFFFFFFFFFFFFFF AND PUSH20 0xFFFFFFFFFFFFFFFFFFFFFFFFFFFFFFFFFFFFFFFF AND DUP2 MSTORE PUSH1 0x20 ADD SWAP1 DUP2 MSTORE PUSH1 0x20 ADD PUSH1 0x0 KECCAK256 SLOAD SWAP1 POP DUP2 DUP2 LT ISZERO PUSH2 0xD1E JUMPI PUSH1 0x40 MLOAD PUSH32 0x8C379A000000000000000000000000000000000000000000000000000000000 DUP2 MSTORE PUSH1 0x4 ADD PUSH2 0xD15 SWAP1 PUSH2 0x167C JUMP JUMPDEST PUSH1 0x40 MLOAD DUP1 SWAP2 SUB SWAP1 REVERT JUMPDEST DUP2 DUP2 SUB PUSH1 0x0 DUP1 DUP7 PUSH20 0xFFFFFFFFFFFFFFFFFFFFFFFFFFFFFFFFFFFFFFFF AND PUSH20 0xFFFFFFFFFFFFFFFFFFFFFFFFFFFFFFFFFFFFFFFF AND DUP2 MSTORE PUSH1 0x20 ADD SWAP1 DUP2 MSTORE PUSH1 0x20 ADD PUSH1 0x0 KECCAK256 DUP2 SWAP1 SSTORE POP DUP2 PUSH1 0x0 DUP1 DUP6 PUSH20 0xFFFFFFFFFFFFFFFFFFFFFFFFFFFFFFFFFFFFFFFF AND PUSH20 0xFFFFFFFFFFFFFFFFFFFFFFFFFFFFFFFFFFFFFFFF AND DUP2 MSTORE PUSH1 0x20 ADD SWAP1 DUP2 MSTORE PUSH1 0x20 ADD PUSH1 0x0 KECCAK256 PUSH1 0x0 DUP3 DUP3 SLOAD PUSH2 0xDB1 SWAP2 SWAP1 PUSH2 0x12DA JUMP JUMPDEST SWAP3 POP POP DUP2 SWAP1 SSTORE POP DUP3 PUSH20 0xFFFFFFFFFFFFFFFFFFFFFFFFFFFFFFFFFFFFFFFF AND DUP5 PUSH20 0xFFFFFFFFFFFFFFFFFFFFFFFFFFFFFFFFFFFFFFFF AND PUSH32 0xDDF252AD1BE2C89B69C2B068FC378DAA952BA7F163C4A11628F55A4DF523B3EF DUP5 PUSH1 0x40 MLOAD PUSH2 0xE15 SWAP2 SWAP1 PUSH2 0x1011 JUMP JUMPDEST PUSH1 0x40 MLOAD DUP1 SWAP2 SUB SWAP1 LOG3 PUSH2 0xE28 DUP5 DUP5 DUP5 PUSH2 0xE33 JUMP JUMPDEST POP POP POP POP JUMP JUMPDEST POP POP POP JUMP JUMPDEST POP POP POP JUMP JUMPDEST PUSH1 0x0 DUP2 MLOAD SWAP1 POP SWAP2 SWAP1 POP JUMP JUMPDEST PUSH1 0x0 DUP3 DUP3 MSTORE PUSH1 0x20 DUP3 ADD SWAP1 POP SWAP3 SWAP2 POP POP JUMP JUMPDEST PUSH1 0x0 JUMPDEST DUP4 DUP2 LT ISZERO PUSH2 0xE72 JUMPI DUP1 DUP3 ADD MLOAD DUP2 DUP5 ADD MSTORE PUSH1 0x20 DUP2 ADD SWAP1 POP PUSH2 0xE57 JUMP JUMPDEST DUP4 DUP2 GT ISZERO PUSH2 0xE81 JUMPI PUSH1 0x0 DUP5 DUP5 ADD MSTORE JUMPDEST POP POP POP POP JUMP JUMPDEST PUSH1 0x0 PUSH1 0x1F NOT PUSH1 0x1F DUP4 ADD AND SWAP1 POP SWAP2 SWAP1 POP JUMP JUMPDEST PUSH1 0x0 PUSH2 0xEA3 DUP3 PUSH2 0xE38 JUMP JUMPDEST PUSH2 0xEAD DUP2 DUP6 PUSH2 0xE43 JUMP JUMPDEST SWAP4 POP PUSH2 0xEBD DUP2 DUP6 PUSH1 0x20 DUP7 ADD PUSH2 0xE54 JUMP JUMPDEST PUSH2 0xEC6 DUP2 PUSH2 0xE87 JUMP JUMPDEST DUP5 ADD SWAP2 POP POP SWAP3 SWAP2 POP POP JUMP JUMPDEST PUSH1 0x0 PUSH1 0x20 DUP3 ADD SWAP1 POP DUP2 DUP2 SUB PUSH1 0x0 DUP4 ADD MSTORE PUSH2 0xEEB DUP2 DUP5 PUSH2 0xE98 JUMP JUMPDEST SWAP1 POP SWAP3 SWAP2 POP POP JUMP JUMPDEST PUSH1 0x0 DUP1 REVERT JUMPDEST PUSH1 0x0 PUSH20 0xFFFFFFFFFFFFFFFFFFFFFFFFFFFFFFFFFFFFFFFF DUP3 AND SWAP1 POP SWAP2 SWAP1 POP JUMP JUMPDEST PUSH1 0x0 PUSH2 0xF23 DUP3 PUSH2 0xEF8 JUMP JUMPDEST SWAP1 POP SWAP2 SWAP1 POP JUMP JUMPDEST PUSH2 0xF33 DUP2 PUSH2 0xF18 JUMP JUMPDEST DUP2 EQ PUSH2 0xF3E JUMPI PUSH1 0x0 DUP1 REVERT JUMPDEST POP JUMP JUMPDEST PUSH1 0x0 DUP2 CALLDATALOAD SWAP1 POP PUSH2 0xF50 DUP2 PUSH2 0xF2A JUMP JUMPDEST SWAP3 SWAP2 POP POP JUMP JUMPDEST PUSH1 0x0 DUP2 SWAP1 POP SWAP2 SWAP1 POP JUMP JUMPDEST PUSH2 0xF69 DUP2 PUSH2 0xF56 JUMP JUMPDEST DUP2 EQ PUSH2 0xF74 JUMPI PUSH1 0x0 DUP1 REVERT JUMPDEST POP JUMP JUMPDEST PUSH1 0x0 DUP2 CALLDATALOAD SWAP1 POP PUSH2 0xF86 DUP2 PUSH2 0xF60 JUMP JUMPDEST SWAP3 SWAP2 POP POP JUMP JUMPDEST PUSH1 0x0 DUP1 PUSH1 0x40 DUP4 DUP6 SUB SLT ISZERO PUSH2 0xFA3 JUMPI PUSH2 0xFA2 PUSH2 0xEF3 JUMP JUMPDEST JUMPDEST PUSH1 0x0 PUSH2 0xFB1 DUP6 DUP3 DUP7 ADD PUSH2 0xF41 JUMP JUMPDEST SWAP3 POP POP PUSH1 0x20 PUSH2 0xFC2 DUP6 DUP3 DUP7 ADD PUSH2 0xF77 JUMP JUMPDEST SWAP2 POP POP SWAP3 POP SWAP3 SWAP1 POP JUMP JUMPDEST PUSH1 0x0 DUP2 ISZERO ISZERO SWAP1 POP SWAP2 SWAP1 POP JUMP JUMPDEST PUSH2 0xFE1 DUP2 PUSH2 0xFCC JUMP JUMPDEST DUP3 MSTORE POP POP JUMP JUMPDEST PUSH1 0x0 PUSH1 0x20 DUP3 ADD SWAP1 POP PUSH2 0xFFC PUSH1 0x0 DUP4 ADD DUP5 PUSH2 0xFD8 JUMP JUMPDEST SWAP3 SWAP2 POP POP JUMP JUMPDEST PUSH2 0x100B DUP2 PUSH2 0xF56 JUMP JUMPDEST DUP3 MSTORE POP POP JUMP JUMPDEST PUSH1 0x0 PUSH1 0x20 DUP3 ADD SWAP1 POP PUSH2 0x1026 PUSH1 0x0 DUP4 ADD DUP5 PUSH2 0x1002 JUMP JUMPDEST SWAP3 SWAP2 POP POP JUMP JUMPDEST PUSH1 0x0 DUP1 PUSH1 0x0 PUSH1 0x60 DUP5 DUP7 SUB SLT ISZERO PUSH2 0x1045 JUMPI PUSH2 0x1044 PUSH2 0xEF3 JUMP JUMPDEST JUMPDEST PUSH1 0x0 PUSH2 0x1053 DUP7 DUP3 DUP8 ADD PUSH2 0xF41 JUMP JUMPDEST SWAP4 POP POP PUSH1 0x20 PUSH2 0x1064 DUP7 DUP3 DUP8 ADD PUSH2 0xF41 JUMP JUMPDEST SWAP3 POP POP PUSH1 0x40 PUSH2 0x1075 DUP7 DUP3 DUP8 ADD PUSH2 0xF77 JUMP JUMPDEST SWAP2 POP POP SWAP3 POP SWAP3 POP SWAP3 JUMP JUMPDEST PUSH1 0x0 PUSH1 0xFF DUP3 AND SWAP1 POP SWAP2 SWAP1 POP JUMP JUMPDEST PUSH2 0x1095 DUP2 PUSH2 0x107F JUMP JUMPDEST DUP3 MSTORE POP POP JUMP JUMPDEST PUSH1 0x0 PUSH1 0x20 DUP3 ADD SWAP1 POP PUSH2 0x10B0 PUSH1 0x0 DUP4 ADD DUP5 PUSH2 0x108C JUMP JUMPDEST SWAP3 SWAP2 POP POP JUMP JUMPDEST PUSH1 0x0 PUSH1 0x20 DUP3 DUP5 SUB SLT ISZERO PUSH2 0x10CC JUMPI PUSH2 0x10CB PUSH2 0xEF3 JUMP JUMPDEST JUMPDEST PUSH1 0x0 PUSH2 0x10DA DUP5 DUP3 DUP6 ADD PUSH2 0xF41 JUMP JUMPDEST SWAP2 POP POP SWAP3 SWAP2 POP POP JUMP JUMPDEST PUSH2 0x10EC DUP2 PUSH2 0xF18 JUMP JUMPDEST DUP3 MSTORE POP POP JUMP JUMPDEST PUSH1 0x0 PUSH1 0x20 DUP3 ADD SWAP1 POP PUSH2 0x1107 PUSH1 0x0 DUP4 ADD DUP5 PUSH2 0x10E3 JUMP JUMPDEST SWAP3 SWAP2 POP POP JUMP JUMPDEST PUSH1 0x0 DUP1 PUSH1 0x40 DUP4 DUP6 SUB SLT ISZERO PUSH2 0x1124 JUMPI PUSH2 0x1123 PUSH2 0xEF3 JUMP JUMPDEST JUMPDEST PUSH1 0x0 PUSH2 0x1132 DUP6 DUP3 DUP7 ADD PUSH2 0xF41 JUMP JUMPDEST SWAP3 POP POP PUSH1 0x20 PUSH2 0x1143 DUP6 DUP3 DUP7 ADD PUSH2 0xF41 JUMP JUMPDEST SWAP2 POP POP SWAP3 POP SWAP3 SWAP1 POP JUMP JUMPDEST PUSH32 0x4E487B7100000000000000000000000000000000000000000000000000000000 PUSH1 0x0 MSTORE PUSH1 0x22 PUSH1 0x4 MSTORE PUSH1 0x24 PUSH1 0x0 REVERT JUMPDEST PUSH1 0x0 PUSH1 0x2 DUP3 DIV SWAP1 POP PUSH1 0x1 DUP3 AND DUP1 PUSH2 0x1194 JUMPI PUSH1 0x7F DUP3 AND SWAP2 POP JUMPDEST PUSH1 0x20 DUP3 LT DUP2 SUB PUSH2 0x11A7 JUMPI PUSH2 0x11A6 PUSH2 0x114D JUMP JUMPDEST JUMPDEST POP SWAP2 SWAP1 POP JUMP JUMPDEST PUSH32 0x45524332303A207472616E7366657220616D6F756E7420657863656564732061 PUSH1 0x0 DUP3 ADD MSTORE PUSH32 0x6C6C6F77616E6365000000000000000000000000000000000000000000000000 PUSH1 0x20 DUP3 ADD MSTORE POP JUMP JUMPDEST PUSH1 0x0 PUSH2 0x1209 PUSH1 0x28 DUP4 PUSH2 0xE43 JUMP JUMPDEST SWAP2 POP PUSH2 0x1214 DUP3 PUSH2 0x11AD JUMP JUMPDEST PUSH1 0x40 DUP3 ADD SWAP1 POP SWAP2 SWAP1 POP JUMP JUMPDEST PUSH1 0x0 PUSH1 0x20 DUP3 ADD SWAP1 POP DUP2 DUP2 SUB PUSH1 0x0 DUP4 ADD MSTORE PUSH2 0x1238 DUP2 PUSH2 0x11FC JUMP JUMPDEST SWAP1 POP SWAP2 SWAP1 POP JUMP JUMPDEST PUSH32 0x45524332303A2063616C6C6572206973206E6F7420746865206F776E65720000 PUSH1 0x0 DUP3 ADD MSTORE POP JUMP JUMPDEST PUSH1 0x0 PUSH2 0x1275 PUSH1 0x1E DUP4 PUSH2 0xE43 JUMP JUMPDEST SWAP2 POP PUSH2 0x1280 DUP3 PUSH2 0x123F JUMP JUMPDEST PUSH1 0x20 DUP3 ADD SWAP1 POP SWAP2 SWAP1 POP JUMP JUMPDEST PUSH1 0x0 PUSH1 0x20 DUP3 ADD SWAP1 POP DUP2 DUP2 SUB PUSH1 0x0 DUP4 ADD MSTORE PUSH2 0x12A4 DUP2 PUSH2 0x1268 JUMP JUMPDEST SWAP1 POP SWAP2 SWAP1 POP JUMP JUMPDEST PUSH32 0x4E487B7100000000000000000000000000000000000000000000000000000000 PUSH1 0x0 MSTORE PUSH1 0x11 PUSH1 0x4 MSTORE PUSH1 0x24 PUSH1 0x0 REVERT JUMPDEST PUSH1 0x0 PUSH2 0x12E5 DUP3 PUSH2 0xF56 JUMP JUMPDEST SWAP2 POP PUSH2 0x12F0 DUP4 PUSH2 0xF56 JUMP JUMPDEST SWAP3 POP DUP3 PUSH32 0xFFFFFFFFFFFFFFFFFFFFFFFFFFFFFFFFFFFFFFFFFFFFFFFFFFFFFFFFFFFFFFFF SUB DUP3 GT ISZERO PUSH2 0x1325 JUMPI PUSH2 0x1324 PUSH2 0x12AB JUMP JUMPDEST JUMPDEST DUP3 DUP3 ADD SWAP1 POP SWAP3 SWAP2 POP POP JUMP JUMPDEST PUSH32 0x45524332303A206E6577206F776E657220697320746865207A65726F20616464 PUSH1 0x0 DUP3 ADD MSTORE PUSH32 0x7265737300000000000000000000000000000000000000000000000000000000 PUSH1 0x20 DUP3 ADD MSTORE POP JUMP JUMPDEST PUSH1 0x0 PUSH2 0x138C PUSH1 0x24 DUP4 PUSH2 0xE43 JUMP JUMPDEST SWAP2 POP PUSH2 0x1397 DUP3 PUSH2 0x1330 JUMP JUMPDEST PUSH1 0x40 DUP3 ADD SWAP1 POP SWAP2 SWAP1 POP JUMP JUMPDEST PUSH1 0x0 PUSH1 0x20 DUP3 ADD SWAP1 POP DUP2 DUP2 SUB PUSH1 0x0 DUP4 ADD MSTORE PUSH2 0x13BB DUP2 PUSH2 0x137F JUMP JUMPDEST SWAP1 POP SWAP2 SWAP1 POP JUMP JUMPDEST PUSH32 0x45524332303A20617070726F76652066726F6D20746865207A65726F20616464 PUSH1 0x0 DUP3 ADD MSTORE PUSH32 0x7265737300000000000000000000000000000000000000000000000000000000 PUSH1 0x20 DUP3 ADD MSTORE POP JUMP JUMPDEST PUSH1 0x0 PUSH2 0x141E PUSH1 0x24 DUP4 PUSH2 0xE43 JUMP JUMPDEST SWAP2 POP PUSH2 0x1429 DUP3 PUSH2 0x13C2 JUMP JUMPDEST PUSH1 0x40 DUP3 ADD SWAP1 POP SWAP2 SWAP1 POP JUMP JUMPDEST PUSH1 0x0 PUSH1 0x20 DUP3 ADD SWAP1 POP DUP2 DUP2 SUB PUSH1 0x0 DUP4 ADD MSTORE PUSH2 0x144D DUP2 PUSH2 0x1411 JUMP JUMPDEST SWAP1 POP SWAP2 SWAP1 POP JUMP JUMPDEST PUSH32 0x45524332303A20617070726F766520746F20746865207A65726F206164647265 PUSH1 0x0 DUP3 ADD MSTORE PUSH32 0x7373000000000000000000000000000000000000000000000000000000000000 PUSH1 0x20 DUP3 ADD MSTORE POP JUMP JUMPDEST PUSH1 0x0 PUSH2 0x14B0 PUSH1 0x22 DUP4 PUSH2 0xE43 JUMP JUMPDEST SWAP2 POP PUSH2 0x14BB DUP3 PUSH2 0x1454 JUMP JUMPDEST PUSH1 0x40 DUP3 ADD SWAP1 POP SWAP2 SWAP1 POP JUMP JUMPDEST PUSH1 0x0 PUSH1 0x20 DUP3 ADD SWAP1 POP DUP2 DUP2 SUB PUSH1 0x0 DUP4 ADD MSTORE PUSH2 0x14DF DUP2 PUSH2 0x14A3 JUMP JUMPDEST SWAP1 POP SWAP2 SWAP1 POP JUMP JUMPDEST PUSH32 0x45524332303A207472616E736665722066726F6D20746865207A65726F206164 PUSH1 0x0 DUP3 ADD MSTORE PUSH32 0x6472657373000000000000000000000000000000000000000000000000000000 PUSH1 0x20 DUP3 ADD MSTORE POP JUMP JUMPDEST PUSH1 0x0 PUSH2 0x1542 PUSH1 0x25 DUP4 PUSH2 0xE43 JUMP JUMPDEST SWAP2 POP PUSH2 0x154D DUP3 PUSH2 0x14E6 JUMP JUMPDEST PUSH1 0x40 DUP3 ADD SWAP1 POP SWAP2 SWAP1 POP JUMP JUMPDEST PUSH1 0x0 PUSH1 0x20 DUP3 ADD SWAP1 POP DUP2 DUP2 SUB PUSH1 0x0 DUP4 ADD MSTORE PUSH2 0x1571 DUP2 PUSH2 0x1535 JUMP JUMPDEST SWAP1 POP SWAP2 SWAP1 POP JUMP JUMPDEST PUSH32 0x45524332303A207472616E7366657220746F20746865207A65726F2061646472 PUSH1 0x0 DUP3 ADD MSTORE PUSH32 0x6573730000000000000000000000000000000000000000000000000000000000 PUSH1 0x20 DUP3 ADD MSTORE POP JUMP JUMPDEST PUSH1 0x0 PUSH2 0x15D4 PUSH1 0x23 DUP4 PUSH2 0xE43 JUMP JUMPDEST SWAP2 POP PUSH2 0x15DF DUP3 PUSH2 0x1578 JUMP JUMPDEST PUSH1 0x40 DUP3 ADD SWAP1 POP SWAP2 SWAP1 POP JUMP JUMPDEST PUSH1 0x0 PUSH1 0x20 DUP3 ADD SWAP1 POP DUP2 DUP2 SUB PUSH1 0x0 DUP4 ADD MSTORE PUSH2 0x1603 DUP2 PUSH2 0x15C7 JUMP JUMPDEST SWAP1 POP SWAP2 SWAP1 POP JUMP JUMPDEST PUSH32 0x45524332303A207472616E7366657220616D6F756E7420657863656564732062 PUSH1 0x0 DUP3 ADD MSTORE PUSH32 0x616C616E63650000000000000000000000000000000000000000000000000000 PUSH1 0x20 DUP3 ADD MSTORE POP JUMP JUMPDEST PUSH1 0x0 PUSH2 0x1666 PUSH1 0x26 DUP4 PUSH2 0xE43 JUMP JUMPDEST SWAP2 POP PUSH2 0x1671 DUP3 PUSH2 0x160A JUMP JUMPDEST PUSH1 0x40 DUP3 ADD SWAP1 POP SWAP2 SWAP1 POP JUMP JUMPDEST PUSH1 0x0 PUSH1 0x20 DUP3 ADD SWAP1 POP DUP2 DUP2 SUB PUSH1 0x0 DUP4 ADD MSTORE PUSH2 0x1695 DUP2 PUSH2 0x1659 JUMP JUMPDEST SWAP1 POP SWAP2 SWAP1 POP JUMP INVALID LOG2 PUSH5 0x6970667358 0x22 SLT KECCAK256 0xAD MULMOD 0xE0 0xB6 DUP14 RETURNDATACOPY 0xD4 0x23 0x2B BASEFEE 0x26 0x24 0xC6 INVALID PUSH17 0xE8EB09C24A0E2CA2E01D8E679C157F94 PUSH5 0x736F6C6343 STOP ADDMOD 0xF STOP CALLER "
				},
				"gasEstimates": {
					"creation": {
						"codeDepositCost": "1168400",
						"executionCost": "infinite",
						"totalCost": "infinite"
					},
					"external": {
						"allowance(address,address)": "infinite",
						"approve(address,uint256)": "infinite",
						"balanceOf(address)": "2886",
						"decimals()": "454",
						"increaseAllowance(address,uint256)": "infinite",
						"name()": "infinite",
						"owner()": "2589",
						"removeOwner()": "30386",
						"symbol()": "infinite",
						"totalSupply()": "2482",
						"transfer(address,uint256)": "infinite",
						"transferFrom(address,address,uint256)": "infinite",
						"transferOwnership(address)": "30731"
					},
					"internal": {
						"_afterTokenTransfer(address,address,uint256)": "15",
						"_approve(address,address,uint256)": "infinite",
						"_beforeTokenTransfer(address,address,uint256)": "15",
						"_burn(address,uint256)": "infinite",
						"_mint(address,uint256)": "infinite",
						"_transfer(address,address,uint256)": "infinite"
					}
				},
				"methodIdentifiers": {
					"allowance(address,address)": "dd62ed3e",
					"approve(address,uint256)": "095ea7b3",
					"balanceOf(address)": "70a08231",
					"decimals()": "313ce567",
					"increaseAllowance(address,uint256)": "39509351",
					"name()": "06fdde03",
					"owner()": "8da5cb5b",
					"removeOwner()": "246f8b96",
					"symbol()": "95d89b41",
					"totalSupply()": "18160ddd",
					"transfer(address,uint256)": "a9059cbb",
					"transferFrom(address,address,uint256)": "23b872dd",
					"transferOwnership(address)": "f2fde38b"
				}
			},
			"storageLayout": {
				"storage": [
					{
						"astId": 118,
						"contract": "contracts/FIW.sol:ERC20",
						"label": "_balances",
						"offset": 0,
						"slot": "0",
						"type": "t_mapping(t_address,t_uint256)"
					},
					{
						"astId": 124,
						"contract": "contracts/FIW.sol:ERC20",
						"label": "_allowances",
						"offset": 0,
						"slot": "1",
						"type": "t_mapping(t_address,t_mapping(t_address,t_uint256))"
					},
					{
						"astId": 126,
						"contract": "contracts/FIW.sol:ERC20",
						"label": "_totalSupply",
						"offset": 0,
						"slot": "2",
						"type": "t_uint256"
					},
					{
						"astId": 128,
						"contract": "contracts/FIW.sol:ERC20",
						"label": "_name",
						"offset": 0,
						"slot": "3",
						"type": "t_string_storage"
					},
					{
						"astId": 130,
						"contract": "contracts/FIW.sol:ERC20",
						"label": "_symbol",
						"offset": 0,
						"slot": "4",
						"type": "t_string_storage"
					},
					{
						"astId": 132,
						"contract": "contracts/FIW.sol:ERC20",
						"label": "_owner",
						"offset": 0,
						"slot": "5",
						"type": "t_address"
					}
				],
				"types": {
					"t_address": {
						"encoding": "inplace",
						"label": "address",
						"numberOfBytes": "20"
					},
					"t_mapping(t_address,t_mapping(t_address,t_uint256))": {
						"encoding": "mapping",
						"key": "t_address",
						"label": "mapping(address => mapping(address => uint256))",
						"numberOfBytes": "32",
						"value": "t_mapping(t_address,t_uint256)"
					},
					"t_mapping(t_address,t_uint256)": {
						"encoding": "mapping",
						"key": "t_address",
						"label": "mapping(address => uint256)",
						"numberOfBytes": "32",
						"value": "t_uint256"
					},
					"t_string_storage": {
						"encoding": "bytes",
						"label": "string",
						"numberOfBytes": "32"
					},
					"t_uint256": {
						"encoding": "inplace",
						"label": "uint256",
						"numberOfBytes": "32"
					}
				}
			},
			"userdoc": {
				"kind": "user",
				"methods": {},
				"version": 1
			}
		}
	}
}